:020000040800F2
:10000000580B0020A1010008C30E0008990C00083D
:10001000BF0E000875070008031700080000000065
:100020000000000000000000000000009D12000819
:10003000530A000800000000850F00088D13000817
:10004000BB010008BB010008BB010008BB010008A0
:10005000BB010008BB010008BB010008BB01000890
:10006000BB010008BB010008BB010008BB01000880
:10007000BB010008BB010008BB010008BB01000870
:10008000BB010008BB010008BB010008BB01000860
:10009000BB010008BB010008BB010008BB01000850
:1000A000BB010008BB010008BB010008BB01000840
:1000B000BB010008BB010008BB010008BB01000830
:1000C000BB010008BB010008BB010008BB01000820
:1000D000BB0100089D140008D5140008BB010008EE
:1000E000BB010008BB010008BB010008BB01000800
:1000F000BB010008BB010008BB010008BB010008F0
:10010000BB010008BB010008BB010008BB010008DF
:10011000BB010008BB010008BB010008BB010008CF
:10012000BB010008BB010008BB010008BB010008BF
:10013000BB010008BB010008BB010008BB010008AF
:10014000BB010008BB010008BB010008BB0100089F
:10015000BB010008BB01000879070008BB010008CB
:10016000BB010008BB010008BB010008BB0100087F
:10017000BB010008BB010008BB010008BB0100086F
:10018000BB010008BB010008DFF810D000F052FAF4
:1001900000480047052F0008AFF30080580B0020EF
:1001A0000648804706480047FEE7FEE7FEE7FEE711
:1001B000FEE7FEE7FEE7FEE7FEE7FEE79113000835
:1001C0008901000830B505462A460B4612F8010B96
:1001D00013F8014B08B1A042F8D01CB1002802D09E
:1001E0006D1CF1E7284630BD421C10F8011B0029A8
:1001F000FBD1801A704730B504460020034600E06A
:100200005B1C934203D2E05CCD5C401BF8D030BD58
:1002100000F0004230F000400AD0C10D01F56071DD
:10022000C0F3160042EA0151C2084007114370476B
:1002300000200146704730B50B46014600202022C1
:10024000012409E021FA02F59D4205D303FA02F5E3
:10025000491B04FA02F52844151EA2F10102F1DC43
:1002600030BD2DE9F05F0546002092469B4688464A
:100270000646814640241BE0284641464746224622
:1002800000F0F9F953465A46C01A914110D311466D
:100290001846224600F0E0F92D1A67EB01084F4698
:1002A00022460120002100F0D7F917EB00094E414A
:1002B000201EA4F10104DFDC484631462A464346AD
:1002C000BDE8F09F2DE9FE4F804681EA0300C00F94
:1002D0000C46009021F0004123F00045B8EB0200ED
:1002E000A94105D24046214690461C460B4602468F
:1002F00023F00040104347D0270DC7F30A00C3F393
:100300000A510290401A019040286BDAC3F313009F
:1003100040F4801B0098924620B10023D2EB030AE0
:1003200063EB0B0B01985946C0F14002504600F0B8
:1003300093F906460D4650465946019A00F0ABF92E
:1003400010EB08006141002487EA115284EAE77348
:100350001A4340D0009A62B3019A012A4FEA075229
:1003600015DC001B61EB02014FF0004202EA07526C
:10037000CDE90042001C41F5801132462B4600F0C9
:10038000ABF903B0BDE8F08F40462146F9E7001B0A
:1003900061EB0201001C41F5801300185B4120183D
:1003A000A2F5001747EB030140EAD570B6196D417D
:1003B00011E06D084FEA360645EAC0754FEA07526C
:1003C000001B61EB0201001C41F5801149084FEA56
:1003D00030000019514132462B4603B0BDE8F04FC2
:1003E00000F06BB90098012240000023D0EB02021C
:1003F00063EBE073009821464FEAE074B8EB00002D
:1004000061EB0401E9E783F000435BE781F0004121
:1004100058E72DE9FE4F81EA030404F0004421F07F
:10042000004100944FF0000B23F0004350EA010418
:100430005ED052EA03045BD0C3F30A54C1F30A55F9
:100440002C44A4F2F3340194A0FB0254C1F3130131
:1004500041F48011C3F3130343F4801301FB0244FE
:1004600000FB034E840A970A44EA815447EA835703
:10047000A4FB076802958D0A05FB07854FEA932CBC
:1004800004FB0C542705029D4FEA065847EA16372D
:10049000B5EB08056EEB070C870E920E47EA811745
:1004A00042EA8312A7FB0201B6EB0B0164EB0004E6
:1004B0002B0D43EA0C335E1844EB1C50DA465146D0
:1004C000E7FB0201C5F313044FEA0B3343EA14536D
:1004D0004FEA0432019C43EA0603A4F10C0402949F
:1004E000009CCDE900B400F0F7F803B0BDE8F08F50
:1004F00000200146F9E72DE9F04D81EA030404F0FC
:10050000004B21F0004514464FF0000A23F0004153
:1005100050EA050220D054EA01021DD0C5F30A5763
:100520000246C5F31303C1F31300C1F30A5640F4A6
:10053000801543F48013A7EB0608101BD64608F27B
:10054000FD3873EB050002D308F1010801E09218B1
:100550005B41B8F1000F03DA00200146BDE8F08DE1
:1005600000204FF48011064684460EE0171B73EB03
:10057000050705D3121B63EB050306434CEA010C88
:1005800049084FEA300092185B4150EA0107EDD16B
:1005900052EA030012D082EA040083EA050108430C
:1005A00005D0101BAB4106D20122002306E0002239
:1005B0004FF0004302E06FF0010253101AEB060007
:1005C0004CEB085110EB0A0041EB0B01BDE8F04D7C
:1005D00000F073B8C1F30A52C1F3130140F2FF33C4
:1005E00041F480119A4202DA00200146704740F23D
:1005F00033439A42A2F2334202DC524200F03BB84B
:1006000000F02AB830B5041E71F1000404DB4FF08D
:100610000044404264EB0101141E73F1000405DB49
:100620001C464FF00043524263EB0403994208BF5B
:10063000904230BD064C074D06E0E06840F00103F3
:1006400094E8070098471034AC42F6D3FFF7A0FDBA
:10065000480C0408680C0408202A04DB203A00FA3D
:1006600002F1002070479140C2F1200320FA03F309
:10067000194390407047202A04DB203A21FA02F007
:100680000021704721FA02F3D040C2F120029140CC
:10069000084319467047202A06DBCB17203A41FA57
:1006A00002F043EAE07306E041FA02F3D040C2F1FF
:1006B0002002914008431946704710B5141E73F18B
:1006C000000408DA401C41F1000192185B411A4312
:1006D00001D120F0010010BD2DE9F04D92469B465E
:1006E00011B1B1FA81F202E0B0FA80F22032904604
:1006F000FFF7B2FF04460F4640EA0A0041EA0B0149
:1007000053465A46084313D0114653EA010019D004
:10071000C8F140025046FFF7AEFF05460E46504670
:1007200059464246FFF798FF084305D0012004E0F0
:1007300020463946BDE8F08D0020054346EAE076C4
:100740002C4337430A986305E40AA0EB0800002213
:10075000FD0A44EA47540A3002D500200146E9E781
:10076000010510196941DDE9084500196941BDE835
:10077000F04DA2E700BFFEE710B50549054800F0BF
:10078000DBF818B10249034800F006F810BD00007C
:1007900000800028B86402400246094B9A4201D208
:1007A000084801E00648103801F000531BB1064B21
:1007B0000B40C36002E0044B0B40836070470000B5
:1007C00010640240006002407D0F7D0F016821F03F
:1007D000010101600021016041608160C16001612F
:1007E000212141614A49884204D13D21484A103AB9
:1007F00091608CE046491831884205D14FF474610C
:10080000434A103A916082E041493031884205D133
:100810004FF474113E4A103A916078E03C494831F7
:10082000884205D14FF07461394A103A91606EE008
:1008300037496031884204D13649354A103AD1608F
:1008400065E033497831884204D13349304A103A5F
:10085000D1605CE02E499031884204D12F492C4A66
:10086000103AD16053E02A49A831884205D14FF0AF
:100870003D51274A103AD16049E02949884204D1C4
:100880003D21274A083A116041E025491831884244
:1008900005D14FF47461224A083A116037E02049CB
:1008A0003031884205D14FF474111D4A083A116065
:1008B0002DE01B494831884205D14FF07461184A38
:1008C000083A116023E016496031884204D1114989
:1008D000134A121F11601AE011497831884204D17D
:1008E0000D490F4A121F116011E00D4990318842E5
:1008F00004D10A490A4A121F116008E00849A831C8
:10090000884204D14FF03D51054A121F11607047D3
:10091000106002403D000020400F002000003D20FC
:1009200010640240014600200A6802F001020AB188
:10093000012000E00020704770B50246002000242E
:100940000025124EB24201D2114B01E00F4B103B79
:10095000104E0E4036B11E2606EAD124166806EA6D
:10096000040502E0566906F0800501F000560EB15C
:100970005C6800E01C68084E344004EA010616B1C9
:100980000DB1012000E0002070BD000010640240A5
:10099000006002403C0F3C0F7D0F7D0F10B501F051
:1009A00080034BB122B1436943F08003436103E00C
:1009B000436923F08003436180290BD02AB1036887
:1009C00001F01E042343036004E0036801F01E04E9
:1009D000A343036010BD000010B500220268134B52
:1009E0001A40CC680B6823434C6923438C6923432A
:1009F000CC6923430C6A23434C6A23438C6A234308
:100A00004C6B23438C6B23431A430260426922F0F0
:100A10000702D1E90B3423431A4342610B69436057
:100A20004B6883608B68C36010BD00003F801CF082
:100A30000021016041608160C160016141618161AB
:100A4000C161016241628162C1620163416381638C
:100A50007047704751B18200A2F1C042126842F063
:100A600001038200A2F1C042136009E08200A2F1FA
:100A7000C0421268034B1A408300A3F1C0431A60BE
:100A800070470000FEFF0F0030B500210022002358
:100A90000468A400A4F1C0442168424C2140D0E97C
:100AA00001452C43C5682C4305692C4345692C43FB
:100AB00085692C43C5692C43056A2C43456A2C4340
:100AC000856A2C43C56A2C43056B2C43214304687B
:100AD000A400A4F1C04421608468082C0BD10468F0
:100AE000A400A4F1C044246844F040050468A400B4
:100AF000A4F1C04425600468641CA400A4F1C044AF
:100B0000226802F04042446B2468456B6D6844EAF9
:100B10000514456BAD6844EA0524456BAD8944EA8C
:100B20000544456B2D8A44EA0554456B2D7D44EA06
:100B30000564456BAD692C4322430468641CA40022
:100B4000A4F1C0442260C46AB4F5804F20D1046887
:100B5000A400A4F1C044D4F80431134C2340846BA6
:100B60002468856B6D6844EA0514856BAD6844EABA
:100B70000524856BAD8944EA0544856BAD692C433A
:100B800023430468A400A4F1C044C4F8043107E07E
:100B90006FF070450468A400A4F1C044C4F8045187
:100BA00030BD00008000F7FF0000F0CFF0B50A462E
:100BB00000210023002400BF3DE0012505FA01F3D8
:100BC000156805EA03049C4234D105684F000326EA
:100BD000BE40B543056015794E00B5400668354303
:100BE00005601579012D02D01579022D16D1856881
:100BF0004F000326BE40B543856055794E00B54091
:100C0000866835438560456801268E40B54345605A
:100C1000456896798E40B6B235434560C5684F0049
:100C20000326BE40B543C560D5794E00B540C668C1
:100C30003543C560491C1029BFD3F0BDF0B5002372
:100C400000244D07ED0E02FA05F3CE1000F1200549
:100C500055F826504E07F70E0F26BE40B543CF106D
:100C600000F1200646F82750CE1000F1200555F877
:100C7000265045EA0304CE1000F1200545F8264031
:100C8000F0BD816170474FF6FF7101600021017175
:100C900041718171C171704700BFFEE721B10288C7
:100CA00042F48062028004E002884FF6FF331A406B
:100CB0000280704770B502460025002300240026FC
:100CC000938A03F0020010B923F0100008B1148BCE
:100CD00001E0002070BD240443EA040020F07F45B9
:100CE00005EA0100884201D1012600E000263046D5
:100CF000F0E721B1028842F00102028004E002889C
:100D00004FF6FE731A4002807047000010B504468B
:100D10001348844209D10121480500F065F90021FA
:100D20004FF4001000F060F918E00E48844209D139
:100D30000121880500F058F900214FF4800000F0EF
:100D400053F90BE00848844208D10121C80500F09E
:100D50004BF900214FF4000000F046F910BD0000EF
:100D60000054004000580040005C004021B102885F
:100D700042F48072028004E002884FF6FF631A405A
:100D80000280704721B1028842F40072028004E0C0
:100D900002884FF6FF531A40028070472DE9FF4743
:100DA00004460D460026B1460427DFF8CC80A6880D
:100DB0004FF6C0700640684600F036F9DDF808804E
:100DC0002E48B8FBF0F01FFA80F946EA0906A68023
:100DD00020884FF6FE7108402080002628492868A8
:100DE00088420CD828684000B8FBF0F087B2042F86
:100DF00000DA04273E4309F10100208427E0E88857
:100E00004BF6FF71884206D1286800EB4000B8FB22
:100E1000F0F087B209E0286800EBC00101EB001098
:100E2000B8FBF0F087B247F48047C7F30B0008B96E
:100E300047F0010747F4004006434FF4967009FB62
:100E400000F04FF47A7190FBF1F0401C2084A683EF
:100E5000208840F00100208026884FF6F5300640BB
:100E6000A8886989084306432680A88929890843F8
:100E70002081BDE8FF87000000127A0040420F0089
:100E8000A08601000146088AC0B2704712B141F045
:100E9000010101E001F0FE0101827047018270470B
:100EA00041F288310160002181804BF6FF71C180E1
:100EB0000021018141814FF480418181704700BF51
:100EC000FEE7704770B5002100230F22C4781CB3E1
:100ED000174C246804F4E064C4F5E064C4F307210B
:100EE000C1F10404E3B20A4144789C40E1B2847841
:100EF000144021430C07210E0E4C057861550478EF
:100F000004F01F050124AC4005786D11AD0005F11A
:100F1000E025C5F8004109E0047804F01F0501242C
:100F2000AC40054D0678761145F8264070BD0000AE
:100F30000CED00E000E400E080E100E00249014344
:100F4000024A1160704700000000FA050CED00E055
:100F500010B5002807DA0A07140E054A00F00F033F
:100F60001B1FD45403E00A07130E024A135410BD8A
:100F700018ED00E000E400E001490862704700005D
:100F800000000E427047000029B1064A1268024371
:100F9000044B1A6004E0034A12688243014B1A6052
:100FA000704700003038024029B1064A12680243F7
:100FB000044B1A6004E0034A12688243014B1A6032
:100FC000704700003838024029B1064A12680243CF
:100FD000044B1A6004E0034A12688243014B1A6012
:100FE000704700004038024029B1064A12680243A7
:100FF000044B1A6004E0034A12688243014B1A60F2
:10100000704700002038024029B1064A12680243A6
:10101000044B1A6004E0034A12688243014B1A60D1
:101020007047000044380240F0B50021002200243F
:10103000022500260223324F3F6807F00C0121B140
:10104000042905D0082937D105E02E4F076036E086
:101050002D4F076033E02A4F3F1F3F68C7F380568C
:10106000274F3F1F3F6807F03F036EB1264FB7FB86
:10107000F3F7DFF88CC0ACF1040CDCF800C0CCF363
:10108000881C07FB0CF40CE01E4FB7FBF3F7DFF8EE
:1010900070C0ACF1040CDCF800C0CCF3881C07FB7A
:1010A0000CF4174F3F1F3F68C7F301477F1C7D00BB
:1010B000B4FBF5F7076002E0124F076000BF00BF06
:1010C0000F4F3F6807F0F0010909104F7A5C07687D
:1010D000D74047600A4F3F6807F4E051890A0B4F39
:1010E0007A5C4768D7408760054F3F6807F46041E6
:1010F000490B064F7A5C4768D740C760F0BD0000D7
:10110000083802400024F40000127A002800002071
:1011100010B501460022002300204A11012A02D105
:101120000A4C236808E0022A03D1084C7034236873
:1011300002E0064C7434236801F01F02012494403D
:101140001C400CB1012000E0002010BD003802401E
:101150000021094A11701170012802D0042808D119
:1011600003E00121044A117004E00521024A1170D4
:1011700000E000BF00BF704770380240002100F45B
:101180004072B2F5407F08D1094A116821F4F81184
:10119000084A02401143064A1160054A6832126843
:1011A000C0F30B031A43024B68331A607047000008
:1011B00008380240FFFCFF0F10B5034603F0F800AB
:1011C000000201F0FC0440EAC40040EAE20010BD65
:1011D000014600BF080900EB8000420001F00F004B
:1011E0001044C0B27047012101708170417000212C
:1011F000C170704770B506460C4600250E48006861
:101200000E4900EA0105280CE070C5F30420607067
:1012100005F03F00A070C5F3423020705EB9E07861
:10122000FFF7D6FFE0706078FFF7D2FF6070A0781C
:10123000FFF7CEFFA07070BD042800403FFFFF0005
:1012400070B506460C4600250F4800680F4900EAB5
:101250000105C5F305402070C5F30620607005F058
:101260007F00A07005F48000000CE0705EB920786B
:10127000FFF7AEFF20706078FFF7AAFF6070A078DC
:10128000FFF7A6FFA07070BD002800407F7F7F00A1
:101290000021C1700170417081707047704700007B
:1012A0000CB50020019000903448006840F4803074
:1012B0003249086000BF3148006800F400300090F7
:1012C0000198401C0190009818B90198B0F5A04F02
:1012D000F1D12A48006800F4003010B101200090DC
:1012E00001E0002000900098012846D123484030BA
:1012F000006840F080502149403108602048006873
:1013000040F440401E4908601C48083000681B49F2
:10131000083108600846006840F40040086008464C
:10132000006840F4A05008601648091F0860081FB4
:10133000006840F08070091F086000BF0F48006817
:1013400000F000700028F9D040F205700E490860E6
:101350000A480830006820F0030008490831086096
:101360000846006840F00200086000BF03480830EB
:10137000006800F00C000828F8D10CBD00380240CD
:101380000070004008544007003C024070470000D5
:1013900010B51548006840F4700013490860134800
:1013A000006840F001001149086000200F49083131
:1013B00008600E4800680E4908400C4908600D4856
:1013C000091D0860081F006820F48020091F0860BC
:1013D000002006490C310860FFF762FF4FF0006003
:1013E00001498039086010BD88ED00E000380240F6
:1013F000FFFFF6FE1030002421B1028842F0010206
:10140000028004E002884FF6FE731A4002807047A3
:101410000146486A7047000000220288184B984233
:101420000ED0184B98420BD0B0F1804F08D0164B1D
:10143000984205D0154B984202D0154B984204D1E2
:101440004FF68F731A404B881A43124B984207D0BD
:10145000114B984204D04FF6FF431A400B891A43B0
:1014600002804B68C3620B880385054B984202D00B
:10147000044B984201D18B7A038601238382704703
:10148000000001400004014000040040000800404A
:10149000000C0040001000400014004010B5202156
:1014A0000A4800F060F880B1084800F015F9C4B2AD
:1014B0000748006818B1204605490968884740F286
:1014C0002551024800F01EF800BF10BD0010014079
:1014D0000000002010B540F22551094800F043F803
:1014E00060B1074800F0F8F8C4B2204600F086FF6B
:1014F00040F22551024800F005F800BF10BD000081
:101500000044004010B50022002340F66A14A142B6
:1015100000D100BF0A1201249440A3B2DC4304802E
:1015200010BD21B1828942F40052828104E0828997
:101530004DF6FF731A40828170471AB1838A0B43BC
:10154000838202E0838A8B438382704702460020B5
:10155000B1F5007F00D100BF13880B400BB1012013
:1015600000E00020704770B50246002400230025EB
:10157000002040F66A16B14200D100BFC1F3421507
:1015800001F01F03012606FA03F3012D02D196890B
:10159000334006E0022D02D1168A334001E0968ADC
:1015A00033400C12012606FA04F41688344013B1B5
:1015B0000CB1012000E0002070BDF0B5034600240E
:1015C00000260025002040F66A17B94200D100BF6E
:1015D0001846C1F3421401F01F06012707FA06F569
:1015E000012C01D10C3004E0022C01D1103000E0BC
:1015F00014301AB107682F43076002E00768AF4351
:101600000760F0BD2DE9FF4705460E460024A146C0
:1016100000BFA046B08900B100BF2C8A24F440541A
:10162000F08804432C82AC8941F20C608443B0887A
:1016300031890843718908430443AC81AC8A24F49E
:101640004074B0890443AC826846FFF7EDFC204843
:10165000854202D01F48854202D1DDF80C9001E09E
:10166000DDF80890A88900F4004040B109EBC900FA
:1016700000EB091031684900B0FBF1F707E009EB16
:10168000C90000EB091031688900B0FBF1F7642054
:10169000B7FBF0F004012009642101FB1078A88950
:1016A00000F4004040B1322000EBC800B0FBF1F084
:1016B00000F00700044308E0322000EB081064212A
:1016C000B0FBF1F000F00F0004432C81BDE8FF8770
:1016D000001001400014014001468888C0F3080052
:1016E0007047C1F30802828070474FF416510160C1
:1016F00000218180C18001810C21418100218181F3
:10170000704700BFFEE700000FB47CB50C0009ADC8
:1017100001D0611E00E00021CDE90001064B6A46C0
:101720002946089800F0DCF8002C02D0009A00212D
:1017300011707CBC5DF814FBE71F000802E008C8CC
:10174000121F08C1002AFAD170477047002001E03B
:1017500001C1121F002AFBD1704700002DE9FF5F75
:1017600082B00021DDE90430020DDDF840B0034312
:1017700018D044F61050A2F2FF32424315141198CB
:1017800001281FD0A5EB0B00401C5FEA000A4FF0B8
:1017900000064E4FDFF83891B046504615D5CAF1D5
:1017A000000413E0119801244AA3012801D16FEA33
:1017B0000B010298119AC0E90031C0E9024206B05B
:1017C000BDE8F09FCBF10000DFE704460021404A6E
:1017D000491842EB0450CDE9001012E0E00707D0B1
:1017E00032463B4640464946FEF713FE8046894650
:1017F00032463B4610461946FEF70BFE06460F469C
:101800006410002CEAD1DDE90401DDE90023BAF11E
:10181000000F06DAFEF7FDFD42464B46FEF7F9FDE6
:1018200005E0FEF768FE42464B46FEF764FE0446BE
:101830000E460022284BFEF7E5FE03D84FF0FF309E
:10184000014607E00022254B20463146FEF73AFDCF
:10185000FEF7C0FE102409E0002C0ADB0A22002358
:10186000FEF7FFFC039B30321A55641E50EA01025A
:10187000F2D1641C039AC4F111031444119A012A91
:1018800003D0012208430DD10AE0084304D0002010
:101890004FF0110B119072E7A3EB0B056D1E0DE0DD
:1018A0005B4504DD4FF0000205F1010504E003DAB9
:1018B0004FF00002A5F10105002AECD00298119921
:1018C000C0E90231C0E9004579E70000000014409A
:1018D0000000F03F300000000000F0430000E03F57
:1018E0002DE9FF4F95B09A46884606460025EEE161
:1018F000252877D100242746F94A0121039400E0E6
:10190000044316F8013F203B01FA03F01042F7D1DF
:1019100030782A2811D06FF02F033078A0F13002F0
:10192000092A16D8039A44F0020402EB820203EB60
:1019300042021044761C0390EFE758F8042B039200
:10194000002A03DA504244F40054039044F00204A5
:10195000761C30782E2816D116F8010F44F00404B6
:101960002A280DD06FF02F023078A0F13003092B18
:1019700009D807EB870302EB4303C718761CF3E78C
:1019800058F8047B761C30786C280FD006DC4C2885
:1019900017D068280DD06A2814D104E0742810D01C
:1019A0007A280FD10DE044F400140AE044F48014C6
:1019B00001E044F440147278824202D104F58014AC
:1019C000761C761C307866280BD013DC582877D02C
:1019D00009DC002875D04528F6D04628F4D04728E1
:1019E0001AD193E118E0632835D0642879D06528AE
:1019F00012D18BE1702873D008DC6728F1D06928F8
:101A00006FD06E280DD06F2806D1ACE073282CD093
:101A1000752874D0782853D05246179990476D1C7A
:101A200054E1C4F30250022809D003280DD0D8F89D
:101A3000001004280DD00D6008F1040846E1D8F824
:101A40000010EA17C1E90052F6E7D8F800100D803F
:101A5000F2E70D70F0E718F8041B8DF80010002075
:101A60008DF80100EB46012003E058F804BB4FF06D
:101A7000FF3061074FF0000102D40DE009F10101D0
:101A80008946B9420FDA8145F8DB1BF809100029B5
:101A9000F4D108E009F1010189468142FADB1BF823
:101AA00009100029F6D103985346A0EB09072146F7
:101AB0003846179A00F080FA284400EB090507E041
:101AC00044E008E10DE01BF8010B524617999047DE
:101AD000B9F10109F7D2534621463846179AF2E088
:101AE00039E00A21C4F302524FF0000B0091022AA0
:101AF00006D058F8040BC117032A09D00AE023E0E6
:101B000008F1070020F00702F2E80201904605E024
:101B100000B2C117042A01D140B2C117002906DA68
:101B20000A460021404261EB02012D2202E022051B
:101B300004D52B228DF80420012203E0E20701D016
:101B40002022F7E7914657E00A2100E010214FF0EC
:101B5000000B00910BE010214FF0000B44F0040447
:101B60000827009103E008204FF0000B0090C4F319
:101B70000252022A05D058F8040B0021032A08D08B
:101B800008E008F1070020F00702F2E802019046A1
:101B900003E080B2042A00D1C0B24FF0000922074E
:101BA0002AD53278702A07D0DDF800C08CF0100CEE
:101BB0005CEA0B0C05D00EE040228DF804200122D7
:101BC00008E050EA010306D030238DF804308DF888
:101BD000052002229146009B83F0080353EA0B0381
:101BE0000AD150EA010201D1620705D530228DF8F1
:101BF00004204FF001097F1E3278582A04D039A200
:101C00000C920CAA02920BE03BA2F9E75B46009A09
:101C1000FEF727FB0C9B9B5C029A521E02921370EC
:101C200050EA0102F2D1029804A9081A00F1200B2F
:101C3000600702D524F4803400E001275F4502DD0F
:101C4000A7EB0B0000E0002000EB0B0100900398D5
:101C50004944401A0390E00306D453462146179A9C
:101C6000039800F0A9F90544002706E001A85246B0
:101C7000C05D179990476D1C7F1C4F45F6DBE00354
:101C80000CD553462146179A039800F095F9054460
:101C900004E030205246179990476D1C0099481E69
:101CA00000900029F5DC08E002980299524600787D
:101CB000491C0291179990476D1CBBF10001ABF1D3
:101CC000010BF1DC5BE100F065F90544761C30782E
:101CD00000287FF40DAE19B02846BDE8F08F000053
:101CE00009280100303132333435363738396162F2
:101CF00063646566000000003031323334353637B6
:101D0000383941424344454600000000600700D492
:101D1000062708F1070020F00700F0E802238046BC
:101D200003F0004C5FEA0C0001D097A009E0200509
:101D300001D596A005E0E00701D095A001E0AFF243
:101D40004C001390307823F0004365280CD006DC5B
:101D5000452809D046281DD047287FD13BE066287A
:101D600018D067287AD136E00021112F01DB11202D
:101D700000E0781CCDE9000104A90CA8FFF7EEFCF7
:101D8000DDE90D010C9A4FF0000B07F101091092EB
:101D900000914EE04FF000400097CDE9011004A9FA
:101DA0000CA8FFF7DBFCDDE90D020C9B0F994FF04F
:101DB000000B91461093009211B9791C00EB0109B8
:101DC000B7EB090003D4C0F1FF3B07F10109A9EB10
:101DD0000700019042E0012F00DA01270021112FB6
:101DE00001DD112000E03846CDE9000104A90CA86E
:101DF000FFF7B4FCDDE90D010C9A00914FF0000BE8
:101E0000B946109221070FD4009A4A4503DA914649
:101E100001E0A9F10109B9F1010F05DD109AA9F15D
:101E20000101515C3029F4D0B84202DA10F1040FFC
:101E300003DA0121CDE9011010E0002803DC83441E
:101E4000A9EB000102E0411C494500DD8946A0EBF9
:101E50000B00401C01904FF000400290200705D479
:101E60000198484502DB4FF0FF30019000208DF8CB
:101E70004B0002980DF14B07B0F1004F25D0022026
:101E80000C902B200D90029800280CDA4042029012
:101E90002D200D9007E00A210298FEF7CCF9303191
:101EA000029007F8011D0C99481E0C900029F2DCE5
:101EB00002980028EFD1791E0D980870307800F054
:101EC000200040F0450007F8020D11A8C01BC01DFE
:101ED00002901398007800B1012000EB09010198ED
:101EE00001EBE071029801440398401A401E0390F0
:101EF000E00306D453462146179A039800F05CF895
:101F000005441398007818B15246179990476D1CF4
:101F1000E00323D553462146179A039800F04CF866
:101F200005441BE0BBF1000F07DB0098584504DDBA
:101F30001098179910F80B0001E0179930205246BD
:101F4000904701980BF1010B401E05F1010501902E
:101F500004D12E205246179990476D1CB9F100010B
:101F6000A9F10109DEDC05E017F8010B52461799CB
:101F700090476D1C0299481E02900029F4DC5346DC
:101F80002146179A03989EE62D0000002B000000C2
:101F9000200000002DE9F041044600251E461746AA
:101FA000880404D405E039462020B0476D1C641E27
:101FB000F9D52846BDE8F0812DE9F0410446002519
:101FC0001E469046C80301D5302700E0202788042C
:101FD00004D505E041463846B0476D1C641EF9D56E
:101FE0002846BDE8F0814A68002A06D00A68531CDA
:101FF0000B6010704868401E4860704710B588B08C
:102000003048FEF783FE06A8FEF73DFE4FF4406021
:10201000069002208DF81C0001208DF81E00002083
:102020008DF81F0003208DF81D0006A92648FEF735
:10203000BDFD04220A212448FEF700FE04220B21E4
:102040002148FEF7FBFD02A8FEF72AFF4FF480604F
:10205000ADF812000001ADF814001C4802904BF6D8
:10206000FF70ADF80E000020ADF81000ADF80C00C8
:1020700002A91448FEF792FE01211248FEF739FE2C
:10208000282000F067F900F025F810B1012008B011
:1020900010BD0FA000680190032101A800F0A2F874
:1020A00008B90120F3E7002408E0012000F052F90C
:1020B00000F010F808B10120E9E7641C642CF4D3A7
:1020C0000020E4E70058004000040240A086010020
:1020D000BE08000008B5684600F070F808B9002096
:1020E00008BD9DF80000C0F3C000F9E72DE9F041FC
:1020F00007460D4601212F48FEF7D0FD01212D484E
:10210000FEF734FE00BF4FF47A7403E00A2000F0BB
:1021100021F90A3C28492748FEF7CCFD08B9002CD4
:10212000F4D114B90020BDE8F08100BF0122702174
:102130002048FEF7ABFE00BF4FF47A7403E00A209C
:1021400000F008F90A3C1C49491C1A48FEF7B2FD88
:1021500008B9002CF3D10CB90020E4E700BF00243B
:102160001FE0681EA04203D100211248FEF796FD31
:1021700000BF4FF47A7603E00A2000F0EBF80A3E45
:102180000D493F310B48FEF795FD08B9002EF3D1FC
:102190000EB90020C7E700BF0648FEF773FE3855AA
:1021A000641CAC42DDD301210248FEF7EBFD0120A7
:1021B000B9E70000005800400100030038B50446AC
:1021C000712000900121684600F00CF808B9002049
:1021D00038BD01212046FFF789FF08B90020F7E745
:1021E0000120F5E72DE9F04106460F4601212B4875
:1021F000FEF754FD01212948FEF7B8FD00BF4FF45A
:102200007A7403E00A2000F0A5F80A3C2449234828
:10221000FEF750FD08B9002CF4D114B90020BDE838
:10222000F08100BF002270211C48FEF72FFE00BF86
:102230004FF47A7403E00A2000F08CF80A3C194944
:102240001648FEF737FD08B9002CF4D10CB9002070
:10225000E5E700BF002418E0315D1048FEF71EFEE0
:1022600000BF4FF47A7503E00A2000F073F80A3DCE
:102270000C49891E0948FEF71DFD08B9002DF3D150
:102280000DB90020CBE700BF641CBC42E4D30121A0
:102290000248FEF777FD0120C1E70000005800402A
:1022A000010003008200070010B501F06FF901F092
:1022B000E5F900F0B3F9FFF7A1FE034801F00AFACF
:1022C000024800F0E7F810BDE1360008A12400083C
:1022D00010B54FF44070FEF731FE01210846FEF7BD
:1022E00053FE01210220FEF74FFE01210820FEF7D8
:1022F0004BFE01211020FEF747FE01210846FEF7A4
:1023000053FE01211020FEF77FFE01214804FEF755
:102310005BFE01214805FEF737FE01218805FEF727
:1023200033FE01210846FEF74FFE01218805FEF726
:102330004BFE0120FEF720FE0120FEF709FF00BF43
:102340004120FEF7E5FE0028FAD04FF48070FEF73A
:1023500015FF10BD10B5044603E04FF47A7000F08D
:1023600005F8201EA4F10104F7D110BD70B5044694
:102370004FF08040FFF74CF8054600BF4FF080401B
:10238000FFF746F8401BA042F8D370BDFEB50446E7
:1023900000204FF4A073F0220146009000F01AF9DB
:1023A000134A2821084600F0EDFC00262046FDF7E0
:1023B0001BFF00EB4000C00045080E480088A84203
:1023C00007DD0C490988491B481C00EBD071C1F39B
:1023D0004F0600204FF6E0710122074BCDE90021A6
:1023E00002902246FA21304600F0F6FCFEBD0000C5
:1023F00008640108440000201863000870B5044612
:102400001D480068FF280AD21B4801680068401C6C
:10241000194A106019484454002112688154184820
:10242000006840F2FF3188420BD21548016800680D
:10243000401C134A1060134844540020114912688C
:1024400088541148006818B120460F490968884728
:102450000A2C0FD1094801F03FF8054625B10B4879
:10246000057001200A4908700020034908600349EB
:10247000087000BF70BD00000C0000205204002056
:10248000080000205200002004000020110000205D
:10249000100000200149086070470000040000207F
:1024A00010B50446204601F021F910BD10B50446D0
:1024B00000BF80210448FFF749F80028F9D02146E1
:1024C0000148FFF70EF910BD0044004010B5034667
:1024D00011B94FF0FF3010BD486870B1002006E020
:1024E0004C68245C9C4200D1F5E7441CE0B28C7B34
:1024F0008442F5DC4FF0FF30EDE7A3F12002002A23
:1025000002DB887B904202DC4FF0FF30E3E71046AD
:10251000E1E7000070B504460026094805884088B8
:1025200045430021084600F015FB00F0C9FC00BF40
:1025300002E004480480761CAE42FAD370BD00006D
:10254000440000200000086010B5044644B9002093
:102550000D498871F02008804FF4A070488007E092
:102560000120094988714FF4A0700880F02048804C
:102570002C20054908812A2048812B2088810020B1
:1025800000F0BCFA10BD00004400002070B5044605
:102590000D4616460D49488900F09CFC201200F0BB
:1025A00083FCE0B200F080FC0849888900F092FCCE
:1025B000281200F079FCE8B200F076FC03480089AC
:1025C00003490880881C068070BD0000440000207C
:1025D000FEFF07602DE9F04781460D4616461F466F
:1025E000DDF820A02C4613E02146484600F0B2FA60
:1025F00000F066FC4FF0000806E00748A0F800A0D5
:1026000008F101001FFA80F8B045F6DB601C84B2C7
:10261000BC42E9DBBDE8F0870000086000B5A1B06E
:102620000020209001211A20FEF7AEFC012108466F
:10263000FEF7BAFC02201E9001208DF87C000020DD
:102640008DF87E0002208DF87D0001208DF87F003E
:102650001EA9FE48FEF7AAFA4EF2B3701E900220A1
:102660008DF87C0000208DF87E0003208DF87D0021
:1026700001208DF87F001EA9F548FEF797FA4FF666
:1026800080701E9002208DF87C0000208DF87E0066
:1026900003208DF87D0001208DF87F001EA9ED48F4
:1026A000FEF784FA0C220021E948FEF7C7FA0C2253
:1026B0000121E748FEF7C2FA0C220421E448FEF7A4
:1026C000BDFA0C220521E248FEF7B8FA0C220721D8
:1026D000DF48FEF7B3FA0C220821DD48FEF7AEFA18
:1026E0000C220921DA48FEF7A9FA0C220A21D8485F
:1026F000FEF7A4FA0C220D21D548FEF79FFA0C2212
:102700000E21D348FEF79AFA0C220F21D048FEF78B
:1027100095FA0C220721CF48FEF790FA0C220821E7
:10272000CC48FEF78BFA0C220921CA48FEF786FA3C
:102730000C220A21C748FEF781FA0C220B21C5485A
:10274000FEF77CFA0C221146C248FEF777FA0C22FB
:102750000D21C048FEF772FA0C220E21BD48FEF78B
:102760006DFA0C220F21BB48FEF768FA0F20089083
:10277000002009903C200A9000200B900C900D90B6
:102780000E90022001900020029003200390002070
:1027900004900590069007900F90109011901020D3
:1027A00012900020139015901490169017904FF4EB
:1027B00080501890002019904FF480401A9000200B
:1027C0001B9008A81C9001A81D900FA8FEF75CF9AB
:1027D00001210020FEF73EF93220FFF7BBFD012169
:1027E000002000F083FB3220FFF7B4FD00209A495F
:1027F0008880D32000F06EFB00F076F900F074F9C9
:1028000000F072F994498880084680884FF6FF717D
:1028100001EA00209049888000F066F98E49898895
:1028200008438D4988800846808849F241318842B2
:102830001DD18A48006820F00F004FF02041C1F8F8
:102840001C010846D0F81C0120F47060C1F81C017E
:102850000846D0F81C0140F00300C1F81C010846EE
:10286000D0F81C0140F40070C1F81C0103E04FF6E1
:10287000FF70794988807848808849F241318842E0
:102880007ED1CF2000F026FB002000F00DFB209829
:10289000401C2090C12000F007FB302000F004FB1A
:1028A000ED2000F017FB642000F0FEFA032000F09A
:1028B000FBFA122000F0F8FA812000F0F5FAE82087
:1028C00000F008FB852000F0EFFA102000F0ECFA91
:1028D0007A2000F0E9FACB2000F0FCFA392000F071
:1028E000E3FA2C2000F0E0FA002000F0DDFA3420BA
:1028F00000F0DAFA022000F0D7FAF72000F0EAFA46
:10290000202000F0D1FAEA2000F0E4FA002000F0E4
:10291000CBFA002000F0C8FAC02000F0DBFA1B2040
:1029200000F0C2FAC12000F0D5FA012000F0BCFA94
:10293000C52000F0CFFA302000F0B6FA302000F0C9
:10294000B3FAC72000F0C6FAB72000F0ADFA36207F
:1029500000F0C0FA482000F0A7FA3A2000F0BAFAD6
:10296000552000F0A1FAB12000F0B4FA002000F0E8
:102970009BFA1A2000F098FAB62000F0ABFA00E0BB
:10298000A3E00A2000F090FAA22000F08DFAF220D5
:1029900000F0A0FA002000F087FA262000F09AFA52
:1029A000012000F081FAE02000F094FA0F2000F0FE
:1029B0007BFA2A2000F078FA282000F075FA082027
:1029C00000F072FA0E2000F06FFA082000F06CFAA6
:1029D000542000F069FAA92000F066FA432000F0C4
:1029E00063FA0A2000F060FA0F2000F05DFA002080
:1029F00000F05AFA002000F057FA002000F054FAD4
:102A0000002000F051FAE12000F064FA002000F00C
:102A10004BFA152000F048FA172000F045FA07207D
:102A200000F042FA112000F03FFA062000F03CFAD4
:102A30002B2000F039FA562000F036FA3C2000F046
:102A400033FA052000F030FA102009E000040240BB
:102A5000000C024000100240440000201C0100A0B5
:102A600000F022FA0F2000F01FFA3F2000F01CFABD
:102A70003F2000F019FA0F2000F016FA2B2000F08A
:102A800029FA002000F010FA002000F00DFA0120D1
:102A900000F00AFA3F2000F007FA2A2000F01AFAA4
:102AA000002000F001FA002000F0FEF9002000F004
:102AB000FBF9EF2000F0F8F9112000F00BFA782074
:102AC000FFF748FC292000F005FA0020FFF73CFD45
:102AD00002210448FEF7D5F84FF6FF70FFF71AFD04
:102AE00021B000BD0004024008B5034800880090F2
:102AF000BDF8000008BD00000000086070B5054684
:102B000000240026082D1CD2DFE805F00406090C7D
:102B10000F12151800BF14E044F0800411E044F0D7
:102B200040040EE044F0C0040BE044F0200408E050
:102B300044F0600405E044F0A00402E044F0E00446
:102B400000BF00BF44F0080436262146304600F09E
:102B5000CDF970BD70B504460D460A49488900F0AC
:102B6000B9F9201200F0A0F9E0B200F09DF9054992
:102B7000888900F0AFF9281200F096F9E8B200F069
:102B800093F970BD440000202DE9FF4F83B00E463D
:102B90001D460DB1286810B907B0BDE8F08F294671
:102BA0000598FFF793FC0746002F00DAF4E7AC899D
:102BB000B0462046E31704EB5373DB1021464FEA7F
:102BC000E47C04EB5C7C4FEAEC0CA4EBCC0CBCF199
:102BD000000F02D04FF0010C01E04FF0000C6344F5
:102BE000224604EBD27C4FEA6C0C03FB0CF31FFA79
:102BF00083F9286807FB090A4FF0000B32E01AF846
:102C00000B0002900020019024E0029800F0800068
:102C100028B13146119A0398FFF7B8FC06E01098E6
:102C200020B93146129A0398FFF7B0FC029840068B
:102C3000000E0290701C86B2A6EB0800A04205D1DF
:102C400046460398401C80B2039006E00198401C61
:102C5000C0B2019001980828D7DB00BF0BF101003A
:102C60001FFA80FBCB45CADB00BF95E72DE9F04F8B
:102C700087B081468A4693461D4625B1A86810B1A3
:102C8000BBF1000F02D107B0BDE8F08FAC68CDF802
:102C90001890CDF814A0AE89F01DC11700EB51714A
:102CA000CF1007FB06F080B2049061E02068007846
:102CB0009BF8001088425AD1206840789BF8011098
:102CC000884254D160680390002002904BE04FF09E
:102CD000000837E0029800FB07810398405C0190F0
:102CE0000020009026E0009800EBC800B04200DB16
:102CF00023E08021009841FA00F00199084028B1B2
:102D000051464846119AFFF741FC06E0109820B959
:102D100051464846129AFFF739FC09F101001FFAA3
:102D200080F917480088484500DCACE70098401C53
:102D3000C0B2009000980828D5DB00BF08F1010060
:102D40001FFA80F8B845C5DB0AF101001FFA80FAC6
:102D5000DDF818900A484088504500DC93E7029857
:102D6000401C80B202900298B042B0DB8BE708347E
:102D7000206810B16068002898D100BF83E7000088
:102D8000440000202DE9F0478046894614460CB1E6
:102D9000606808B9BDE8F0876568002616E000277E
:102DA0000FE02878697840EA012A09EB060291B21F
:102DB00008EB070290B25246FFF7E8FBAD1C781C07
:102DC00087B22088B842ECDC701C86B26088B042C2
:102DD000E5DC00BFDEE700002DE9FF5F074689461E
:102DE00014469A46BAF1000F00D00CB9BDE8FF9F17
:102DF0000397BAF80C6000254EE0605D00F080009B
:102E000008B1022000E001208046B8F1020F03D192
:102E1000681C205C00B942E0B8F1010F04D13046D3
:102E200000EBD071491000E031461FFA81FB07EB3F
:102E30000B001C490988884204DD039F09EB06004A
:102E40001FFA80F909EB060016494988884200DD1F
:102E500025E0B8F1010F0CD1DDE90E121098CDE993
:102E600000120290625D534649463846FFF78CFED9
:102E70000BE0DDE90E121098CDE900120290621904
:102E8000534649463846FFF7F1FE07EB0B0087B281
:102E900005EB080085B200BF605D0028ADD100BF22
:102EA00000BFA3E74400002001B5BDF8000000907A
:102EB000BDF800000149088008BD0000000008605E
:102EC0000248008902490880704700004400002041
:102ED000FEFF076001B5BDF800000090BDF80000DE
:102EE0000149088008BD0000FEFF076003B5BDF87A
:102EF000000003490880BDF80400891C08800CBD4F
:102F0000FEFF0760FFF7E4F9FFF7CEF900F024FCBD
:102F10004FF47A70FFF71EFA00F06CFC4FF47A70F1
:102F2000FFF718FA00F014F84FF47A70FFF712FA6E
:102F300002A0FFF72BFA00BFFEE700007769666981
:102F400020696E6974206661696C65642100000007
:102F50003EB500204FF4A073F02201460090FFF729
:102F600039FB00BF4FF6FF709A23E0220F2100903B
:102F70000846FFF72FFB274A14211720FFF702FF0F
:102F800025A000F081FA284800F0C2FA264800F097
:102F90004FFA254800F058F800BF00BF4FF4826098
:102FA0004FF498737222A52100900F20FFF712FBB7
:102FB0004FF6FF70002101221C4BCDE90021029049
:102FC0001BA2AA211920FFF707FF9FED1C0A00F0A2
:102FD000F7F89FED1A0A00F09FF800BF00BF4B22E0
:102FE0008721FD20FEF7E8F804464FF49873E022AD
:102FF000A52100907D20FFF7EDFA11A000F03AF92D
:103000009FED0E0A00F052F94FF0FF3000F0ACF9DE
:1030100000BF3EBD80F403085265646D69204B36E5
:10302000302050726F000000380000204872000805
:10303000CAD2C4DABBB7BEB30000000000B4344645
:10304000D5BFBDAD0000000010B588B004464FF6F6
:10305000FF708D233722792100902320FFF7BAFAE1
:10306000E079012801D11DA21EE0E079022801D1FA
:103070001BA219E0E079032801D11AA214E0E0793B
:10308000042801D118A20FE0E079052801D117A288
:103090000AE0E079062801D115A205E0E0790728C9
:1030A00001D114A200E014A2E078A178CDE90102D8
:1030B0000091238811A2122103A8FEF725FB4FF6E9
:1030C000FF7000210122134BCDE90021029003AAD9
:1030D00079212320FFF780FE08B010BDD2BB00008D
:1030E000B6FE0000C8FD0000CBC40000CEE5000025
:1030F000C1F90000C8D50000580000002530347523
:103100002F253032752F2530327520D0C7C6DA25ED
:10311000730000004872000800B52DED048B85B0E7
:10312000B0EE408A4FF4826040F22D136E22EF2100
:1031300000901C20FFF74EFAB5EEC08AF1EE10FAAF
:1031400013DD9FED190AB4EEC08AF1EE10FA0CD827
:1031500018EE100AFDF75CF841EC190B8DED009BA1
:1031600012A2032104A8FEF7CFFA4FF482600021D7
:103170000122104BCDE90021029004AAEF211C206E
:10318000FFF72AFE4FF6FF70002101220A4BCDE91E
:103190000021029009A24FF483715B20FFF71CFE0F
:1031A00005B0BDEC048B00BDE1FAC74225322E30DC
:1031B000660000009C880008AC550008250000004F
:1031C00000B52DED048B85B0B0EE408A4FF48260DF
:1031D000F9236422C32100901E20FFF7FBF91E484B
:1031E00000680490BAEE040AB4EEC08AF1EE10FA58
:1031F00013DD9FED1A0AB4EEC08AF1EE10FA0CD876
:1032000018EE100AFDF704F841EC190B8DED009B48
:1032100013A2032104A8FEF777FA4FF4826000217D
:103220000122114BCDE90021029004AAC3211E20E6
:10323000FFF7D2FD4FF6FF70002101220B4BCDE9C5
:10324000002102900AA2D5215620FFF7C5FD05B046
:10325000BDEC048B00BD0000E04703080000C8423D
:1032600025322E3066000000F47B0008AC550008C3
:10327000A1E6000010B586B00446234609A2092144
:1032800003A8FEF741FA4FF6FF7000210122064B1A
:10329000CDE90021029003AAAA217F20FFF79CFD1F
:1032A00006B010BD257300004872000810B52DED62
:1032B000048B84B0B0EE408A4B228721FD20FDF7BD
:1032C0007BFF0446F023BD22BA2100908720FFF740
:1032D00081F91E4800680390BAEE040AB4EEC08A71
:1032E000F1EE10FA13DD9FED1A0AB4EEC08AF1EE8A
:1032F00010FA0CD818EE100AFCF78AFF41EC190BF3
:103300008DED009B13A2032103A8FEF7FDF94FF6F4
:10331000FF7000210122114BCDE90021029003AA88
:10332000BA218720FFF758FD4FF6FF7000210122D8
:103330000B4BCDE9002102900AA2CA21C020FFF761
:103340004BFD04B0BDEC048B10BD0000E447030846
:103350000000C84225322E3066000000F47B0008D1
:10336000AC550008A1E6000070B50446274AEF21DD
:103370008520FFF707FD00251CB1022C01D0262C6B
:1033800001D1234D3CE0012C01D0032C01D1214D72
:1033900036E0042C01D0092C01D11F4D30E0052C62
:1033A00005D0062C03D0072C01D0082C01D11B4DD1
:1033B00026E00A2C0DD00D2C0BD00E2C09D00F2C92
:1033C00007D0102C05D0112C03D0122C01D0132CB7
:1033D00001D1134D14E00B2C01D00C2C01D1114D57
:1033E0000EE0142C09D0152C07D0162C05D0172C64
:1033F00003D0182C01D0192C01D10B4D00E00B4D3E
:103400002A46F021A020FFF7BDFC70BDF8EF0308AD
:1034100090E70308508C0308500B0408B05E0308C3
:10342000F0B9030880750308C0D0030820A303087F
:1034300010B586B004464FF6FF707623D7222A21B6
:1034400000901920FFF7C6F86079009023790AA24E
:10345000062104A8FEF758F94FF6FF70002101225B
:10346000084BCDE90021029004AA2A211920FFF778
:10347000B3FC06B010BD0000253032753A2530325D
:1034800075000000F89B000810B588B004464FF6A0
:10349000FF702B23C822172100903220FFF79AF8E3
:1034A00023460AA20F2104A8FEF72EF94FF6FF705B
:1034B0004FF4FC610122074BCDE90021029004AAE0
:1034C00017213220FFF788FC08B010BD2531347376
:1034D000000000004872000870B50546002411E0A5
:1034E0000A4800EBC400406858B1084800EBC4002B
:1034F00041682846FCF766FE18B1044810F834000D
:1035000070BD641C042CEBD30020F9E7B838000828
:103510001FB5044600BF02A800F00FF8684600F08F
:103520000CF80822694602A8FCF765FE0028F2D1D3
:1035300002982060039860601FBD1CB5044601A876
:10354000FDF751FE6846FDF7A3FE01A90020FDF737
:1035500051FE69460020FDF773FE9DF8070000F557
:10356000FA6020809DF80500A0709DF80600E070CC
:103570009DF80400E0719DF8000020719DF80100A5
:1035800060719DF80200A0711CBD00000EB54FF0E7
:10359000FF3001900B4800680B49B0FBF1F0401E72
:1035A00080B2ADF800000020ADF80800ADF80200D0
:1035B00069464FF08040FDF72FFF01218807FDF796
:1035C0001BFF0EBD1400002040420F0000B58FB05D
:1035D0006846FDF72DFA1648FDF7F8F800BF1448C5
:1035E000FDF7A0F90028FAD14FF0006000901148D3
:1035F000019040200390002005904FF480600690D9
:1036000000200790089009900A900B900122102149
:103610000748FDF7C3F969460548FDF7DDF90122C2
:1036200080210448001FFDF788FF0FB000BD000097
:10363000B8640240041001401CB56846FDF723FB46
:103640004FF4C060009002208DF8040001208DF836
:10365000070003208DF8050069460748FDF7A6FA24
:10366000072209210448FDF7E9FA07220A21024846
:10367000FDF7E4FA1CBD00000000024010B5FFF7A2
:10368000DBFFFFF7A3FF00F041F800F001F810BDE9
:1036900008B50020009025208DF8000005208DF849
:1036A000010000208DF8020001208DF8030068461B
:1036B000FDF708FC05212520FDF74AFC46208DF882
:1036C00000006846FDF7FEFB05214620FDF740FCA3
:1036D00008BD00000149086070470000000000209C
:1036E00010B504462046FEF7E1FE10BD10B50446B5
:1036F00000BF80210448FDF729FF0028F9D02146AA
:103700000148FDF7EEFF10BD001001401FB56846EF
:10371000FDF7EBFF4FF4E13000900020ADF804001E
:10372000ADF80600ADF808000C20ADF80A00002046
:10373000ADF80C0069460748FDF764FF012240F22E
:1037400025510448FDF739FF01210248FDF7E9FE44
:103750001FBD0000001001400EB540F2FF704FF495
:10376000A073F022002100900846FEF733FF164AAE
:103770001E210846FFF706FB00204FF4FC610122E2
:10378000124BCDE90021029011A2D8213420FFF77D
:1037900023FB00204FF6E07101220C4BCDE9002104
:1037A00002900EA2F4213420FFF716FB00201F2107
:1037B0000122064BCDE9002102900BA24FF4887143
:1037C0002B20FFF709FB0EBD30610208AC55000845
:1037D00045737472656C6C6100000000C1ACBDD3B0
:1037E000D6D02E2E2E0000004C6F6164696E672EBD
:1037F0002E2E00003EB5002523480068FCF7F4FC9F
:10380000040122480088A04207DD20490988091BDD
:10381000481C00EBD071C1F34F0500204FF4A0739A
:10382000F02201460090FEF7D5FE194A19211E200C
:10383000FFF7A8FA00204FF4FC610122154BCDE9F7
:103840000021029014A2C8215820FFF7C5FA0020D9
:103850004FF6FF7101220F4BCDE9002102900A487B
:10386000F02102682846FFF7B7FA00204FF6E07112
:103870000122084BCDE90021029009A24FF48C717E
:103880004820FFF7A9FA3EBD400000204400002078
:10389000D8470308AC550008576946690000000086
:1038A000EFBFBDEFBFBDEFBFBDEFBFBDEFBFBDEF12
:1038B000BFBD2E2E2E00000001000000640B040886
:1038C000020000006C0B040803000000580B040801
:1038D00004000000740B0408980B04087C0B040817
:1038E000AC0B0408B00B0408C40B0408A00B0408BC
:1038F000940B04088C0B0408A80B0408B80B0408EC
:10390000C00B0408800B04089C0B0408880B0408F7
:10391000840B0408BC0B0408900B0408B40B0408C7
:10392000A40B0408000000000000000000000000DC
:1039300000000000000000000181C0000181C00003
:103940000183FFF00183FFF0018700000FF7000003
:103950000FEFFFE00381FFE003C198E003E39CE089
:1039600003E38CE007B7FFF007BFFFF00F8390E0A1
:103970000D8338E01D831CE00987FFE00187FFF01D
:103980000183FFE0018001C001800FC0018007803A
:103990000000000000000000000000000000000027
:1039A0000000000000000000000000000000000017
:1039B00000000000000000000000000003FFFFC046
:1039C00007FFFFE003FFFFC000038000000380004B
:1039D0000003800000038000000380000FFFFFF061
:1039E00007FFFFF00003C0000007E0000007E00051
:1039F000000F7000001E7800003C3C0000F81F0023
:103A000001F00FC007E007E00F8001F00600006042
:103A100000000000000000000000000000000000A6
:103A20000000000000000000000000000000000096
:103A300000000000000000000060000000F0000036
:103A400000FFFFE001FFFFE001C000000380000075
:103A500007BFFF800F3FFF800E00000001FFFE0048
:103A600001FFFF0000000700000007000000070042
:103A7000000007000000070000000700000007101A
:103A8000000003B8000003F0000001F0000000F0A7
:103A90000000000000000000000000000000000026
:103AA0000000000000000000000000000000000016
:103AB000000000000000000000000180000001C0C4
:103AC00007F801C00FFC01C00E1DFFF00E1DFFF82E
:103AD0000E1DFFF00E1C01C00FFC01C00FFCC1C089
:103AE0000FFCE1C00E1CF1C00E1C79C00E1C39C0C9
:103AF0000E1C11C00FFC01C00FFC01C00FF801C06B
:103B0000060001C004003FC000003F8000001E000E
:103B100000000000000000000000000000000000A5
:103B20000000000000000000000000000000000095
:103B3000000000000000000001800C0003800E0067
:103B400003F80E0007FC0E000FF8FFE00E01FFF077
:103B50000C03FFF003FB8E7003FB8E7000C38E70AE
:103B600000C38E7007FB8E700FFFFFF007FBFFF0A6
:103B700000C38E7000C18E2000C00E0000DC0E005D
:103B800000FC0E0001F80E0001E00E0000000C0029
:103B90000000000000000000000000000000000025
:103BA0000000000000000000000000000000000015
:103BB00000000000000000000200C0000700E0005C
:103BC000038FFFE001DFFFE000C1800000038800F9
:103BD00000031800000618000F8FFFC00F87FFE0DA
:103BE000018018000180180001801800019FFFF07B
:103BF000019FFFF0018018000180180003C0180029
:103C000007E018000E3C00700C1FFFF00001FFE001
:103C100000000000000000000000000000000000A4
:103C20000000000000000000000000000000000094
:103C3000000000000000000001803000018038001A
:103C40000187FFE00187FFE0018081000FE1C38071
:103C50000180C30001808600018FFFF00187FFE033
:103C60000180300001E060000FCFFFF00F8FFFF008
:103C700001818180018383800183C7000180FE0070
:103C800001801F000180FFC0078FE1E0070E006088
:103C90000000000000000000000000000000000024
:103CA0000000000000000000000000000000000014
:103CB0000000000000000000000180000001800002
:103CC000000180000001800007FFFFE007FFFFE028
:103CD000060180E0060180E0060180E0060180E048
:103CE000060180E0060180E007FFFFE007FFFFE03C
:103CF000060180E002018040000180000001800098
:103D000000018000000180000001800000018000AF
:103D100000000000000000000000000000000000A3
:103D20000000000000000000000000000000000093
:103D30000000000000000000000000000000000083
:103D400070780000D9FE0000CBCF00007B87000018
:103D50000700000007000000060000000600000049
:103D6000060000000600000006000000060000003B
:103D700006000000070000000700000003860000A6
:103D800003FF000000FE0000000000000000000033
:103D90000000000000000000000000000000000023
:103DA0000000000000000000000000000000000013
:103DB0000000000000000000000000000000000003
:103DC00000000000000000000000000000000000F3
:103DD00000000000000000000000000000000000E3
:103DE00000000000000000000000000000000000D3
:103DF00000000000000000000000000000F8038048
:103E000001FFE38001FFE38000F803800000000071
:103E100000000000000000000000000000000000A2
:103E20000000000000000000000000000000000092
:103E30000000000001FC000001FC000000FC00008C
:103E4000000000000000000000FC000001FC000079
:103E500001FC000000000000000000000000000065
:103E60000000000000000000000C3800000C3800CA
:103E7000000C3F80003FFF8001FFFF0001FC380085
:103E8000000C3800000C3800000C3F80007FFF80E1
:103E900001FFFE0001FC3800000C3800000C380067
:103EA000000000000000000000000000007C0E0088
:103EB00000FE0F0001E70380000300000003800004
:103EC00007F9BFF007FDBFF0000180000101C0004D
:103ED00000E0E38000F0FF0000707E0000000800BA
:103EE0000000000000000000007C030000FE0F0046
:103EF00001C71E0001833C0001C3700000EF2000D9
:103F000000FE1E0000387F0000027780000EE18076
:103F1000001EE180007C638000F07F8000E03F00B5
:103F200000000000000000000000000000307F00E2
:103F300000FCFF0000FE438001C7018001838180F7
:103F40000181E18001C0F18000E0738000F0270072
:103F500000200F000000FE000000F98000006180DA
:103F60000000000000000000000000000000000051
:103F70000000000000000000000000000000000041
:103F800001FC000001FC0000000000000000000037
:103F90000000000000000000000000000000000021
:103FA0000000000000000000000000000000000011
:103FB00000000000000FFC00007FFF0000FC1F80DD
:103FC00001E003E003C000F0070000700E000038BD
:103FD00006000018000000000000000000000000C3
:103FE00000000000000000000000000000000000D1
:103FF000000000080E00001807000038078000705D
:1040000003C001E001F007C000FE3F80003FFE005A
:10401000000FF80000000000000000000000000099
:104020000000000000000000000000000006180072
:10403000000738000003B0000001F0000001E000BC
:10404000001FFE00001FFE000001E0000001F00064
:104050000003B00000073800000618000000000050
:104060000000000000000000000000000000C00090
:104070000000C0000000C0000000C0000000C00040
:10408000001FFE00001FFE000000C0000000C00076
:104090000000C0000000C0000000C00000000000E0
:1040A0000000000000000000000000000000000010
:1040B00000000004000000040000000C0000038C5D
:1040C00000000798000007F8000003E0000000006F
:1040D00000000000000000000000000000000000E0
:1040E0000000000000000000000000000000C00010
:1040F0000000C0000000C0000000C0000000C000C0
:104100000000C0000000C0000000C0000000C000AF
:104110000000C0000000C0000000C000000000005F
:10412000000000000000000000000000000000008F
:1041300000000000000000000000000000000380FC
:1041400000000780000007800000038000000000DE
:10415000000000000000000000000000000000005F
:10416000000000000000000000000000000000103F
:10417000000000F0000003F000000FC000007E000F
:104180000001F800000FC000003F000001FC00002B
:1041900007E00000078000000400000000000000AD
:1041A000000000000000000000000000001FF800F8
:1041B000007FFE0000F87F0000E0738001C0E18016
:1041C0000181C1800183818001C7818000E7038074
:1041D00000FE0F00007FFE00001FF800000000003E
:1041E000000000000000000000000000001001803E
:1041F000003001800070018000E0018000C001807B
:1042000001C0018001FFFF8000FFFF8000000180EE
:10421000000001800000018000000180000001809A
:10422000000000000000000000000000000003800B
:1042300000C0078000C0078001C00F8001801D8082
:10424000018039800180718001C0E18000C1C1809E
:1042500000FF8180007F0180003C018000000000A1
:10426000000000000000000000000000004003000B
:1042700000C0038001C1818001C1818001818180F2
:104280000181818001C3818000C3818000E6C380F9
:1042900000FEFF00003CFF0000003C0000000000AA
:1042A00000000000000000000000000000003800D6
:1042B0000000F8000001F80000079800000F180047
:1042C000003C18000078180000F0180001FFFF8083
:1042D00001FFFF8000001800000018000000180017
:1042E00000000000000000000000000000000300CB
:1042F00000FF038000FF818001C3818001C38180B2
:1043000001C3818001C1818001C1818001C1C3805D
:1043100001C1FF0001C0FF0000403C0000000000A0
:104320000000000000000000000000000001FE008E
:104330000007FF00001EC700003983800071018064
:1043400000E3018000C30180018301800183838039
:104350000001C7000001FF000000FE000000000097
:1043600000000000000000000000000000C000008D
:1043700001C0000001C0000001C0018001C0078031
:1043800001C01F0001C0FC0001C3F00001CFC0004C
:1043900001FE000000F8000000E000000000000046
:1043A00000000000000000000000000000383E0097
:1043B000007E7F0000FEE70000C3C38001C3818050
:1043C000018181800181818001C3818000C3C3801C
:1043D00000FEE700007E7F0000383E000000000085
:1043E000000000000000000000000000003F00008E
:1043F000007F800000E1C00000C0C08001C0C1801B
:104400000180C3800180C30001C0CE0000C09C00B9
:1044100000E1F800007FF000003FC0000000000055
:10442000000000000000000000000000000000008C
:1044300000000000000000000000000000070380F2
:10444000000F0780000F07800007038000000000B6
:10445000000000000000000000000000000000005C
:10446000000000000000000000000000000000004C
:1044700000000004000000040000000C0007038C92
:10448000000F0798000F07F8000703E00000000086
:10449000000000000000000000000000000000001C
:1044A0000000000000000000000000000000C0004C
:1044B0000001E0000001E0000003F0000003B00094
:1044C000000338000007380000061C00000E1C0026
:1044D000000C0C00001C0E0000080400000000008E
:1044E00000000000000000000000000000061800AE
:1044F0000006180000061800000618000006180044
:104500000006180000061800000618000006180033
:104510000006180000061800000618000000000041
:10452000000000000000000000000000000804007F
:10453000001C0E00000C0C00000E1C0000061C00ED
:1045400000073800000338000003B0000003F0004B
:104550000001E0000001E0000000C00000000000D9
:10456000000000000000000000000000000000004B
:104570000070000000F0000000E0000001C00380B7
:104580000180E3800181E38001C3C38001C3000097
:1045900000FF000000FE00000038000000000000E6
:1045A000000000000010000000303E000070FF809E
:1045B0000061FF800063818000E3018000E3000070
:1045C00000E3FC000061FF0000607F80007003805A
:1045D00000380180003F0180000FF1800003F1806E
:1045E00000000000000000000000008000000F80BC
:1045F00000007F800003FC00003FD00000FE1000A0
:1046000001F0100001F0100000FE1000003FD0008B
:104610000003FC0000007F8000000F80000000808D
:10462000000000000000000000000000007FFE000D
:1046300000FFFF8001FFFF8001C1818001C18180F7
:1046400001C1818001C1818000C1818000C3C3801C
:1046500000FEE700007E7F0000183E000000000022
:10466000000000000000000000000000001FF80033
:10467000003FFE0000781F0000E0070000C003803C
:1046800001C00180018001800180018001C00180A2
:1046900001C0018000E0038000E003000020010071
:1046A000000000000000000000000000007FFF008C
:1046B00000FFFF8001FFFF8001C0018001C0018079
:1046C00001C0018000C0018000C0038000E007003D
:1046D00000781F00003FFE00000FF80000000000FF
:1046E00000000000000000000000000000000000CA
:1046F00000FFFF8001FFFF8001C1818001C1818037
:1047000001C1818001C1818001C1818001C181809D
:1047100001C1818001C18180008001800000000012
:104720000000000000000000000000000000000089
:1047300000FFFF8001FFFF8001C1800001C18000F8
:1047400001C1800001C1800001C1800001C1800061
:1047500001C1800001C1800000C000000000000015
:1047600000000000000000000001E000003FFC002D
:10477000007FFE0000F0070000C0038001C0018040
:10478000018081800180C18001C0C18000C0C380E0
:1047900000F0FF000070FF000010FC0000000000AF
:1047A00000000000000000000000000000FFFF000B
:1047B00001FFFF8001FFFF800001800000018000F9
:1047C00000018000000180000001800000018000E5
:1047D00001FFFF8001FFFF8000FFFF0000000000DD
:1047E00000000000000000000000000000000000C9
:1047F00000C0018001C0018001C0018001C00180B2
:1048000001FFFF8001FFFF8001C0018001C0018026
:1048100001C0018000C00180000000000000000015
:10482000000000000000000000000C0000000F006D
:1048300000000F000000038001C0018001C0018062
:1048400001C0018001C0018001C0018001C003805E
:1048500000FFFF0000FFFE0000000000000000005D
:1048600000000000000000000000000000FFFF80CA
:1048700001FFFF8001FFFF800003C0000007C000B0
:10488000000FE000001CF00000783C0000F01E006B
:1048900001C007800180038000000180000000004B
:1048A0000000000000000000000000000000000008
:1048B00000FFFF0001FFFF8001FFFF80000001807B
:1048C00000000180000001800000018000000180E4
:1048D00000000180000001800000018000000180D4
:1048E00000000000000000000000000001FFFF8049
:1048F00001FFFF8001E0000000FC0000001F8000BD
:104900000003E0000003E000001F800000FC000046
:1049100001E0000001FFFF8001FFFF8000000000B8
:1049200000000000000000000000000000FFFF8009
:1049300001FFFF8001FFFF0000F80000003E0000C3
:10494000000FC0000001F00000007E0000001F808A
:1049500000FFFF8001FFFF8001FFFF8000000000DB
:10496000000000000000000000000000001FF80030
:10497000007FFE0000F80F0000E0038001C001800E
:10498000018001800180018001C0018000E003807E
:1049900000F80F00007FFE00001FF800000000007C
:1049A000000000000000000000000000007FFF8009
:1049B00000FFFF8001FFFF8001C1800001C1800076
:1049C00001C1800001C1800000C1800000C18000E1
:1049D00000E3800000FF0000007F0000001C0000DA
:1049E000000000000000000000000000001FF800B0
:1049F000007FFE0000F80F0000E0038001C001808E
:104A0000018001980180019801C0019800E003989D
:104A100000F80F1C007FFE0C001FF80C00000000C7
:104A2000000000000000000000000000007FFF8088
:104A300000FFFF8001FFFF8001C1800001C18000F5
:104A400001C1800001C1C00000C1F00000C1FC0034
:104A500000E39F0000FF0780007F0180001C000032
:104A600000000000000000000000000000180E0020
:104A7000007E0F0000FF070000C3038001C3818098
:104A8000018181800181818001C1818000C1C38059
:104A900000F0E70000707F0000003E000000000012
:104AA00000000000000000000080000001C00000C5
:104AB00001C0000001C0000001C0000001C00000F2
:104AC00001FFFF8001FFFF8001C0000001C0000066
:104AD00001C0000001C0000001C000000080000013
:104AE00000000000000000000000000000FFF800CF
:104AF00001FFFE0000FFFF000000038000000180B6
:104B0000000001800000018000000180000003809F
:104B100000FFFF0001FFFE0000FFF80000000000A2
:104B200000000000000000000000000001E00000A4
:104B300001FE0000007FC0000007F80000007F00B9
:104B400000000F8000000F8000007F800007F80049
:104B5000007FC00001FE000001E000000000000036
:104B6000000000000000000001FC000001FFFE004A
:104B7000003FFF800000038000003F800007FE0030
:104B8000000F8000000F80000007FE0000003F8043
:104B900000000380003FFF8001FFFE0001FC0000D9
:104BA0000000000000000000000000000180018003
:104BB00001E0078000F00F00003C3C00001FF800FF
:104BC0000007E0000007E000001FF800003C3C0088
:104BD00000F00F0001E0078001800180000000006C
:104BE00000000000000000000080000001C0000084
:104BF00000F00000007C0000001F00000007C00063
:104C00000001FF800001FF800007C000001F0000BE
:104C1000007C000000F0000001C0000000800000E7
:104C20000000000000000000000000000080030001
:104C300001C0078001C01F8001C03D8001C0F1801C
:104C400001C1E18001C7818001CF018001FC0180A9
:104C500001F8018000E001800000018000000000F8
:104C60000000000000000000000000000000000044
:104C70000000000007FFFFF00FFFFFF80E000038F4
:104C80000C0000180C0000180C0000180C00001894
:104C90000C000018000000000000000000000000F0
:104CA0000000000000000000000000000400000000
:104CB0000780000007E0000001FC0000003F00004A
:104CC000000FC0000001F80000007E0000000FC0CF
:104CD000000003F0000000F00000001000000000E1
:104CE00000000000000000000000000000000000C4
:104CF000000000000C0000180C0000180C00001848
:104D00000C0000180C0000180E0000380FFFFFF810
:104D100007FFFFF00000000000000000000000009E
:104D20000000000000000000000000000000000083
:104D30000001800000078000001F0000003C000010
:104D40000070000000700000003C0000001F000028
:104D5000000780000001800000000000000000004B
:104D6000000000000000000000000000000000182B
:104D700000000018000000180000001800000018D3
:104D800000000018000000180000001800000018C3
:104D900000000018000000180000001800000000CB
:104DA0000000000000000000000000000000000003
:104DB0000000000002000000070000000380000067
:104DC00001C0000000E00000007000000070000062
:104DD00000300000000000000000000000000000A3
:104DE0000000000000000000000000000000FE00C5
:104DF0000003FF000007C780000E0180000C018047
:104E0000000C0180000C0180000C070000073E0030
:104E1000000FFF00000FFF80000001800000000075
:104E200000000000000000000000000000FFFF8004
:104E300001FFFF8001FFFF8000060300000C0180DE
:104E4000000C0180000C0180000C0180000E03802A
:104E5000000FFF800007FF000000FC0000000000C2
:104E60000000000000000000000000000000F8004A
:104E70000003FE000007FF00000E0380000C03800B
:104E8000000C0180000C0180000C0180000C0180EE
:104E9000000C0380000E030000060100000000006B
:104EA0000000000000000000000000000000FC0006
:104EB0000007FF00000FFF80000E0380000C018040
:104EC000000C0180000C0180000C01800006030032
:104ED00001FFFF8001FFFF8000FFFF800000000056
:104EE0000000000000000000000000000001FC00C5
:104EF0000007FE000007EF00000E6380000C6180D9
:104F0000000C6180000C6180000C6180000E6180EB
:104F1000000FE3800007E3000000E0000000000055
:104F2000000000000000000000030000000300007B
:104F3000000300000003000000030000007FFF806A
:104F400000FFFF8000C3000000C3000001C3000099
:104F500001C3000001C3000000C300000000000006
:104F60000000000000000000000000000001F80840
:104F70000007FE18000FFF1C000E038C000C018EB2
:104F8000000C0186000C0186000C030E0006061CB6
:104F9000000FFFFC000FFFF8000FFFC00000000033
:104FA0000000000000000000000000000000000001
:104FB00001FFFF8001FFFF8000060000000C0000E1
:104FC000000C0000000C0000000C0000000E0000AF
:104FD000000FFF800007FF800000000000000000BD
:104FE0000000000000000000000000000000018040
:104FF000000C0180000C0180000C0180000C01807D
:1050000001CFFF8001CFFF8001C7FF80000001803A
:10501000000001800000018000000180000001808C
:105020000000000000000000000000100000001858
:105030000004001C000C000C000C000E000C00060C
:10504000000C000E008C000C01CFFFFC01CFFFF81C
:1050500001C7FFE0000000000000000000000000A9
:105060000000000000000000000000000000000040
:1050700001FFFF8001FFFF80000070000000E000E2
:105080000001C0000003F00000077C0000061E00C5
:10509000000E0F80000C0380000001800000000063
:1050A0000000000000000000000000000080000080
:1050B000018000000180000001C0000001FFFE002F
:1050C00000FFFF000000038000000180000001805D
:1050D000000001800000018000000380000001004A
:1050E0000000000000000000000FFF00000FFF8024
:1050F000000FFF80000C000000080000000C000002
:10510000000FFF800007FF80000C00000008000077
:10511000000C0000000FFF80000FFF800003FF0065
:10512000000000000000000000000000000000007F
:10513000000FFF80000FFF8000060000000C000041
:10514000000C0000000C0000000C0000000E00002D
:10515000000FFF800007FF8000000000000000003B
:105160000000000000000000000000000001FC0042
:105170000007FE0000078F00000E0380000C018076
:10518000000C0180000C0180000C0180000E0380E7
:1051900000078F000007FE000001FC000000000077
:1051A000000000000000000000000000000FFFF8F9
:1051B000000FFFFC000FFFF800060700000C018045
:1051C000000C0180000C0180000C0180000C0380A9
:1051D000000FFF000007FE000001F80000000000C3
:1051E0000000000000000000000000000001F800C6
:1051F0000007FE00000FFF00000C0380000C018080
:10520000000C0180000C0180000C018000060300EE
:10521000000FFFF8000FFFFC000FFFF80000000078
:10522000000000000000000000000000000000007E
:10523000000FFF80000FFF80000300000006000049
:10524000000C0000000C0000000C0000000C00002E
:10525000000E0000000FC0000007C00000000000AA
:105260000000000000000000000000000000060038
:1052700000078700000FC380000CE380000C6180F2
:10528000000C6180000C6180000C7180000C31808A
:10529000000E3F8000061F0000020E00000000000C
:1052A000000000000000000000040000000C0000EE
:1052B000000C0000000C0000007FF80000FFFF0061
:1052C00000FFFF80000C0380000C0180000C0180B7
:1052D000000C0180000C0380000C01800000000025
:1052E00000000000000000000000000000000000BE
:1052F000000FFF00000FFF0000000380000001808E
:105300000000018000000180000001800000070013
:10531000000FFF80000FFF80000000000000000071
:10532000000000000000000000000000000C000071
:10533000000F80000007E0000001FC0000003F00BB
:10534000000007800000078000003F000001FC0013
:105350000007E000000F8000000C000000000000CB
:105360000000000000000000000F8000000FFF00A0
:105370000003FF800000038000001F800000FE008B
:105380000003E0000003E0000000FE0000001F80BA
:10539000000003800003FF80000FFE00000F0000EC
:1053A0000000000000000000000000000008008075
:1053B000000C0380000E078000078E000003FC0035
:1053C0000000F8000000F8000003FC0000078E0059
:1053D000000E0780000C0380000800800000000021
:1053E000000000000000000000000000000C0006AB
:1053F000000F000C0007E00C0001F81C00003F3C0F
:1054000000000FF8000007E000003F800000FC00F3
:105410000007F000000F8000000E000000000000F8
:10542000000000000000000000000000000001007B
:10543000000C0380000C0780000C1D80000C3980DC
:10544000000C7180000CE180000DC180000F818094
:10545000000F0180000E018000000100000000002C
:1054600000000000000000000000000000008000BC
:1054700000018000000180000001C00001E3E3C0E2
:1054800003FF7FF007FE3FF0060000380E00001813
:105490000E0000180C0000180400001800000000A6
:1054A00000000000000000000000000000000000FC
:1054B00000000000000000000000000000000000EC
:1054C00003FFFFF003FFFFF00000000000000000FA
:1054D00000000000000000000000000000000000CC
:1054E00000000000000000000000000004000018A0
:1054F0000C0000180E0000180E00001806000038FE
:1055000007FE3FF003FF7FF001E3E3C00001C000AE
:105510000001800000018000000080000000000009
:105520000000000000000000000000000001E0009A
:105530000001E00000038000000300000003800081
:105540000001C0000000E0000000600000006000FA
:10555000000060000003E0000003C0000000000045
:1055600000000000D00B040824390008E40B0408F4
:10557000A4390008E80B0408243A0008CC0B0408FE
:10558000A43A0008DC0B0408243B0008C80B0408FC
:10559000A43B0008D80B0408243C0008D40B0408E2
:1055A000A43C0008E00B0408243D0008A43D0008CA
:1055B000000000006455000820005F0000000000AB
:1055C00000000000000000000000000000000000DB
:1055D00000000000000000000000000000000000CB
:1055E0000000000000000000000000000000200398
:1055F000FEE003FEE00000400000000000000000AC
:105600000000000000000000000000000007E000B3
:1056100007E00000000000000007E00007E00000D5
:1056200000000000000000000000000063000063B4
:10563000E003FFE003FF00006300006300007FE081
:1056400003FFC003630000630000000000000000CF
:10565000C08001F1C00330600018000FDBF80FFBC1
:10566000F8000800030C600187C000838000000080
:1056700000000003F0C00331C0021700033600032E
:10568000F18000C7E000266000742001C660038737
:10569000C000000000000000078001EFE003F4609C
:1056A000023820021C20030E600382600181C000CA
:1056B0000FA0000E600000200000000000000000AD
:1056C0000000000000000007E00007E0000000000C
:1056D00000000000000000000000000000000000CA
:1056E0000000000000007F8001FFE00380F0060062
:1056F000380C001C08000C00000000000000000036
:1057000000000000000000000008000C0C001C0756
:1057100000380380F001FFC0007F0000000000009F
:1057200000000000000000001100003300001E0017
:10573000001E0000FFC000FFC0001E00001E000091
:105740003300001100000000000000000C00000CFD
:1057500000000C00000C00007F80007F80000C0027
:10576000000C00000C00000C000000000000000015
:1057700000000000020000020000660000E40000DB
:10578000FC000070000000000000000000000000AD
:10579000000000000400000C00000C00000C0000E1
:1057A0000C00000C00000C00000C00000C000004B9
:1057B00000000000000000000000000000000000E9
:1057C0000000400000E00000E00000400000000099
:1057D00000000000000000000000000000000000C9
:1057E000180000F80003E0000F00007C0001E0005A
:1057F0000F80000C0000000000000000000000000E
:105800003E0001FF800387C0030E60020C200218D7
:105810002003306003F1C001FF80003E0000000063
:1058200000000000000000C0600180600300600311
:10583000006003FFE001FFE0000060000060000086
:10584000600000000000000000000300E00300E032
:105850000201E0020360020660030C6003B860010D
:10586000F060000020000000000000000040030085
:105870006003186002186002182002186003386084
:1058800001FCE000C7C000000000000000000000B4
:105890000300000700001F00003B0000E30001C3FD
:1058A0000003FFE003FFE00003000003000000002E
:1058B00000000000004003F06003F860031860027D
:1058C0001820021860021860020CE0020FC00000ED
:1058D00000000000000000000700003FC0006CE076
:1058E00001D860019020031020021860001CE00025
:1058F0000FC00007000000000000000200000200CE
:10590000000200000200600203E0020F80023C007F
:1059100003F00003C00001000000000000000000D0
:10592000038001E7C003FCE003186002182002189E
:105930002003186003FCE001E7C0000380000000C2
:1059400000000000E00001F800039C00030C2002AE
:105950000C60020CC0030D80039F0001FE0000F0EC
:105960000000000000000000000000000000000037
:105970000030400078E00030E000304000000000DF
:105980000000000000000000000000000000000017
:10599000020000020030660078E40030FC00307045
:1059A00000000000000000000000000000000000F7
:1059B0000000000C00001E00001E00003300003339
:1059C0000000318000618000618000000000000064
:1059D000000000001100003300003300003300001D
:1059E00033000033000033000033000033000011A7
:1059F00000000000000000000000006180006180E5
:105A0000003180003300003300001E00001E000043
:105A10000C000000000000000000000000000180F9
:105A200000038000030020020EE0021EE002184086
:105A300003B00001E0000000000000000080000151
:105A4000C7C0019FE0011820011000011F00010FD5
:105A5000C001806001C06000F820003E200000000E
:105A60000000000000600007E0003F0001FB0003B1
:105A7000830003830001FB00003F000007E00000FB
:105A80006000000000000000000003FFE003FFE0F2
:105A900002186002186003186003186003FCE0013C
:105AA000E7C0000300000000000000003E0000FF0F
:105AB0008001C1C0030060030060020020020020DA
:105AC000030060030060018040000000000000004F
:105AD000000003FFE003FFE002006002006003003B
