:020000040800F2
:10000000A00C0020A10100087B1A0008511800086C
:10001000771A0008E11200083726000800000000E7
:100020000000000000000000000000004D2100085A
:100030000B160008000000003D1B00083D220008D0
:10004000BB010008BB010008BB010008BB010008A0
:10005000BB010008BB010008BB010008BB01000890
:10006000BB010008BB010008BB010008BB01000880
:10007000BB010008BB010008BB010008BB01000870
:10008000BB010008BB010008BB010008BB01000860
:10009000BB010008BB010008BB010008BB01000850
:1000A000BB010008BB010008BB010008BB01000840
:1000B000A9220008BB010008BB010008BB01000821
:1000C000BB010008BB010008BB010008BB01000820
:1000D000BB010008BD230008F5230008BB01000890
:1000E000BB010008BB010008BB010008BB01000800
:1000F000BB010008BB010008BB010008BB010008F0
:10010000BB010008BB010008BB010008BB010008DF
:10011000BB010008BB010008BB010008BB010008CF
:10012000BB010008BB010008BB010008BB010008BF
:10013000BB010008BB010008BB010008BB010008AF
:10014000BB010008BB010008BB010008BB0100089F
:10015000BB010008BB010008E5120008BB01000854
:10016000BB010008BB010008BB010008BB0100087F
:10017000BB010008BB010008BB010008BB0100086F
:10018000BB010008BB010008DFF810D000F09AFCAA
:100190000048004771450008AFF30080A00C002024
:1001A0000648804706480047FEE7FEE7FEE7FEE711
:1001B000FEE7FEE7FEE7FEE7FEE7FEE74122000876
:1001C0008901000840EA01039B0703D009E008C940
:1001D000121F08C0042AFAD203E011F8013B00F80C
:1001E000013B521EF9D27047D2B201E000F8012B58
:1001F000491EFBD270470022F6E710B513460A46A7
:1002000004461946FFF7F0FF204610BD30B50546FD
:100210002A460B4612F8010B13F8014B08B1A04215
:10022000F8D01CB1002802D06D1CF1E7284630BD83
:10023000421C10F8011B0029FBD1801A704710B531
:10024000002200E0521C835C8C5CA34201D1002B95
:10025000F8D1D8B2E1B2401A10BD30B50446002042
:10026000034600E05B1C934203D2E05CCD5C401B84
:10027000F8D030BD0FB400B58DB010A909900B9027
:1002800000914FF0FF300A9000200C900548069036
:10029000054807906A4609A80F9900F0A7F90DB024
:1002A0005DF814FB09060008270600082DE9FF5F2A
:1002B0001D464FF0FF3BD5E9014691465F464FF0A2
:1002C0000008A9697F1C01988847296A82468847E7
:1002D0000028F6D1BAF1FF3F0CD024F4C064002E00
:1002E00019DD600614D5BAF12B0F09D0BAF12D0F24
:1002F0000ED103E0584604B0BDE8F09F44F480649A
:10030000A9697F1C01988847761E8246002E02DD6F
:10031000BAF1300F03D0B9F1000F26D032E0A9694D
:10032000761E44F400747F1C019888478246002E94
:1003300005DDBAF1780F06D0BAF1580F03D0B9F144
:10034000000F10D01EE0B9F1000F02D0B9F1100F6C
:1003500018D1A969761E24F400747F1C019888477F
:100360008246102002E0082000E00A20814609E0D1
:1003700008FB0908A969761E44F400747F1C0198E3
:1003800088478246002E05DD4946504600F01AF99E
:100390000028EDDAE96901988847A00502D46FF0DA
:1003A0000100A8E7E00725D1600613D5600502D556
:1003B000C8F1000000E0404629680A1D2A6009686B
:1003C000220501D5087015E0220701D5088011E04B
:1003D00008600FE02868011D29600068210502D52A
:1003E00080F8008006E0210702D5A0F8008001E037
:1003F000C0F8008038467EE72DE9FF5FD2E901A70B
:100400004FF00008916999461446DDF838B0464629
:1004100001988847054659EA0B0005D009E0A16913
:10042000761C019888470546216A28468847002897
:10043000F5D1681C03D05FEACA7005D015E04FF013
:10044000FF3004B0BDE8F09F2068011D2160D0F8A6
:1004500000800AE05FEACA7001D108F8015BA16977
:10046000761C7F1E019888470546002F1ADD681C00
:1004700018D0B9F1000F0DD0E81705EBD06042118C
:1004800020F01F0059F822102A1A01209040014242
:10049000E0D107E0BBF1000FDCD1216A2846884794
:1004A0000028D7D0E16901988847BBF1000F07D138
:1004B000002E05DD5FEACA7002D1002188F8001025
:1004C000A068B84203DDBBF1000F03D017B16FF095
:1004D0000100B6E73046B4E700F0004230F00040DB
:1004E0000AD0C10D01F56071C0F3160042EA015156
:1004F000C20840071143704700200146704701F0D1
:10050000004330B421F0004150EA010206D00A0D48
:10051000A2F56072C1F31301002A02DC30BC002096
:100520007047440F44EAC104C100E01830BC00EB3E
:10053000C25000F0D7B830B50B460146002020224B
:10054000012409E021FA02F59D4205D303FA02F5E0
:10055000491B04FA02F52844151EA2F10102F1DC40
:1005600030BD2DE9F05F0546002092469B46884647
:100570000646814640241BE028464146474622461F
:1005800000F0C1FA53465A46C01A914110D31146A1
:100590001846224600F0A8FA2D1A67EB01084F46CC
:1005A00022460120002100F09FFA17EB00094E417E
:1005B000201EA4F10104DFDC484631462A464346AA
:1005C000BDE8F09F3A2800D2303820F02002412ABE
:1005D00001D3A2F13700884201D34FF0FF307047BA
:1005E000026811441378016018467047D1600449CD
:1005F00051610449116200211161114600F0AABA4B
:10060000E10500084B0B0008426842B1016811F88F
:10061000013B23B1521EC0E9001218467047012168
:10062000C160881E704742685AB1C368016843B907
:1006300083688B4205D0491E521CC0E9001200207D
:1006400070474FF0FF3070470FB4002300B589B0FA
:100650000CA900910B996FF00042CB601E4B0693E2
:100660001E4B07930423CDE901321D4A089202462E
:100670006B46002000F09AFC09B05DF814FB70B5E1
:1006800086B006464FF0FF300091CDE90101002011
:1006900015460C4604903246694604A8FFF7D4FF7D
:1006A00002460498211825B108B1084600E020460A
:1006B0002860049800280DD0002A02DD00988842A6
:1006C00008D0081B0094CDE901043246694604A80D
:1006D000FFF7BAFF06B070BD09060008270600083C
:1006E0004B0B00080029A8BF7047401C490008BFF9
:1006F00020F00100704710B4B0FA80FC00FA0CF052
:1007000050EA010404BF10BC704749B1CCF1200489
:1007100021FA04F411FA0CF118BF01212143084316
:10072000A3EB0C01CB1D4FEA00614FEA102042BF42
:10073000002010BC704700EBC35010440029A4BF38
:1007400010BC7047401C490008BF20F0010010BCDD
:1007500070472DE9FE4F804681EA0300C00F0C462A
:10076000009021F0004123F00045B8EB0200A941C0
:1007700005D24046214690461C460B46024623F0D1
:100780000040104347D0270DC7F30A00C3F30A51B6
:100790000290401A019040286BDAC3F3130040F432
:1007A000801B0098924620B10023D2EB030A63EB32
:1007B0000B0B01985946C0F14002504600F094F9E5
:1007C00006460D4650465946019A00F0ACF910EB2A
:1007D00008006141002487EA115284EAE7731A4352
:1007E00040D0009A62B3019A012A4FEA075215DC01
:1007F000001B61EB02014FF0004202EA0752CDE913
:100800000042001C41F5801132462B4600F0F9FCF5
:1008100003B0BDE8F08F40462146F9E7001B61EBCD
:100820000201001C41F5801300185B412018A2F55D
:10083000001747EB030140EAD570B6196D4111E08E
:100840006D084FEA360645EAC0754FEA0752001BAD
:1008500061EB0201001C41F5801149084FEA3000AC
:100860000019514132462B4603B0BDE8F04F00F06D
:10087000B9BC0098012240000023D0EB020263EBD8
:10088000E073009821464FEAE074B8EB000061EB9A
:100890000401E9E783F000435BE781F0004158E79A
:1008A0002DE9FE4F81EA030404F0004421F00041E9
:1008B00000944FF0000B23F0004350EA01045ED097
:1008C00052EA03045BD0C3F30A54C1F30A552C4423
:1008D000A4F2F3340194A0FB0254C1F3130141F4D8
:1008E0008011C3F3130343F4801301FB024400FBA4
:1008F000034E840A970A44EA815447EA8357A4FBCB
:10090000076802958D0A05FB07854FEA932C04FBC7
:100910000C542705029D4FEA065847EA1637B5EBF7
:1009200008056EEB070C870E920E47EA811742EA24
:100930008312A7FB0201B6EB0B0164EB00042B0D45
:1009400043EA0C335E1844EB1C50DA465146E7FB91
:100950000201C5F313044FEA0B3343EA14534FEA81
:100960000432019C43EA0603A4F10C040294009CA7
:10097000CDE900B400F045FC03B0BDE8F08F0020E5
:100980000146F9E72DE9F04D81EA030404F0004B3C
:1009900021F0004514464FF0000A23F0004150EAD0
:1009A000050220D054EA01021DD0C5F30A570246C1
:1009B000C5F31303C1F31300C1F30A5640F48015C5
:1009C00043F48013A7EB0608101BD64608F2FD3847
:1009D00073EB050002D308F1010801E092185B41B6
:1009E000B8F1000F03DA00200146BDE8F08D0020C9
:1009F0004FF48011064684460EE0171B73EB050783
:100A000005D3121B63EB050306434CEA010C4908AE
:100A10004FEA300092185B4150EA0107EDD152EAEB
:100A2000030012D082EA040083EA0501084305D0DE
:100A3000101BAB4106D20122002306E000224FF03A
:100A4000004302E06FF0010253101AEB06004CEB7A
:100A5000085110EB0A0041EB0B01BDE8F04D00F02E
:100A6000C1BBC1F30A52C1F3130140F2FF3341F499
:100A700080119A4202DA00200146704740F2334367
:100A80009A42A2F2334202DC524200F03CB800F03B
:100A90002BB8000030B5041E71F1000404DB4FF0E8
:100AA0000044404264EB0101141E73F1000405DBB5
:100AB0001C464FF00043524263EB0403994208BFC7
:100AC000904230BD064C074D06E0E06840F001035F
:100AD00094E8070098471034AC42F6D3FFF758FB70
:100AE000782E0408982E0408202A04DB203A00FA05
:100AF00002F1002070479140C2F1200320FA03F375
:100B0000194390407047202A04DB203A21FA02F072
:100B10000021704721FA02F3D040C2F12002914037
:100B2000084319467047202A06DBCB17203A41FAC2
:100B300002F043EAE07306E041FA02F3D040C2F16A
:100B400020029140084319467047C0B24FF4F0515B
:100B500000F0A6BB2DE9F34F8BB04FF0000801F178
:100B60000C000C464FF0010B46460DF1080A0190AF
:100B70006269012101989047051E2DD0252D2CD0AA
:100B8000216A8847C0B16269012101989047216AB2
:100B900088470028F7D1411E62690198904700E01C
:100BA000761CA1690B988847216A88470028F7D1ED
:100BB000E1690B988847DBE7A1690B9888470746EE
:100BC000A84201D1761CD3E7E1690B9888477F1CC6
:100BD00002D1B8F1000F6FD047E1002762693D46AE
:100BE0003946019890472A2804D162690121019869
:100BF00090470125DFF888926269012101989047AA
:100C0000A0F130010A290AD24F45E5DC07EB870144
:100C100000EB4107303FDFD445F01005ECE7E90673
:100C200001D46FF000476C280AD04C2814D06828F3
:100C300015D06A280DD074281CD07A281AD01DE04F
:100C400062690121019890476C2802D045F00405A3
:100C500014E045F002050DE045F020050AE0626968
:100C6000012101989047682802D045F0080505E069
:100C700045F400656269012101989047C4E9015774
:100C800065283DD019DC58287AD00CDC452837D0AF
:100C900004DC252826D0412831D131E046282FD048
:100CA00047282CD12CE05B2877D0612828D06328F6
:100CB0007CD0642823D15AE0D1E06F2848D008DCEA
:100CC00066281DD067281BD0692821D06E2816D130
:100CD00027E0702845D0732868D0752847D0782839
:100CE0000DD14DE0A1690B988847054625283FF4B2
:100CF00069AFE1690B9888476D1C3FF46AAFB4E0B7
:100D000023466A466FF001000B9900F04FF99FE00F
:100D100045F040006060A80723464FF0000236D43B
:100D20003EE0E8077FF447AF2068011D21600068BE
:100D3000290501D506701BE7290701D5068017E7AD
:100D4000A90703D5F117C0E9006111E706600FE7B5
:100D500045F040006060A80723464FF0080216D413
:100D60001EE040F60E0125EA0100606016E045F045
:100D700040006060A80723464FF00A0207D40FE046
:100D800045F040006060A80708D5234610226FF0A8
:100D900001000B99AFF300805AE007E023461022D0
:100DA0006FF001000B99FFF781FA51E04FF0000955
:100DB0004F464B46632802D05B2807D041E020799C
:100DC000C00601D40120A06001273AE06269012138
:100DD000019890475E2805D14FF0010962694946A4
:100DE00001989047216939B900210A46534643F8D2
:100DF0002120491C0829FADBB0B3216969B9C11760
:100E000000EBD16253110AEB830122F01F02821A18
:100E100001200B68904003430B6062690121019837
:100E200090475D28E8D1B9F1000F09D00020514664
:100E300051F82020D24341F82020401C0828F7DB3D
:100E400002AB224600976FF001000B99FFF7D4FA2E
:100E500000280CDA401C08D1BBF1000F05D04FF080
:100E6000FF300DB0BDE8F08FFFE74046F9E7E90736
:100E700001D108F1010806444FF0000B78E60000AC
:100E8000CCCCCC0C2DE9FF4F087883B09946FF28D5
:100E900005D0491C2D2804D00024002008E00020A3
:100EA0000BE00124F9E700EB800003EB4000491C54
:100EB0000B78FF2BF7D104B1404200230293147842
:100EC00019461D462D2C01D02B2C04D1521C2D2C43
:100ED00013D000240294AA461478FF2C0FD00A25C0
:100EE000A3FB057801FB05814FF0000C03FB0C11FF
:100EF000521CE3194AEB0101EEE70124EAE78144C1
:100F000053EA010002D019F5C87F06DA03980021E0
:100F1000C0E9001107B0BDE8F08F0025AE4E2F46A6
:100F2000DFF8B882184600F0CFF9CDE90001B9F139
:100F3000000002DAC9F1000400E004460023A74AD9
:100F40001AEB030B42EB045A12E0E00707D02A46E3
:100F5000334638464146FFF7A3FC074688462A46F3
:100F6000334610461946FFF79BFC05460E466410B3
:100F7000002CEAD1DDE90001B9F1000F5A465346D1
:100F800006DAFFF7FFFC3A464346FFF7FBFC05E0B5
:100F9000FFF786FC3A464346FFF782FC029A0AB105
:100FA00081F00041039AC2E90001B3E72DE9FF4F48
:100FB0001F468DB0D7E901464FF0FF382E20454639
:100FC0004FF000090B90B9696D1C0E988847396A7B
:100FD000824688470028F6D1BAF1FF3F0AD024F4B0
:100FE000D064002E11DDBAF12B0F08D0BAF12D0F0D
:100FF0000BD102E0404611B08DE744F48064B9693A
:101000006D1C0E9888478246761E6946600501D59C
:101010002D2000E02B208DF8000001F1010B0DF1D7
:10102000200809E0B9696D1C0E98884782460F9820
:1010300044F40074761E0560002E02DDBAF1300F14
:10104000F0D00B998A453ED144F0800406E00F9918
:10105000681CA9F1010944F400740860B9696D1CA9
:10106000761E0E98884782463028F0D02BE00B99E8
:101070008A4505D1200603D444F08004761E18E08A
:10108000504601F0FFFB08B30DF11301761E44F446
:1010900000748B4508D2AAF130000BF8010B200632
:1010A00007D5A9F1010003E0200602D409F10100EF
:1010B0008146A00502D50F99681C0860B9696D1CAE
:1010C0000E9888478246002ED1DC53E0002E51DD79
:1010D000BAF1650F02D0BAF1450F4BD1A00549D541
:1010E000B9696D1C24F44074761E0E9888478246B8
:1010F000002E0CDD2B2804D0BAF12D0F07D144F4BB
:101100008074B9696D1C0E9888478246761EE0058A
:1011100001D52D2100E02B2108F8011BCDF82C80F2
:1011200021E00DF12901761E44F4007488450CD2AB
:10113000AAF1300010F0FF0088F8000002D10B99EE
:10114000884509D908F1010806E0E00501D52448E1
:1011500001E042F20F708146B9696D1C0E98884714
:1011600082460F980560002E04DD504601F08AFB90
:101170000028D6D1F9690E988847FF208BF8000027
:1011800088F800000020069007904B466A4608A9A0
:1011900006A8FFF777FEA00502D46FF001002AE74A
:1011A00014F0240F0AD0E00714D1DDE906123868E4
:1011B000031D3B600068C0E900120BE0DDE9060199
:1011C000FFF79DF90146E00704D13868021D3A6037
:1011D0000068016028460EE7000014400000F03F60
:1011E000F1D8FFFF10B5141E73F1000408DA401C9B
:1011F00041F1000192185B411A4301D120F0010036
:1012000010BD2DE9F04D92469B4611B1B1FA81F225
:1012100002E0B0FA80F220329046FFF765FC044607
:101220000F4640EA0A0041EA0B0153465A4608437A
:1012300013D0114653EA010019D0C8F140025046BC
:10124000FFF761FC05460E46504659464246FFF7F9
:101250004BFC084305D0012004E020463946BDE898
:10126000F08D0020054346EAE0762C4337430A9888
:101270006305E40AA0EB08000022FD0A44EA475493
:101280000A3002D500200146E9E70105101969413D
:10129000DDE9084500196941BDE8F04DA2E700000D
:1012A0007F2801D9002208E0064A02EB5002C0075D
:1012B000127800D1120902F00F020120904008407C
:1012C00070470000DC2C04080EB540F23342029255
:1012D0000022CDE900221346FFF793FF03B000BDC3
:1012E00000BFFEE710B50549054800F001F918B147
:1012F0000249034800F020F810BD000000800028DB
:10130000B86402400246094B9A4201D2084801E003
:101310000648103801F000531BB1064B0B40C36068
:1013200002E0044B0B4083607047000010640240F1
:10133000006002407D0F7D0F0246094B9A4201D2A8
:10134000084801E00648103801F000531BB1064B75
:101350000B40C36002E0044B0B4083607047000009
:1013600010640240006002407D0F7D0F21B10268D1
:1013700042F00102026003E0026822F00102026012
:1013800070470000016821F0010101600021016047
:1013900041608160C1600161212141614A49884207
:1013A00004D13D21484A103A91608CE046491831F9
:1013B000884205D14FF47461434A103A916082E04B
:1013C00041493031884205D14FF474113E4A103AF8
:1013D000916078E03C494831884205D14FF0746112
:1013E000394A103A91606EE037496031884204D141
:1013F0003649354A103AD16065E033497831884240
:1014000004D13349304A103AD1605CE02E49903122
:10141000884204D12F492C4A103AD16053E02A491E
:10142000A831884205D14FF03D51274A103AD1608A
:1014300049E02949884204D13D21274A083A1160F0
:1014400041E025491831884205D14FF47461224AA0
:10145000083A116037E020493031884205D14FF415
:1014600074111D4A083A11602DE01B494831884229
:1014700005D14FF07461184A083A116023E016490B
:101480006031884204D11149134A121F11601AE0D9
:1014900011497831884204D10D490F4A121F116059
:1014A00011E00D499031884204D10A490A4A121FBD
:1014B000116008E00849A831884204D14FF03D513D
:1014C000054A121F11607047106002403D00002065
:1014D000400F002000003D20106402400146002023
:1014E0000A6802F001020AB1012000E00020704702
:1014F00070B50246002000240025124EB24201D2EF
:10150000114B01E00F4B103B104E0E4036B11E2622
:1015100006EAD124166806EA040502E0566906F0D8
:10152000800501F000560EB15C6800E01C68084EB2
:10153000344004EA010616B10DB1012000E000209C
:1015400070BD000010640240006002403C0F3C0F80
:101550007D0F7D0F10B501F080034BB122B14369BF
:1015600043F08003436103E0436923F08003436158
:1015700080290BD02AB1036801F01E0423430360C5
:1015800004E0036801F01E04A343036010BD0000E3
:1015900010B500220268134B1A40CC680B68234335
:1015A0004C6923438C692343CC6923430C6A23434E
:1015B0004C6A23438C6A23434C6B23438C6B234339
:1015C0001A430260426922F00702D1E90B34234337
:1015D0001A4342610B6943604B6883608B68C36048
:1015E00010BD00003F801CF000210160416081605F
:1015F000C160016141618161C161016241628162D9
:10160000C1620163416381637047704751B18200D9
:10161000A2F1C042126842F001038200A2F1C0426E
:10162000136009E08200A2F1C0421268034B1A4025
:101630008300A3F1C0431A6070470000FEFF0F0053
:1016400030B50021002200230468A400A4F1C044A6
:101650002168424C2140D0E901452C43C5682C4308
:1016600005692C4345692C4385692C43C5692C4386
:10167000056A2C43456A2C43856A2C43C56A2C4372
:10168000056B2C4321430468A400A4F1C0442160ED
:101690008468082C0BD10468A400A4F1C044246819
:1016A00044F040050468A400A4F1C0442560046827
:1016B000641CA400A4F1C044226802F04042446BC0
:1016C0002468456B6D6844EA0514456BAD6844EACF
:1016D0000524456BAD8944EA0544456B2D8A44EAEF
:1016E0000554456B2D7D44EA0564456BAD692C437B
:1016F00022430468641CA400A4F1C0442260C46AAC
:10170000B4F5804F20D10468A400A4F1C044D4F8FB
:101710000431134C2340846B2468856B6D6844EA64
:101720000514856BAD6844EA0524856BAD8944EAF0
:101730000544856BAD692C4323430468A400A4F1E0
:10174000C044C4F8043107E06FF070450468A40099
:10175000A4F1C044C4F8045130BD00008000F7FF7C
:101760000000F0CFF0B50A4600210023002400BF9E
:101770003DE0012505FA01F3156805EA03049C42E2
:1017800034D105684F000326BE40B5430560157986
:101790004E00B5400668354305601579012D02D02D
:1017A0001579022D16D185684F000326BE40B5433A
:1017B000856055794E00B54086683543856045683B
:1017C00001268E40B5434560456896798E40B6B295
:1017D00035434560C5684F000326BE40B543C5602C
:1017E000D5794E00B540C6683543C560491C1029FF
:1017F000BFD3F0BDF0B5002300244D07ED0E02FA73
:1018000005F3CE1000F1200555F826504E07F70ECF
:101810000F26BE40B543CF1000F1200646F82750F2
:10182000CE1000F1200555F8265045EA0304CE10ED
:1018300000F1200545F82640F0BD816170474FF664
:10184000FF7101600021017141718171C1717047A7
:1018500000BFFEE721B1028842F48062028004E00A
:1018600002884FF6FF331A400280704770B5024677
:101870000025002300240026938A03F0020010B9FB
:1018800023F0100008B1148B01E0002070BD240487
:1018900043EA040020F07F4505EA0100884201D1B7
:1018A000012600E000263046F0E721B1028842F030
:1018B0000102028004E002884FF6FE731A400280A3
:1018C0007047000010B504461348844209D1012135
:1018D000480500F065F900214FF4001000F060F9B0
:1018E00018E00E48844209D10121880500F058F91A
:1018F00000214FF4800000F053F90BE008488442C7
:1019000008D10121C80500F04BF900214FF4000077
:1019100000F046F910BD000000540040005800409F
:10192000005C004021B1028842F48072028004E031
:1019300002884FF6FF631A400280704721B1028887
:1019400042F40072028004E002884FF6FF531A400E
:10195000028070472DE9FF4704460D460026B14638
:101960000427DFF8CC80A6884FF6C0700640684692
:1019700000F036F9DDF808802E48B8FBF0F01FFAC9
:1019800080F946EA0906A68020884FF6FE710840D5
:10199000208000262849286888420CD82868400002
:1019A000B8FBF0F087B2042F00DA04273E4309F1B8
:1019B0000100208427E0E8884BF6FF71884206D1B9
:1019C000286800EB4000B8FBF0F087B209E0286817
:1019D00000EBC00101EB0010B8FBF0F087B247F458
:1019E0008047C7F30B0008B947F0010747F40040F0
:1019F00006434FF4967009FB00F04FF47A7190FBA8
:101A0000F1F0401C2084A683208840F00100208053
:101A100026884FF6F5300640A888698908430643B2
:101A20002680A889298908432081BDE8FF87000016
:101A300000127A0040420F00A08601000146088A89
:101A4000C0B2704712B141F0010101E001F0FE01A6
:101A5000018270470182704741F2883101600021A4
:101A600081804BF6FF71C1800021018141814FF4DB
:101A700080418181704700BFFEE7704770B500214B
:101A800000230F22C4781CB3174C246804F4E064CC
:101A9000C4F5E064C4F30721C1F10404E3B20A41D0
:101AA00044789C40E1B28478144021430C07210E15
:101AB0000E4C05786155047804F01F050124AC40F4
:101AC00005786D11AD0005F1E025C5F8004109E08C
:101AD000047804F01F050124AC40054D067876110A
:101AE00045F8264070BD00000CED00E000E400E089
:101AF00080E100E002490143024A116070470000A2
:101B00000000FA050CED00E010B5002807DA0A071E
:101B1000140E054A00F00F031B1FD45403E00A07FC
:101B2000130E024A135410BD18ED00E000E400E06B
:101B3000014908627047000000000E427047000033
:101B400029B1064A12680243044B1A6004E0034AB2
:101B500012688243014B1A6070470000303802401F
:101B600029B1064A12680243044B1A6004E0034A92
:101B700012688243014B1A607047000038380240F7
:101B800029B1064A12680243044B1A6004E0034A72
:101B900012688243014B1A607047000040380240CF
:101BA00029B1064A12680243044B1A6004E0034A52
:101BB00012688243014B1A607047000020380240CF
:101BC00029B1064A12680243044B1A6004E0034A32
:101BD00012688243014B1A6070470000443802408B
:101BE000F0B5002100220024022500260223324FF6
:101BF0003F6807F00C0121B1042905D0082937D12D
:101C000005E02E4F076036E02D4F076033E02A4F86
:101C10003F1F3F68C7F38056274F3F1F3F6807F0BD
:101C20003F036EB1264FB7FBF3F7DFF88CC0ACF182
:101C3000040CDCF800C0CCF3881C07FB0CF40CE0AF
:101C40001E4FB7FBF3F7DFF870C0ACF1040CDCF803
:101C500000C0CCF3881C07FB0CF4174F3F1F3F68F4
:101C6000C7F301477F1C7D00B4FBF5F7076002E076
:101C7000124F076000BF00BF0F4F3F6807F0F00131
:101C80000909104F7A5C0768D74047600A4F3F68E0
:101C900007F4E051890A0B4F7A5C4768D7408760A8
:101CA000054F3F6807F46041490B064F7A5C47686F
:101CB000D740C760F0BD0000083802400024F4009F
:101CC00000127A005800002010B5014600220023BF
:101CD00000204A11012A02D10A4C236808E0022A96
:101CE00003D1084C7034236802E0064C7434236836
:101CF00001F01F02012494401C400CB1012000E0BF
:101D0000002010BD003802400021094A11701170F6
:101D1000012802D0042808D103E00121044A1170EF
:101D200004E00521024A117000E000BF00BF7047C7
:101D30007038024001490860704700003C0E47427D
:101D4000002100F44072B2F5407F08D1094A1168C1
:101D500021F4F811084A02401143064A1160054A6D
:101D600068321268C0F30B031A43024B68331A60DF
:101D70007047000008380240FFFCFF0F10B5034613
:101D800003F0F800000201F0FC0440EAC40040EA5D
:101D9000E20010BD014600BF080900EB80004200D0
:101DA00001F00F001044C0B270470146002204E069
:101DB000501CC2B2A1F10A00C1B20A29F8DA100718
:101DC00041EA10607047012101708170417000216B
:101DD000C170704708B50022009200200021104A0F
:101DE000126802F04002CAB9421E0D4B1A6000BFD1
:101DF0000B4A126802F04001009A521C0092009AAD
:101E0000B2F5803F01D00029F2D0054A126802F0F5
:101E100040020AB1012002E0002000E0012008BDDC
:101E20000C2800400348006820F080000149086049
:101E3000704700000C28004070B506460C4600258F
:101E40000E4800680E4900EA0105280CE070C5F351
:101E50000420607005F03F00A070C5F34230207090
:101E60005EB9E078FFF796FFE0706078FFF792FFC9
:101E70006070A078FFF78EFFA07070BD042800404E
:101E80003FFFFF0070B506460C4600250F4800686E
:101E90000F4900EA0105C5F305402070C5F306208F
:101EA000607005F07F00A07005F48000000CE07009
:101EB0005EB92078FFF76EFF20706078FFF76AFF49
:101EC0006070A078FFF766FFA07070BD002800402A
:101ED0007F7F7F0030B504460025CA201549086081
:101EE00053200860FFF776FF00B91DE011481C3849
:101EF000006820F040000F491C390860084600685F
:101F0000216808430B491C3908600A491439A06844
:101F1000086008460068A18840EA01400549143974
:101F20000860FFF77FFF0125FF200249086028466F
:101F300030BD0000242800402DE9F04105460C4644
:101F4000002600274DB9607800F01000102804D159
:101F5000607820F010000A30607005B908E0607801
:101F6000FFF718FF0646A078FFF714FF064600BFEC
:101F700055B1E0780004617840EA0120A178084377
:101F8000217840EA413611E0E078FFF70EFF4FEA92
:101F900000486078FFF709FF48EA0028A078FFF7BB
:101FA00004FF48EA0008207848EA4036CA2012496F
:101FB000086053200860FFF70DFF08B9002714E000
:101FC0000E4830400C4920390860FFF72BFF0A48C3
:101FD0001C38006800F0200030B900F087F808B91C
:101FE000002702E0012700E00127FF2002490860E6
:101FF0003846BDE8F0810000242800403FFFFF0084
:102000002DE9F04105460C46002600274DB92E4823
:10201000006800F0400000B102E00020E07000BF66
:102020000DE02948006800F0400020B12078FFF75B
:10203000B1FE064602E00020E07000BF00BF55B1CF
:1020400020780004617840EA0120A1780843E17813
:1020500040EA014611E02078FFF7A7FE4FEA00486A
:102060006078FFF7A2FE48EA0028A078FFF79DFEFF
:1020700048EA0008E07848EA0046CA2012491C31C4
:10208000086053200860FFF7A5FE08B9002713E099
:102090000E4830400C4908390860FFF7C3FE0A4873
:1020A000006800F0200030B900F020F808B90027DF
:1020B00002E0012700E00127FF2003491C310860EE
:1020C0003846BDE8F0810000082800407F7F7F008F
:1020D000002101607F214160FF2181607047002164
:1020E000C1700170417081707047000008B5002216
:1020F000009200200021CA22134B1A6053221A605A
:10210000114A183A126822F0A0020F4B183B1A60CD
:1021100000BF0D4A183A126802F02001009A521CC2
:102120000092009AB2F5003F01D00029F1D0064A92
:10213000183A126802F020020AB1012000E00020E3
:10214000FF22014B1A6008BD2428004070470000A0
:102150000CB50020019000903448006840F48030B5
:102160003249086000BF3148006800F40030009038
:102170000198401C0190009818B90198B0F5A04F43
:10218000F1D12A48006800F4003010B1012000901D
:1021900001E0002000900098012846D123484030FB
:1021A000006840F0805021494031086020480068B4
:1021B00040F440401E4908601C48083000681B4934
:1021C000083108600846006840F40040086008468E
:1021D000006840F4A05008601648091F0860081FF6
:1021E000006840F08070091F086000BF0F48006859
:1021F00000F000700028F9D040F205700E49086028
:102200000A480830006820F00300084908310860D7
:102210000846006840F00200086000BF034808302C
:10222000006800F00C000828F8D10CBD003802400E
:102230000070004008544007003C02407047000016
:1022400010B51548006840F4700013490860134841
:10225000006840F001001149086000200F49083172
:1022600008600E4800680E4908400C4908600D4897
:10227000091D0860081F006820F48020091F0860FD
:10228000002006490C310860FFF762FF4FF0006044
:1022900001498039086010BD88ED00E00038024037
:1022A000FFFFF6FE1030002410B50121880700F072
:1022B00028F890B10121880700F014F80748036856
:1022C00040685A1C40F1000004490A604860044814
:1022D000006810B102480068804710BD2800002047
:1022E00030000020CA430282704721B1028842F0C8
:1022F0000102028004E002884FF6FE731A40028059
:10230000704730B50246002000230024158A05EAF4
:102310000103958905EA010413B10CB1012000E025
:10232000002030BD1AB183890B43838102E0838989
:102330008B4383817047000000220288184B98422B
:102340000ED0184B98420BD0B0F1804F08D0164BEE
:10235000984205D0154B984202D0154B984204D1B3
:102360004FF68F731A404B881A43124B984207D08E
:10237000114B984204D04FF6FF431A400B891A4381
:1023800002804B68C3620B880385054B984202D0DC
:10239000044B984201D18B7A0386012383827047D4
:1023A000000001400004014000040040000800401B
:1023B000000C0040001000400014004010B5202127
:1023C0000A4800F069F880B1084800F01FF9C4B26B
:1023D0000748006818B1204605490968884740F257
:1023E0002551024800F027F800BF10BD0010014041
:1023F0002400002010B540F22551094800F04CF8A7
:1024000060B1074800F002F9C4B2204601F078F943
:1024100040F22551024800F00EF800BF10BD000048
:102420000044004001F40072B2F5007F00D100BF0B
:10243000CA430280704710B50022002340F66A1498
:10244000A14200D100BF0A1201249440A3B2DC4390
:10245000048010BD21B1828942F40052828104E0DF
:1024600082894DF6FF731A40828170471AB1838AC0
:102470000B43838202E0838A8B4383827047024648
:102480000020B1F5007F00D100BF13880B400BB1D5
:10249000012000E00020704770B5024600240023B0
:1024A0000025002040F66A16B14200D100BFC1F3FA
:1024B000421501F01F03012606FA03F3012D02D194
:1024C0009689334006E0022D02D1168A334001E09E
:1024D000968A33400C12012606FA04F4168834401A
:1024E00013B10CB1012000E0002070BDF0B503462F
:1024F000002400260025002040F66A17B94200D1CA
:1025000000BF1846C1F3421401F01F06012707FA65
:1025100006F5012C01D10C3004E0022C01D1103061
:1025200000E014301AB107682F43076002E0076823
:10253000AF430760F0BD00002DE9FF4705460E469A
:102540000024A14600BFA046B08900B100BF2C8A7C
:1025500024F44054F08804432C82AC8941F20C608E
:102560008443B08831890843718908430443AC81AE
:10257000AC8A24F44074B0890443AC826846FFF707
:102580002FFB2048854202D01F48854202D1DDF84A
:102590000C9001E0DDF80890A88900F4004040B1FB
:1025A00009EBC90000EB091031684900B0FBF1F7F5
:1025B00007E009EBC90000EB091031688900B0FBA6
:1025C000F1F76420B7FBF0F004012009642101FB5E
:1025D0001078A88900F4004040B1322000EBC80018
:1025E000B0FBF1F000F00700044308E0322000EBFC
:1025F00008106421B0FBF1F000F00F0004432C81BF
:10260000BDE8FF87001001400014014001468888A2
:10261000C0F308007047C1F30802828070474FF48E
:102620001651016000218180C18001810C2141810E
:1026300000218181704700BFFEE700000FB4054B09
:1026400010B503A9044A029800F024F910BC5DF803
:1026500014FB0000B5390008740000200FB47CB5ED
:102660000C0009AD01D0611E00E00021CDE90001A0
:10267000064B6A462946089800F00CF9002C02D057
:10268000009A002111707CBC5DF814FB9B2F0008A0
:1026900030B583B0044600F017F89FED090B0546EE
:1026A0008DED000B002221466846FDF7E8FF284625
:1026B00000F020F89DED000B03B030BD00000000DD
:1026C00000000000000000000148006870470000A2
:1026D0007800002002E008C8121F08C1002AFAD1C1
:1026E00070477047002001E001C1121F002AFBD192
:1026F0007047000001490860704700007800002022
:102700002DE9FF5F82B00021DDE90430020DDDF824
:1027100040B0034318D044F61050A2F2FF324243B7
:102720001514119801281FD0A5EB0B00401C5FEA7F
:10273000000A4FF000064E4FDFF83891B046504681
:1027400015D5CAF1000413E0119801244AA3012809
:1027500001D16FEA0B010298119AC0E90031C0E97A
:10276000024206B0BDE8F09FCBF10000DFE704466F
:102770000021404A491842EB0450CDE9001012E014
:10278000E00707D032463B4640464946FEF788F808
:102790008046894632463B4610461946FEF780F889
:1027A00006460F466410002CEAD1DDE90401DDE99C
:1027B0000023BAF1000F06DAFEF772F842464B46E4
:1027C000FEF76EF805E0FEF7DDF842464B46FEF7F1
:1027D000D9F804460E460022284BFEF75BF903D8D1
:1027E0004FF0FF30014607E00022254B20463146DE
:1027F000FDF7AFFFFEF735F9102409E0002C0ADBE6
:102800000A220023FDF7ADFE039B30321A55641EE9
:1028100050EA0102F2D1641C039AC4F1110314447A
:10282000119A012A03D0012208430DD10AE008437E
:1028300004D000204FF0110B119072E7A3EB0B05B1
:102840006D1E0DE05B4504DD4FF0000205F1010552
:1028500004E003DA4FF00002A5F10105002AECD0F4
:1028600002981199C0E90231C0E9004579E70000FA
:10287000000014400000F03F300000000000F04372
:102880000000E03F30380A2801D2012070470020C4
:10289000704700002DE9FF4F95B09A4688460646DE
:1028A0000025EEE1252877D100242746F94A0121A9
:1028B000039400E0044316F8013F203B01FA03F0C3
:1028C0001042F7D130782A2811D06FF02F033078DA
:1028D000A0F13002092A16D8039A44F0020402EB50
:1028E000820203EB42021044761C0390EFE758F893
:1028F000042B0392002A03DA504244F4005403905C
:1029000044F00204761C30782E2816D116F8010FF8
:1029100044F004042A280DD06FF02F023078A0F183
:102920003003092B09D807EB870302EB4303C718D1
:10293000761CF3E758F8047B761C30786C280FD0AF
:1029400006DC4C2817D068280DD06A2814D104E082
:10295000742810D07A280FD10DE044F400140AE056
:1029600044F4801401E044F440147278824202D1AD
:1029700004F58014761C761C307866280BD013DCA6
:10298000582877D009DC002875D04528F6D046288D
:10299000F4D047281AD193E118E0632835D0642891
:1029A00079D0652812D18BE1702873D008DC6728B4
:1029B000F1D069286FD06E280DD06F2806D1ACE019
:1029C00073282CD0752874D0782853D05246179984
:1029D00090476D1C54E1C4F30250022809D003282B
:1029E0000DD0D8F8001004280DD00D6008F10408AF
:1029F00046E1D8F80010EA17C1E90052F6E7D8F826
:102A000000100D80F2E70D70F0E718F8041B8DF848
:102A1000001000208DF80100EB46012003E058F87B
:102A200004BB4FF0FF3061074FF0000102D40DE00E
:102A300009F101018946B9420FDA8145F8DB1BF83B
:102A400009100029F4D108E009F101018946814209
:102A5000FADB1BF809100029F6D103985346A0EBC6
:102A6000090721463846179A00F080FA284400EBFF
:102A7000090507E044E008E10DE01BF8010B5246B0
:102A800017999047B9F10109F7D2534621463846C4
:102A9000179AF2E039E00A21C4F302524FF0000B1A
:102AA0000091022A06D058F8040BC117032A09D056
:102AB0000AE023E008F1070020F00702F2E8020133
:102AC000904605E000B2C117042A01D140B2C117F7
:102AD000002906DA0A460021404261EB02012D225C
:102AE00002E0220504D52B228DF80420012203E008
:102AF000E20701D02022F7E7914657E00A2100E0E3
:102B000010214FF0000B00910BE010214FF0000B53
:102B100044F004040827009103E008204FF0000B64
:102B20000090C4F30252022A05D058F8040B002189
:102B3000032A08D008E008F1070020F00702F2E8B5
:102B40000201904603E080B2042A00D1C0B24FF0E7
:102B5000000922072AD53278702A07D0DDF800C094
:102B60008CF0100C5CEA0B0C05D00EE040228DF8C6
:102B70000420012208E050EA010306D030238DF83A
:102B800004308DF8052002229146009B83F0080353
:102B900053EA0B030AD150EA010201D1620705D5BD
:102BA00030228DF804204FF001097F1E3278582A18
:102BB00004D039A20C920CAA02920BE03BA2F9E7D6
:102BC0005B46009AFDF7CDFC0C9B9B5C029A521E63
:102BD0000292137050EA0102F2D1029804A9081A75
:102BE00000F1200B600702D524F4803400E00127B7
:102BF0005F4502DDA7EB0B0000E0002000EB0B01BE
:102C0000009003984944401A0390E00306D45346C9
:102C10002146179A039800F0A9F90544002706E019
:102C200001A85246C05D179990476D1C7F1C4F4507
:102C3000F6DBE0030CD553462146179A039800F0C3
:102C400095F9054404E030205246179990476D1CD1
:102C50000099481E00900029F5DC08E002980299CE
:102C600052460078491C0291179990476D1CBBF1A0
:102C70000001ABF1010BF1DC5BE100F065F905440B
:102C8000761C307800287FF40DAE19B02846BDE8D8
:102C9000F08F0000092801003031323334353637E7
:102CA0003839616263646566000000003031323398
:102CB0003435363738394142434445460000000038
:102CC000600700D4062708F1070020F00700F0E8AD
:102CD0000223804603F0004C5FEA0C0001D097A06D
:102CE00009E0200501D596A005E0E00701D095A0F8
:102CF00001E0AFF24C001390307823F000436528D8
:102D00000CD006DC452809D046281DD047287FD1A5
:102D10003BE0662818D067287AD136E00021112FD1
:102D200001DB112000E0781CCDE9000104A90CA80A
:102D3000FFF7E6FCDDE90D010C9A4FF0000B07F1FF
:102D40000109109200914EE04FF000400097CDE94C
:102D5000011004A90CA8FFF7D3FCDDE90D020C9BC0
:102D60000F994FF0000B91461093009211B9791C06
:102D700000EB0109B7EB090003D4C0F1FF3B07F1F9
:102D80000109A9EB0700019042E0012F00DA0127B9
:102D90000021112F01DD112000E03846CDE90001AE
:102DA00004A90CA8FFF7ACFCDDE90D010C9A009119
:102DB0004FF0000BB946109221070FD4009A4A45F4
:102DC00003DA914601E0A9F10109B9F1010F05DD2E
:102DD000109AA9F10101515C3029F4D0B84202DA0D
:102DE00010F1040F03DA0121CDE9011010E00028F1
:102DF00003DC8344A9EB000102E0411C494500DDEE
:102E00008946A0EB0B00401C01904FF0004002905F
:102E1000200705D40198484502DB4FF0FF300190B0
:102E200000208DF84B0002980DF14B07B0F1004FD8
:102E300025D002200C902B200D90029800280CDA4F
:102E4000404202902D200D9007E00A210298FDF7E4
:102E500072FB3031029007F8011D0C99481E0C904E
:102E60000029F2DC02980028EFD1791E0D98087035
:102E7000307800F0200040F0450007F8020D11A85E
:102E8000C01BC01D02901398007800B1012000EB18
:102E90000901019801EBE071029801440398401A7E
:102EA000401E0390E00306D453462146179A039828
:102EB00000F05CF805441398007818B15246179951
:102EC00090476D1CE00323D553462146179A03987B
:102ED00000F04CF805441BE0BBF1000F07DB009845
:102EE000584504DD1098179910F80B0001E0179968
:102EF00030205246904701980BF1010B401E05F11E
:102F00000105019004D12E205246179990476D1C5F
:102F1000B9F10001A9F10109DEDC05E017F8010BA8
:102F20005246179990476D1C0299481E029000293D
:102F3000F4DC53462146179A03989EE62D000000C4
:102F40002B000000200000002DE9F0410446002580
:102F50001E461746880404D405E039462020B047B1
:102F60006D1C641EF9D52846BDE8F0812DE9F041BD
:102F7000044600251E469046C80301D5302700E0D0
:102F80002027880404D505E041463846B0476D1C2B
:102F9000641EF9D52846BDE8F0814A68002A06D0AB
:102FA0000A68531C0B6010704868401E48607047E8
:102FB00010B588B03048FEF785FC06A8FEF73FFC48
:102FC0004FF44060069002208DF81C0001208DF81F
:102FD0001E0000208DF81F0003208DF81D0006A99B
:102FE0002648FEF7BFFB04220A212448FEF702FC14
:102FF00004220B212148FEF7FDFB02A8FEF72CFD61
:103000004FF48060ADF812000001ADF814001C48C8
:1030100002904BF6FF70ADF80E000020ADF81000E6
:10302000ADF80C0002A91448FEF794FC01211248E7
:10303000FEF73BFC282000F0DFF900F030F810B17B
:10304000012008B010BD0FA000680190032101A865
:1030500000F018F908B90120F3E7002408E0012086
:1030600000F0CAF900F01BF808B10120E9E7641C80
:10307000642CF4D30020E4E7005800400004024030
:10308000A0860100BE08000008B5684600F0CAF836
:1030900008B9002008BD9DF80000C009FAE708B58E
:1030A000684600F0BFF808B9002008BD9DF8000090
:1030B000C0F3C000F9E700002DE9F04107460D46D6
:1030C00001212F48FEF7C6FB01212D48FEF72AFCFF
:1030D00000BF4FF47A7403E00A2000F08DF90A3C37
:1030E00028492748FEF7C2FB08B9002CF4D114B9CF
:1030F0000020BDE8F08100BF012270212048FEF7CA
:10310000A1FC00BF4FF47A7403E00A2000F074F9C8
:103110000A3C1C49491C1A48FEF7A8FB08B9002CB8
:10312000F3D10CB90020E4E700BF00241FE0681EC3
:10313000A04203D100211248FEF78CFB00BF4FF4E0
:103140007A7603E00A2000F057F90A3E0D493F3134
:103150000B48FEF78BFB08B9002EF3D10EB9002007
:10316000C7E700BF0648FEF769FC3855641CAC424F
:10317000DDD301210248FEF7E1FB0120B9E70000A1
:1031800000580040010003002DE9FC4106460F46AF
:1031900006216846FFF790FF10B90020BDE8FC81CA
:1031A0009DF8010000039DF8021040EA01109DF80F
:1031B000031040EA11149DF803000007000B9DF86E
:1031C000041040EA01209DF8051040EA010500EED8
:1031D000104AB8EE400ADFED0F0A20EE200ADFEDBC
:1031E0000E0A80EE201A87ED001A00EE105AB8EE93
:1031F000400ADFED0A0A20EE200A9FED071AC0EE12
:10320000010A9FED070A30EEC00A86ED000A012090
:10321000C4E700000000C8420000804900004843A5
:103220000000484238B504467120009001216846EC
:1032300000F028F808B9002038BD01212046FFF72A
:103240003BFF08B90020F7E70120F5E708B504A027
:10325000006800900321684600F014F808BD0000E3
:10326000AC33000010B5002408E0012000F0C4F8E1
:10327000FFF70AFF08B9012010BD641C642CF4D3C9
:103280000020F9E72DE9F04106460F4601212B48C1
:10329000FEF7E0FA01212948FEF744FB00BF4FF496
:1032A0007A7403E00A2000F0A7F80A3C2449234876
:1032B000FEF7DCFA08B9002CF4D114B90020BDE8FF
:1032C000F08100BF002270211C48FEF7BBFB00BF4D
:1032D0004FF47A7403E00A2000F08EF80A3C194992
:1032E0001648FEF7C3FA08B9002CF4D10CB9002037
:1032F000E5E700BF002418E0315D1048FEF7AAFBA7
:1033000000BF4FF47A7503E00A2000F075F80A3D1B
:103310000C49891E0948FEF7A9FA08B9002DF3D116
:103320000DB90020CBE700BF641CBC42E4D30121EF
:103330000248FEF703FB0120C1E7000000580040EF
:10334000010003008200070010B501F0B3FE02F097
:103350005DF800F0A1FC01F066FEFFF729FE0348CE
:1033600002F080F8024800F017FA10BD715400080E
:10337000A537000810B54FF44070FEF7BBFB0121E4
:103380000846FEF7DDFB01210220FEF7D9FB0121F3
:103390000820FEF7D5FB01211020FEF7D1FB01210B
:1033A0000846FEF7DDFB01211020FEF709FC012194
:1033B0004804FEF7E5FB01214805FEF7C1FB0121AA
:1033C0008805FEF7BDFB01210846FEF7D9FB012168
:1033D0008805FEF7D5FB0120FEF7AAFB0120FEF7CA
:1033E00093FC00BF4120FEF76FFC0028FAD04FF499
:1033F0008070FEF7A5FC10BD30B5074B1D685B68FB
:10340000291843F1000200BF034B1C685B68641A73
:103410009341F9D330BD000028000020FEB50446DA
:1034200000204FF4A073F0220146009000F00EFC43
:10343000134A2821084600F0DBFF00262046FCF74F
:10344000F7FE00EB4000C00045080E480088A84287
:1034500007DD0C490988491B481C00EBD071C1F3FA
:103460004F0600204FF6E0710122074BCDE9002105
:1034700002902246FA21304600F0E4FFFEBD000033
:103480008C8501088C0100209C840008F0B5A1B057
:1034900005460E46174605B116B9002021B0F0BD0D
:1034A0002B460BA2802101A80096FFF7D7F804460F
:1034B0003FB1C4F1800101AA10193B4609A2FFF7F0
:1034C000CDF842F2107101A800F020FAE6E7000002
:1034D00041542B43574A41503D222573222C22252B
:1034E000732200002C2225732200000000B58FB04B
:1034F0006846FEF779F81248FDF744FF00BF104810
:10350000FDF7ECFF0028FAD14FF0006000900D4865
:10351000019040200390002005904FF480600690B9
:1035200000200790089009904FF480300A90002006
:103530000B9069460248FEF72BF80FB000BD000063
:10354000A060024004440040004870479A010020F7
:1035500070B504464FF4FA6112A000F0D7F908B92B
:10356000002070BDFFF7F0FF0546214601F01AFC70
:1035700008B90020F5E794F8540080B14FF4FA61DF
:103580000BA000F0C3F908B90020EAE7FFF7DCFF61
:103590000546214601F0D2FB08B90020E1E70120F1
:1035A000DFE7000041542B435753544154453F003B
:1035B00041542B43574A41503F0000001CB5684618
:1035C000FEF73DF90C20009002208DF80400032046
:1035D0008DF8050001208DF8070069460648FEF7C2
:1035E000C1F8072202210448FEF704F9072203214B
:1035F0000148FEF7FFF81CBD0000024030B5C1B025
:10360000044623460AA24FF4807101A8FFF726F86A
:1036100041F6583101A800F079F9054635B164202A
:10362000FFF7EAFEFFF790FF41B030BD0020FBE757
:1036300041542B48545450434C49454E543D322C30
:10364000312C222573222C2C2C32000010B500F0D6
:1036500025F840F6B83000F023F908B9002010BD75
:103660004FF4FA6107A000F051F908B90020F6E71D
:103670004FF4FA6105A000F049F908B90020EEE71F
:103680000120ECE741542B525354000041542B537A
:10369000595353544F52453D3000000010B5FFF7C9
:1036A0008DFFFFF723FF00F0B3F800F001F810BD25
:1036B00038B50020009026208DF8000001208DF8FC
:1036C000010000208DF8020001208DF803006846FB
:1036D000FEF7D4F926200521002807DA0A07140E80
:1036E000054A00F00F031B1FD45403E00A07130E12
:1036F000024A135400BF38BD18ED00E000E400E0BA
:1037000070B504461D480068FF280AD21B480168AE
:103710000068401C194A106019484454002112687E
:1037200081541848006840F2FF3188420BD2154896
:1037300001680068401C134A10601348445400207C
:103740001149126888541148006818B120460F4981
:10375000096888470A2C0FD1094801F0F3F905469A
:1037600025B10B48057001200A4908700020034963
:1037700008600349087000BF70BD00003C000020D5
:103780009A050020380000209A0100203400002013
:1037900041000020400000200149086070470000FF
:1037A0003400002010B50446204601F067FE10BD2D
:1037B00070B504464FF4FA6108A000F0A7F808B904
:1037C000002070BDFFF7C0FE0546214601F06CFAEF
:1037D00008B90020F5E70120F3E7000041542B432E
:1037E0004950534E545054494D453F0010B54FF485
:1037F000FA6102A000F08AF810BD000041542B438A
:103800004950534E54504346473D312C3800000038
:103810001FB56846FEF703FF4FF4E130009000202B
:10382000ADF80400ADF80600ADF808000C20ADF8C6
:103830000A000020ADF80C0069460948FEF77CFE3E
:10384000012280210648FEF711FE012240F2255197
:103850000348FEF74BFE01210148FEF7FBFD1FBDAB
:103860000044004070B504462046FCF7E1FC0546E4
:1038700005B970BD084804600748AC38C0F8A450CA
:10388000064905480C38FDF73DFD012102480C387A
:10389000FDF76CFD00BFECE7AC60024000002020AB
:1038A00070B5044600250AE0642108A000F02EF857
:1038B00008B1012070BD6420FFF79EFD6D1C6420DF
:1038C000B4FBF0F0A842EFD80020F3E74154000029
:1038D00010B54FF4FA6102A000F018F810BD000016
:1038E00041542B43574D4F44453D310010B50446DC
:1038F00000BF80210448FEF7C2FD0028F9D0214610
:103900000148FEF788FE10BD004400402DE9F0415B
:1039100005460E46002020490870204908602049CD
:1039200008702B461FA24FF400712048FEF796FE48
:103930000746002F02DC0020BDE8F0811B48FFF79E
:1039400091FF002423E01A480078E0B11448007881
:10395000012803D012480078042801D10120EBE7A8
:103960000F480078022801D10020E5E70C480078D4
:10397000032808D100200E4908703220FFF73CFDD3
:103980000A48FFF76FFF0520FFF736FD641DB442BC
:10399000D9D30020D0E700009A0100203800002091
:1039A0004100002025730D0A000000009A06002047
:1039B0004000002038B504460D46E0B2009068464D
:1039C00001F06CFD204638BD10B5034611B94FF02B
:1039D000FF3010BD486870B1002006E04C68245CE0
:1039E0009C4200D1F5E7441CE0B28C7B8442F5DCBC
:1039F0004FF0FF30EDE7A3F12002002A02DB887BC5
:103A0000904202DC4FF0FF30E3E71046E1E70000B0
:103A100000B52DED048B85B03148006818B105B0B4
:103A2000BDEC048B00BD41F288302D490860FFF7E2
:103A30000DFC18B92BA0FEF701FEF0E7FFF712FC12
:103A400018B931A0FEF7FAFDE9E79FED390A8DEDCF
:103A5000040A9FED370A8DED030A03A904A8FFF7B6
:103A600093FB18B933A0FEF7E9FDD8E73A4890ED8B
:103A7000000ADDED040AB4EE600AF1EE10FA0AD095
:103A8000364890ED000ADDED030AB4EE600AF1EE6F
:103A900010FA00D1C3E79DED040A2F4880ED000A1B
:103AA0009DED030A2D4880ED000A0398FCF714FDF4
:103AB00041EC190B0498FCF70FFD41EC180B8DED50
:103AC000009B53EC182B26A0FEF7B8FD9DED040AD1
:103AD00000F0ACFE9DED030A00F054FE00BF9EE72F
:103AE0000C0000205B41485432305D2073746172D9
:103AF00074206D6561737572656D656E74206661A5
:103B0000696C65640A0000005B41485432305D20F6
:103B10007761697420666F72206D65617375726577
:103B20006D656E74206661696C65640A0000000052
:103B3000000000005B41485432305D2072656164D2
:103B4000206D6561737572656D656E74206661695F
:103B50006C65640A000000001C00002020000020AA
:103B60005B41485432305D2054656D7065726174FC
:103B70007572653A20252E31662C2048756D696472
:103B80006974793A20252E31660A000070B5044622
:103B9000002609480588408845430021084600F072
:103BA0000FFB00F0C3FC00BF02E004480480761C59
:103BB000AE42FAD370BD00008C0100200000086006
:103BC00010B5044644B900200D498871F0200880E2
:103BD0004FF4A070488007E00120094988714FF434
:103BE000A0700880F02048802C20054908812A20F8
:103BF00048812B208881002000F0B6FA10BD00001B
:103C00008C01002070B504460D4616460D494889C2
:103C100000F096FC201200F07DFCE0B200F07AFC8F
:103C20000849888900F08CFC281200F073FCE8B287
:103C300000F070FC0348008903490880881C068056
:103C400070BD00008C010020FEFF07602DE9F047E9
:103C500081460C4616461F46DDF820A0254613E097
:103C60002946484600F0ACFA00F060FC4FF000082E
:103C700006E00848A0F800A008F101001FFA80F84B
:103C8000B045F6DB681C85B23819A842E8DCBDE80F
:103C9000F08700000000086000B5A1B0002020906F
:103CA00002201E9001208DF87C0000208DF87E00FF
:103CB00002208DF87D0001208DF87F001EA9FE48AE
:103CC000FDF750FD4EF2B3701E9002208DF87C007F
:103CD00000208DF87E0003208DF87D0001208DF8F6
:103CE0007F001EA9F548FDF73DFD4FF680701E9040
:103CF00002208DF87C0000208DF87E0003208DF8D6
:103D00007D0001208DF87F001EA9ED48FDF72AFDFA
:103D10000C220021E948FDF76DFD0C220121E74846
:103D2000FDF768FD0C220421E448FDF763FD0C2239
:103D30000521E248FDF75EFD0C220721DF48FDF773
:103D400059FD0C220821DD48FDF754FD0C22092104
:103D5000DA48FDF74FFD0C220A21D848FDF74AFD4D
:103D60000C220D21D548FDF745FD0C220E21D3482C
:103D7000FDF740FD0C220F21D048FDF73BFD0C2242
:103D80000721CF48FDF736FD0C220821CC48FDF76E
:103D900031FD0C220921CA48FDF72CFD0C220A2115
:103DA000C748FDF727FD0C220B21C548FDF722FD72
:103DB0000C221146C248FDF71DFD0C220D21C04802
:103DC000FDF718FD0C220E21BD48FDF713FD0C2256
:103DD0000F21BB48FDF70EFD0F2008900020099031
:103DE0003C200A9000200B900C900D900E90022029
:103DF0000190002002900320039000200490059081
:103E0000069007900F9010901190102012900020B3
:103E1000139015901490169017904FF480501890AE
:103E2000002019904FF480401A9000201B9008A8A1
:103E30001C9001A81D900FA8FDF702FC0121002095
:103E4000FDF7E4FB3220FFF7D7FA0121002000F054
:103E500083FB3220FFF7D0FA00209A498880D320D4
:103E600000F06EFB00F076F900F074F900F072F9E2
:103E700094498880084680884FF6FF7101EA002047
:103E80009049888000F066F98E49898808438D49F9
:103E900088800846808849F2413188421DD18A488D
:103EA000006820F00F004FF02041C1F81C010846C7
:103EB000D0F81C0120F47060C1F81C010846D0F84D
:103EC0001C0140F00300C1F81C010846D0F81C0199
:103ED00040F40070C1F81C0103E04FF6FF7079490F
:103EE00088807848808849F2413188427ED1CF204D
:103EF00000F026FB002000F00DFB2098401C2090D5
:103F0000C12000F007FB302000F004FBED2000F0A2
:103F100017FB642000F0FEFA032000F0FBFA1220E9
:103F200000F0F8FA812000F0F5FAE82000F008FB34
:103F3000852000F0EFFA102000F0ECFA7A2000F073
:103F4000E9FACB2000F0FCFA392000F0E3FA2C204B
:103F500000F0E0FA002000F0DDFA342000F0DAFA98
:103F6000022000F0D7FAF72000F0EAFA202000F053
:103F7000D1FAEA2000F0E4FA002000F0CBFA0020A9
:103F800000F0C8FAC02000F0DBFA1B2000F0C2FAF3
:103F9000C12000F0D5FA012000F0BCFAC52000F0E5
:103FA000CFFA302000F0B6FA302000F0B3FAC72084
:103FB00000F0C6FAB72000F0ADFA362000F0C0FAE3
:103FC000482000F0A7FA3A2000F0BAFA552000F095
:103FD000A1FAB12000F0B4FA002000F09BFA1A20F8
:103FE00000F098FAB62000F0ABFA00E0A3E00A2057
:103FF00000F090FAA22000F08DFAF22000F0A0FA72
:10400000002000F087FA262000F09AFA012000F044
:1040100081FAE02000F094FA0F2000F07BFA2A20C9
:1040200000F078FA282000F075FA082000F072FA03
:104030000E2000F06FFA082000F06CFA542000F017
:1040400069FAA92000F066FA432000F063FA0A201A
:1040500000F060FA0F2000F05DFA002000F05AFA3C
:10406000002000F057FA002000F054FA002000F081
:1040700051FAE12000F064FA002000F04BFA15201C
:1040800000F048FA172000F045FA072000F042FA45
:10409000112000F03FFA062000F03CFA2B2000F03F
:1040A00039FA562000F036FA3C2000F033FA0520A9
:1040B00000F030FA102009E000040240000C024039
:1040C000001002408C0100201C0100A000F022FA28
:1040D0000F2000F01FFA3F2000F01CFA3F2000F0F4
:1040E00019FA0F2000F016FA2B2000F029FA002010
:1040F00000F010FA002000F00DFA012000F00AFA9A
:104100003F2000F007FA2A2000F01AFA002000F001
:1041100001FA002000F0FEF9002000F0FBF9EF208A
:1041200000F0F8F9112000F00BFA7820FFF764F99D
:10413000292000F005FA0020FFF742FD0221044883
:10414000FDF77BFB4FF6FF70FFF720FD21B000BDB0
:104150000004024008B5034800880090BDF8000044
:1041600008BD00000000086070B505460024002668
:10417000082D1CD2DFE805F00406090C0F121518F3
:1041800000BF14E044F0800411E044F040040EE06D
:1041900044F0C0040BE044F0200408E044F0600464
:1041A00005E044F0A00402E044F0E00400BF00BFDA
:1041B00044F0080436262146304600F0CDF970BDA3
:1041C00070B504460D460A49488900F0B9F9201235
:1041D00000F0A0F9E0B200F09DF90549888900F0EF
:1041E000AFF9281200F096F9E8B200F093F970BD2B
:1041F0008C0100202DE9FF4F83B00E461D460DB106
:10420000286810B907B0BDE8F08F29460598FFF778
:10421000DBFB0746002F00DAF4E7AC89B046204606
:10422000E31704EB5373DB1021464FEAE47C04EB05
:104230005C7C4FEAEC0CA4EBCC0CBCF1000F02D080
:104240004FF0010C01E04FF0000C6344224604EBF8
:10425000D27C4FEA6C0C03FB0CF31FFA83F928683D
:1042600007FB090A4FF0000B32E01AF80B0002902E
:104270000020019024E0029800F0800028B131462F
:10428000119A0398FFF7BEFC06E0109820B931465A
:10429000129A0398FFF7B6FC02984006000E0290AF
:1042A000701C86B2A6EB0800A04205D146460398D2
:1042B000401C80B2039006E00198401CC0B20190FF
:1042C00001980828D7DB00BF0BF101001FFA80FB23
:1042D000CB45CADB00BF95E72DE9F04F87B081469B
:1042E0008A4693461D4625B1A86810B1BBF1000F60
:1042F00002D107B0BDE8F08FAC68CDF81890CDF8CA
:1043000014A0AE89F01DC11700EB5171CF1007FB4F
:1043100006F080B2049061E0206800789BF80010FD
:1043200088425AD1206840789BF80110884254D1C5
:1043300060680390002002904BE04FF0000837E0E7
:10434000029800FB07810398405C019000200090D8
:1043500026E0009800EBC800B04200DB23E080219B
:10436000009841FA00F00199084028B151464846AA
:10437000119AFFF747FC06E0109820B951464846CD
:10438000129AFFF73FFC09F101001FFA80F9174864
:104390000088484500DCACE70098401CC0B20090A3
:1043A00000980828D5DB00BF08F101001FFA80F84B
:1043B000B845C5DB0AF101001FFA80FADDF8189054
:1043C0000A484088504500DC93E70298401C80B2C0
:1043D00002900298B042B0DB8BE70834206810B13D
:1043E0006068002898D100BF83E700008C0100209E
:1043F0002DE9F0478046894614460CB1606808B93B
:10440000BDE8F0876568002616E000270FE02878F1
:10441000697840EA012A09EB060291B208EB07022B
:1044200090B25246FFF7EEFBAD1C781C87B2208895
:10443000B842ECDC701C86B26088B042E5DC00BF9C
:10444000DEE700002DE9FF5F0746894614469A46DD
:10445000BAF1000F00D00CB9BDE8FF9F0397BAF87E
:104460000C6000254EE0605D00F0800008B1022085
:1044700000E001208046B8F1020F03D1681C205CE7
:1044800000B942E0B8F1010F04D1304600EBD07121
:10449000491000E031461FFA81FB07EB0B001C4975
:1044A0000988884204DD039F09EB06001FFA80F9A2
:1044B00009EB060016494988884200DD25E0B8F17D
:1044C000010F0CD1DDE90E121098CDE90012029017
:1044D000625D534649463846FFF78CFE0BE0DDE946
:1044E0000E121098CDE90012029062195346494607
:1044F0003846FFF7F1FE07EB0B0087B205EB08002B
:1045000085B200BF605D0028ADD100BF00BFA3E74A
:104510008C01002001B5BDF800000090BDF800003E
:104520000149088008BD00000000086002480089B9
:1045300002490880704700008C010020FEFF0760E0
:1045400001B5BDF800000090BDF8000001490880E9
:1045500008BD0000FEFF076003B5BDF80000034979
:104560000880BDF80400891C08800CBDFEFF0760B0
:10457000FEF700FFFEF7E8FE01F000F801F04CF84E
:1045800001F006F901F0B4F900F012F800F018F8A3
:1045900001E000F001F8FCE710B500F0F9FD01F0D2
:1045A00053F900F093FEFFF733FA00F005FB10BD5E
:1045B00010B5024800F0E6FD10BD00001D510008D6
:1045C0003EB500204FF4A073F02201460090FFF7A3
:1045D0003DFB00BF4FF6FF708B23D1220F210090CF
:1045E0000846FFF733FB264A14211720FFF700FF88
:1045F00024A000F07FFA274800F0D8FC254800F0FE
:104600004DFA244800F056F800BF00BF4FF4826016
:104610008B236322A52100900F20FFF717FB4FF695
:10462000FF70002101221C4BCDE9002102901BA24A
:10463000AA211920FFF706FF9FED1B0A00F0F6F8EC
:104640009FED190A00F09EF800BF00BF4B228721A2
:10465000FD20FDF793FB04468B236322A5210090E8
:104660007D20FFF7F3FA11A000F03AF99FED0E0A52
:1046700000F052F94FF0FF3000F0ACF900BF3EBD42
:10468000041604085265646D69204B363020507260
:104690006F00000068000020CC930008CAD2C4DA82
:1046A000BBB7BEB30000000000B43446D5BFBDADFB
:1046B0000000000010B588B004464FF6FF701423C8
:1046C0001A46792100902320FFF7C0FAE0790128EB
:1046D00001D11DA21EE0E079022801D11BA219E040
:1046E000E079032801D11AA214E0E079042801D16D
:1046F00018A20FE0E079052801D117A20AE0E079BD
:10470000062801D115A205E0E079072801D114A2FD
:1047100000E014A2E078A178CDE90102009123889D
:1047200011A2122103A8FDF799FF4FF6FF70002197
:104730000122134BCDE90021029003AA7921232005
:10474000FFF780FE08B010BDD2BB0000B6FE00002F
:10475000C8FD0000CBC40000CEE50000C1F9000098
:10476000C8D5000058000000253034752F253032A0
:10477000752F2530327520D0C7C6DA2573000000AA
:10478000CC93000800B52DED048B85B0B0EE408AC7
:104790004FF482603E235222EF2100901C20FFF74D
:1047A00055FAB5EEC08AF1EE10FA13DD9FED190A45
:1047B000B4EEC08AF1EE10FA0CD818EE100AFBF72E
:1047C0008BFE41EC190B8DED009B13A2032104A875
:1047D000FDF744FF4FF4826000210122104BCDE928
:1047E0000021029004AAEF211C20FFF72BFE4FF6B8
:1047F000FF70002101220B4BCDE9002102900AA29B
:104800004FF483715B20FFF71DFE05B0BDEC048BF8
:1048100000BD0000E1FAC74225322E3066000000DC
:1048200020AA0008307700082500000000B52DED13
:10483000048B85B0B0EE408A4FF482603623462266
:10484000C32100901E20FFF701FA1E480068049063
:10485000BAEE040AB4EEC08AF1EE10FA13DD9FED51
:104860001A0AB4EEC08AF1EE10FA0CD818EE100A4B
:10487000FBF732FE41EC190B8DED009B13A20321D7
:1048800004A8FDF7EBFE4FF4826000210122114BDA
:10489000CDE90021029004AAC3211E20FFF7D2FD1A
:1048A0004FF6FF70002101220B4BCDE90021029051
:1048B0000AA2D5215620FFF7C5FD05B0BDEC048B3B
:1048C00000BD0000646903080000C84225322E3094
:1048D00066000000789D000830770008A1E600001F
:1048E00010B586B00446234609A2092103A8FDF7A6
:1048F000B5FE4FF6FF7000210122064BCDE90021E5
:10490000029003AAAA217F20FFF79CFD06B010BDEC
:1049100025730000CC93000810B52DED048B84B0F6
:10492000B0EE408A4B228721FD20FDF727FA04468E
:1049300036231A46BA2100908720FFF787F91E48D0
:1049400000680390BAEE040AB4EEC08AF1EE10FAE1
:1049500013DD9FED1A0AB4EEC08AF1EE10FA0CD8FE
:1049600018EE100AFBF7B8FD41EC190B8DED009B1A
:1049700013A2032103A8FDF771FE4FF6FF7000217B
:104980000122114BCDE90021029003AABA21872010
:10499000FFF758FD4FF6FF70002101220B4BCDE9C8
:1049A000002102900AA2CA21C020FFF74BFD04B0EB
:1049B000BDEC048B10BD0000686903080000C8420C
:1049C00025322E3066000000789D00083077000800
:1049D000A1E6000070B50446274AEF218520FFF7C5
:1049E00007FD00251CB1022C01D0262C01D1234D3E
:1049F0003CE0012C01D0032C01D1214D36E0042CE8
:104A000001D0092C01D11F4D30E0052C05D0062C1A
:104A100003D0072C01D0082C01D11B4D26E00A2C15
:104A20000DD00D2C0BD00E2C09D00F2C07D0102C34
:104A300005D0112C03D0122C01D0132C01D1134D11
:104A400014E00B2C01D00C2C01D1114D0EE0142CD4
:104A500009D0152C07D0162C05D0172C03D0182CF4
:104A600001D0192C01D10B4D00E00B4D2A46F0214D
:104A7000A020FFF7BDFC70BD7C11040814090408D8
:104A8000D4AD0308D42C04083480030874DB030875
:104A90000497030844F20308A4C4030810B586B0C1
:104AA00004464FF6FF704C23BE222A2100901920A5
:104AB000FFF7CCF86079009023790AA2062104A8B8
:104AC000FDF7CCFD4FF6FF7000210122084BCDE928
:104AD0000021029004AA2A211920FFF7B3FC06B096
:104AE00010BD0000253032753A25303275000000C7
:104AF0007CBD000810B588B004464FF6FF70142343
:104B00009622172100903220FFF7A0F823460AA230
:104B10000F2104A8FDF7A2FD4FF6FF704FF4FC61D2
:104B20000122074BCDE90021029004AA172132206F
:104B3000FFF788FC08B010BD253134730000000079
:104B4000CC93000870B50546002411E00A4800EB3C
:104B5000C400406858B1084800EBC40041682846CA
:104B6000FBF754FB18B1044810F8340070BD641C06
:104B7000042CEBD30020F9E73C5A000830B58DB087
:104B8000054630220B4901A8FBF71CFB00240CE072
:104B900001A850F824102846FBF751FB18B9601CF7
:104BA000C0B20DB030BD601CC4B20C2CF0D30020DC
:104BB000F7E700005C5A000830B52DED028BB1B06C
:104BC0002448006818B131B0BDEC028B30BD41F211
:104BD000883020490860B82103A8FBF70CFB1E4D64
:104BE0002846FEF70BFD04461CB91CA0FDF726FD68
:104BF000E9E703A9204600F007F918B91DA0FDF761
:104C00001DFDE0E7B82203A92048FBF726FB00B909
:104C1000D9E7B82203A91D48FBF7D4FA9DED300A65
:104C200010EE101A0846FBF757FC41EC180B8DEDFF
:104C3000008B2BAA03A916A0FDF700FDDDED300ABD
:104C4000B0EE600AFFF768FE2F98FFF7C3FE00BFC3
:104C5000B9E70000100000201C2D04085B574541F7
:104C6000544845525D2068747470206572726F728A
:104C70000A0000005B574541544845525D20706171
:104C8000727365206661696C65640A00D400002057
:104C90005B574541544845525D2025732C202573B0
:104CA0002C20252E31660A0030B589B005460C4609
:104CB00012A12846FBF7AAFA054615B9002009B04B
:104CC00030BDA01D611D221DCDE90304CDE90121E8
:104CD000E01C06AB07AA0DA100902846FBF7CAFA14
:104CE000072801D00020EAE706A8FFF747FFA070D9
:104CF00007A800F027FCE0710120E0E72B434950B2
:104D0000534E545054494D453A0000002B434950EE
:104D1000534E545054494D453A253373202533732F
:104D2000202568687520256868753A256868753A91
:104D30002568687520256875000000007CB505466B
:104D40000C460DA12846FBF761FA05460DB9002077
:104D50007CBD04F15300411E04F140032246CDE91D
:104D6000001007A12846FBF785FA042801D000208F
:104D7000EEE70120ECE700002B43574A41503A0090
:104D80002B43574A41503A222536335B5E225D223F
:104D90002C222531375B5E225D222C25642C256474
:104DA0000000000038B505460C460EA12846FBF76A
:104DB0002DFA05460DB9002038BD23466A460CA1E0
:104DC0002846FBF757FA022801D00020F4E70098A4
:104DD000022801D1012000E0002084F854000120C5
:104DE000EAE700002B435753544154453A00000072
:104DF0002B435753544154453A25642C22253633CE
:104E00005B5E225D000000002DE9F34F2DED028B6B
:104E100085B00C4639A10798FBF7F8F90790079879
:104E200028B9002005B0BDEC028BBDE8FC8F36A18F
:104E30000798FBF7EBF905460DB90020F2E735A11D
:104E40002846FBF7E3F9064626B1224633A1304651
:104E5000FBF710FA36A12846FBF7D8F907462FB121
:104E600004F1200234A13846FBF704FA37A1079871
:104E7000FBF7CCF98046B8F1000F01D10020D1E753
:104E800034A14046FBF7C2F98146B9F1000F05D0C5
:104E900004F1A00231A14846FBF7ECF934A14046E9
:104EA000FBF7B4F98246BAF1000F05D004F1B00265
:104EB00031A15046FBF7DEF90020019002900390EB
:104EC000049030A14046FBF7A1F98346BBF1000FE7
:104ED00011D001AA2FA15846FBF7CCF901A8FDF784
:104EE000D7FBB0EE408AF0EE608A51EC180BFBF76E
:104EF00006FBC4F8B400012094E700002272657339
:104F0000756C7473223A0000226C6F636174696F70
:104F10006E223A00226E616D65223A00226E616D4A
:104F200065223A222533315B5E225D2200000000BB
:104F30002270617468223A002270617468223A22F9
:104F4000253132375B5E225D22000000226E6F77D2
:104F5000223A00002274657874223A00227465783F
:104F600074223A222531355B5E225D22000000006A
:104F700022636F6465223A0022636F6465223A22DD
:104F8000256422002274656D7065726174757265A6
:104F9000223A00002274656D7065726174757265E5
:104FA000223A222531355B5E225D22001FB5044680
:104FB00000BF02A800F00FF8684600F00CF80822C5
:104FC000694602A8FBF749F90028F2D1029820604F
:104FD000039860601FBD1CB5044601A8FCF7F3FEF2
:104FE0006846FDF77CF801A90020FCF725FF69461B
:104FF0000020FCF747FF9DF8070000F5FA602080CD
:105000009DF80500A0709DF80600E0709DF8040072
:10501000E0719DF8000020719DF8010060719DF81D
:105020000200A0711CBD0EB50120FCF783FEFDF748
:105030005DF86846FDF74CF86846FCF74BFF0EBD7F
:105040001CB5044600BF204600F00BF86846FFF789
:10505000C2FF082269462046FBF7FFF80028F2D17C
:105060001CBD1CB5044601A8FCF7ADFE6846FDF763
:1050700036F82078A0F5FA60C0B28DF80700A07865
:105080008DF80500E0788DF80600E0798DF80400D1
:1050900020798DF8000060798DF80100A0798DF8F5
:1050A000020001A90020FCF747FF69460020FCF739
:1050B000A7FF1CBD1FB540F2E730029015480068FD
:1050C0001549B0FBF1F0401E80B2ADF8040000209D
:1050D000ADF80C00ADF8060001A94FF08040FDF7D7
:1050E0002BF9012211469007FDF71CF91C208DF8C1
:1050F000000000208DF801008DF8020001208DF8DD
:1051000003006846FCF7BAFC01218807FDF7EDF8BB
:105110001FBD00004400002040420F0014480068FA
:1051200020B113480068401E11490860114800680A
:1051300020B110480068401E0E4908600E48006803
:1051400020B10D480068401E0B4908600B480068FC
:1051500020B10A480068401E0849086008480068F5
:1051600020B107480068401E0549086070470000EC
:105170000000002004000020080000200C00002097
:105180001000002001490860704700003000002036
:1051900000B589B03048006808B109B000BD4EF6CE
:1051A00060202D49086000200790089007A8FEF7AE
:1051B000FFFA38B929A0FDF741FA41F288302649B3
:1051C0000860EAE7BDF81C00B0F5FA6F07DA29A01D
:1051D000FDF734FA41F288301F490860DDE79DF899
:1051E00023009DF822109DF821209DF82030CDE964
:1051F0000032CDE902109DF81F309DF81E20BDF849
:105200001C1024A0FDF71AFA002005900690BDF8A6
:105210001C00ADF814009DF81E008DF816009DF8D6
:105220001F008DF817009DF820008DF818009DF8DC
:1052300021008DF819009DF822008DF81A009DF8C4
:1052400023008DF81B0005A8FFF7FAFE0A201E496F
:10525000086000BFA1E70000000000205B534E542F
:10526000505D206765742074696D65206661696CA6
:1052700065640A005B534E54505D20696E76616C24
:105280006964206461746520666F726D6174650A7B
:10529000000000005B534E54505D2073796E632014
:1052A00074696D653A2534752D253032752D25309C
:1052B000327520253032753A253032753A25303234
:1052C0007520282564290A00080000201CB5214803
:1052D000006800B11CBD4FF47A701E490860684632
:1052E000FFF764FE1C4800799DF8041088420BD13A
:1052F000194840799DF80510884205D116488079F3
:105300009DF80610884202D06846FFF7C7FB124896
:105310000088BDF80010884211D10F4880789DF8B0
:10532000021088420BD10C48C0789DF803108842C7
:1053300005D10948C0799DF80710884202D0684617
:10534000FFF7B8F90448009901600199416000BF76
:10535000C0E70000080000201400002000B58FB056
:105360006846FCF741F91648FCF70CF800BF1448F2
:10537000FCF7B4F80028FAD14FF000600090114813
:10538000019040200390002005904FF4806006902B
:1053900000200790089009900A900B90012210219C
:1053A0000748FCF7D7F869460548FCF7F1F80122F1
:1053B00080210448001FFDF759F80FB000BD000020
:1053C000B8640240041001401CB56846FCF737FA87
:1053D0004FF4C060009002208DF8040001208DF889
:1053E000070003208DF8050069460748FCF7BAF965
:1053F000072209210448FCF7FDF907220A21024887
:10540000FCF7F8F91CBD00000000024010B5FFF7E2
:10541000DBFFFFF7A3FF00F06FF800F001F810BD0D
:1054200008B50020009025208DF8000001208DF89F
:10543000010000208DF8020001208DF8030068466D
:10544000FCF71CFB05212520FCF75EFB46208DF8B0
:1054500000006846FCF712FB05214620FCF754FBD0
:1054600008BD0000014908607047000024000020CA
:1054700010B504462046FEF739FA10BD10B50446B3
:1054800000BF80210448FCF7FAFF0028F9D021462C
:105490000148FDF7C0F810BD0010014070B504468A
:1054A0002046FAF7C5FE054605B970BD0021104833
:1054B000FBF75CFF00BF0E48FCF710F80028FAD19C
:1054C0000B480C3004600A48001D05600121001FD4
:1054D000FBF74CFF00BF40210648FCF7D0FF002837
:1054E000F9D040210348FCF79DFF00BFDDE7000035
:1054F000B8640240001001401FB56846FDF78FF800
:105500004FF4E13000900020ADF80400ADF8060043
:10551000ADF808000C20ADF80A000020ADF80C0032
:1055200069460748FDF708F8012240F22551044872
:10553000FCF7DCFF01210248FCF78CFF1FBD0000D7
:105540000010014030B587B005461C220A49684664
:10555000FAF738FE00240BE05DF824102846FAF72D
:105560006EFE18B9601CC0B207B030BD601CC4B27A
:10557000072CF1D30020F7E78C5A00080EB540F253
:10558000FF704FF4A073F022002100900846FEF750
:105590005DFB164A1E210846FEF72AFF00204FF445
:1055A000FC610122124BCDE90021029011A2D82109
:1055B0003420FEF747FF00204FF6E07101220C4B2C
:1055C000CDE9002102900EA2F4213420FEF73AFF2B
:1055D00000201F210122064BCDE9002102900BA2E1
:1055E0004FF488712B20FEF72DFF0EBDB482020808
:1055F0003077000845737472656C6C6100000000C0
:10560000C1ACBDD3D6D02E2E2E0000004C6F6164ED
:10561000696E672E2E2E000010B51BA21DA120A0C2
:10562000FDF70CF8FEF712F818B924A0FDF706F8FC
:1056300024E027A0FDF702F8FEF74AF918B928A0E0
:10564000FCF7FCFF1AE02CA0FCF7F8FF00222EA1CB
:1056500030A0FDF71BFF18B932A0FCF7EFFF0DE0FB
:1056600036A0FCF7EBFFFEF7C1F818B939A0FCF73C
:10567000E5FF03E03DA0FCF7E1FF10BD3FA0FDF713
:10568000CDFE00BFFEE7000032313A30383A343503
:10569000000000004F637420333020323032350078
:1056A0005B5359535D204275696C64204461746595
:1056B0003A2025732025730A000000005B41545DE9
:1056C00020696E6974206661696C6564210A000056
:1056D0005B41545D20696E69746564210A000000B5
:1056E0005B574946495D20696E6974206661696C43
:1056F0006564210A000000005B574946495D206946
:105700006E69746564210A003132333435363738B6
:10571000000000005265646D69204B3630205072E5
:105720006F0000005B574946495D20636F6E6E65F0
:105730006374206661696C6564210A005B574946A1
:10574000495D20636F6E6E656374696E672E2E2EE1
:105750000A0000005B534E54505D20696E6974204E
:105760006661696C6564210A000000005B534E5459
:10577000505D20696E69746564210A005769466945
:1057800020496E6974204661696C65640000000000
:105790003EB5002523480068FAF74AFD0401224877
:1057A0000088A04207DD20490988091B481C00EB3E
:1057B000D071C1F34F0500204FF4A073F0220146D1
:1057C0000090FEF743FA194A19211E20FEF710FE39
:1057D00000204FF4FC610122154BCDE9002102901D
:1057E00014A2C8215820FEF72DFE00204FF6FF71AD
:1057F00001220F4BCDE9002102900A48F0210268F6
:105800002846FEF71FFE00204FF6E0710122084BEC
:10581000CDE90021029009A24FF48C714820FEF7D7
:1058200011FE3EBD700000208C0100205C69030861
:10583000307700085769466900000000C1ACBDD34D
:10584000D6D02E2E2E00000000B597B01C48006860
:1058500008B117B000BD41F28830194908605821DD
:1058600001A8FAF7C8FC01A8FDF772FE50B915A00F
:10587000FCF7E4FE1AA0FFF73DF900201B4981F870
:105880005400E6E79DF8580080B1184890F854009D
:105890009DF85810884205D15522144901A8FAF7FD
:1058A000DCFC30B101A8FFF725F902E00CA0FFF7FE
:1058B00021F9552201A90D48FAF784FC00BFC8E779
:1058C000040000205B41545D207769666920696EA1
:1058D000666F20676574206661696C65640A000004
:1058E00077696669206C6F73740000007C0000208B
:1058F00010B598B01FA0FCF7A1FE002223A126A09E
:10590000FDF7C4FD002429E06420FDF775FD582152
:1059100002A8FAF770FC02A8FDF71AFE88B19DF8FC
:105920005C0070B120A0FCF789FE9DF85B00009040
:105930009DF85A3012AA02A920A0FCF77FFE18B0E9
:1059400010BD4FF47A70B4FBF0F100FB114018B9B0
:1059500027A0FCF773FE00E000BF643442F2107031
:105960008442D1D329A0FCF769FE2EA0FDF756FD95
:1059700000BFFEE75B574946495D20636F6E6E6569
:105980006374696E672E2E2E0A00000031323334A4
:1059900035363738000000005265646D69204B369B
:1059A000302050726F0000005B574946495D20630C
:1059B0006F6E6E65637465640A0000005B5749464C
:1059C000495D20535349443A2025732C20425353B8
:1059D00049443A2025732C204368616E6E656C3A09
:1059E0002025642C20525353493A2025640A000094
:1059F0005B41545D207769666920696E666F206738
:105A00006574206661696C65640A00005B574946ED
:105A1000495D20636F6E6E6563742074696D656F98
:105A200075740A005769466920436F6E6E6563742A
:105A30002054696D656F757400000000010000005E
:105A4000942D0408020000009C2D040803000000AF
:105A5000882D040804000000A42D0408C82D0408A3
:105A6000AC2D0408DC2D0408E02D0408F42D0408F6
:105A7000D02D0408C42D0408BC2D0408D82D04081A
:105A8000E82D0408F02D0408B02D0408CC2D0408DE
:105A9000B82D0408B42D0408EC2D0408C02D04080A
:105AA000E42D0408D42D04080000000000000000CC
:105AB0000000000000000000000000000181C000A4
:105AC0000181C0000183FFF00183FFF00187000026
:105AD0000FF700000FEFFFE00381FFE003C198E044
