:020000040800F2
:10000000180400209D010008A102000899020008C0
:100010009D020008E501000821040008000000001E
:10002000000000000000000000000000C502000801
:10003000E901000800000000A3020008B503000861
:10004000B7010008B7010008B7010008B7010008B0
:10005000B7010008B7010008B7010008B7010008A0
:10006000B7010008B7010008B7010008B701000890
:10007000B7010008B7010008B7010008B701000880
:10008000B7010008B7010008B7010008B701000870
:10009000B7010008B7010008B7010008B701000860
:1000A000B7010008B7010008B7010008B701000850
:1000B000B7010008B7010008B7010008B701000840
:1000C000B7010008B7010008B7010008B701000830
:1000D000B7010008B7010008B7010008B701000820
:1000E000B7010008B7010008B7010008B701000810
:1000F000B7010008B7010008B7010008B701000800
:10010000B7010008B7010008B7010008B7010008EF
:10011000B7010008B7010008B7010008B7010008DF
:10012000B7010008B7010008B7010008B7010008CF
:10013000B7010008B7010008B7010008B7010008BF
:10014000B7010008B7010008B7010008B7010008AF
:10015000B7010008B7010008B7010008B70100089F
:10016000B7010008B7010008B7010008B70100088F
:10017000B7010008B7010008B7010008B70100087F
:10018000B7010008B7010008DFF80CD000F018F83C
:10019000004800472505000818040020064880474D
:1001A00006480047FEE7FEE7FEE7FEE7FEE7FEE75C
:1001B000FEE7FEE7FEE7FEE7B90300088901000855
:1001C000064C074D06E0E06840F0010394E80700A4
:1001D00098471034AC42F6D3FFF7DAFFA0050008C9
:1001E000C005000800BFFEE77047F0B50A460021D1
:1001F0000023002400BF3DE0012505FA01F3156846
:1002000005EA03049C4234D105684F000326BE4032
:10021000B543056015794E00B54006683543056065
:100220001579012D02D01579022D16D185684F0060
:100230000326BE40B543856055794E00B5408668BB
:1002400035438560456801268E40B5434560456865
:1002500096798E40B6B235434560C5684F00032697
:10026000BE40B543C560D5794E00B540C66835433C
:10027000C560491C1029BFD3F0BD4FF6FF71016066
:100280000021017141718171C17170470AB18161B1
:1002900001E00B048361704700BFFEE700BFFEE78B
:1002A0007047704729B1064A12680243044B1A602E
:1002B00004E0034A12688243014B1A607047000051
:1002C00030380240704700000CB5002001900090CB
:1002D0003448006840F480303249086000BF31483B
:1002E000006800F4003000900198401C01900098D4
:1002F00018B90198B0F5A04FF1D12A48006800F470
:10030000003010B10120009001E000200090009822
:10031000012846D123484030006840F080502149F0
:10032000403108602048006840F440401E490860A1
:100330001C48083000681B490831086008460068FE
:1003400040F4004008600846006840F4A05008608F
:100350001648091F0860081F006840F08070091FD8
:10036000086000BF0F48006800F000700028F9D056
:1003700040F205700E4908600A480830006820F015
:1003800003000849083108600846006840F0020090
:10039000086000BF03480830006800F00C0008281F
:1003A000F8D10CBD003802400070004008544007EE
:1003B000003C02407047000010B51548006840F44A
:1003C0007000134908601348006840F001001149AB
:1003D000086000200F49083108600E4800680E4987
:1003E00008400C4908600D48091D0860081F006896
:1003F00020F48020091F0860002006490C310860A5
:10040000FFF762FF4FF0006001498039086010BDBE
:1004100088ED00E000380240FFFFF6FE10300024B7
:1004200000BFFEE702E008C8121F08C1002AFAD187
:1004300070477047002001E001C1121F002AFBD164
:10044000704700001BE01F4909684FF47A72B1FB46
:10045000F2F14FF0E022516100219161052111611B
:1004600000BF4FF0E021096901F480310029F8D084
:100470006FF001014FF0E0221161A0F57A70B0F544
:100480007A7FE0D2E0B10F49096841434FF47A72B4
:10049000B1FBF2F1B1FBF2F14FF0E022516100212A
:1004A00091610521116100BF4FF0E021096901F45C
:1004B00080310029F8D06FF001014FF0E022116186
:1004C00070470000000000201CB504460121206890
:1004D000FFF7E8FE6846FFF7D0FE20890090012074
:1004E0008DF804008DF8050000208DF8060069469F
:1004F0006068FFF77AFEE27A21896068FFF7C6FE3E
:100500001CBD10B50446E27A21896068FFF7BEFE83
:1005100010BD10B50446A27A21896068FFF7B6FEC7
:1005200010BD00001148FFF7CFFF1148FFF7CCFFC7
:100530001048FFF7C9FF17E00C48FFF7EAFF0C4827
:10054000FFF7E7FF0B48FFF7E4FF0B48FFF77AFFE1
:100550000648FFF7D6FF0648FFF7D3FF0548FFF729
:10056000D0FF0548FFF76EFFE6E700007C050008B6
:100570008805000894050008A0860100100000000E
:100580000010024020000001100000000010024096
:1005900040000001040000000008024000200001AB
:1005A000C00500080000002014000000240400081A
:1005B000D4050008140000200404000034040008DE
:1005C000007A030A0000000000000000010203049A
:0405D0000607080909
:040000050800018965
:00000001FF
