:020000040800F2
:10000000180400209D010008DD050008D505000842
:10001000D9050008F50100084B0B0008000000009E
:10002000000000000000000000000000AD07000814
:10003000EB04000800000000810600089D0800088D
:10004000B7010008B7010008B7010008B7010008B0
:10005000B7010008B7010008B7010008B7010008A0
:10006000B7010008B7010008B7010008B701000890
:10007000B7010008B7010008B7010008B701000880
:10008000B7010008B7010008B7010008B701000870
:10009000B7010008B7010008B7010008B701000860
:1000A000B7010008B7010008B7010008B701000850
:1000B000B7010008B7010008B7010008B701000840
:1000C000B7010008B7010008B7010008B701000830
:1000D000B701000809090008B7010008B7010008C6
:1000E000B7010008B7010008B7010008B701000810
:1000F000B7010008B7010008B7010008B701000800
:10010000B7010008B7010008B7010008B7010008EF
:10011000B7010008B7010008B7010008B7010008DF
:10012000B7010008B7010008B7010008B7010008CF
:10013000B7010008B7010008B7010008B7010008BF
:10014000B7010008B7010008B7010008B7010008AF
:10015000B7010008B7010008F9010008B70100085D
:10016000B7010008B7010008B7010008B70100088F
:10017000B7010008B7010008B7010008B70100087F
:10018000B7010008B7010008DFF80CD000F020F834
:1001900000480047D10B000818040020064880479B
:1001A00006480047FEE7FEE7FEE7FEE7FEE7FEE75C
:1001B000FEE7FEE7FEE7FEE7A10800088901000868
:1001C000421C10F8011B0029FBD1801A7047000067
:1001D000064C074D06E0E06840F0010394E8070094
:1001E00098471034AC42F6D3FFF7D2FFA40D0008B5
:1001F000C40D000800BFFEE710B50549054800F032
:10020000E7F818B10249034800F006F810BD0000F5
:1002100000800028B86402400246094B9A4201D28D
:10022000084801E00648103801F000531BB1064BA6
:100230000B40C36002E0044B0B408360704700003A
:1002400010640240006002407D0F7D0F21B1026802
:1002500042F00102026003E0026822F00102026043
:1002600070470000016821F0010101600021016078
:1002700041608160C1600161212141614A49884238
:1002800004D13D21484A103A91608CE0464918312A
:10029000884205D14FF47461434A103A916082E07C
:1002A00041493031884205D14FF474113E4A103A29
:1002B000916078E03C494831884205D14FF0746143
:1002C000394A103A91606EE037496031884204D172
:1002D0003649354A103AD16065E033497831884271
:1002E00004D13349304A103AD1605CE02E49903154
:1002F000884204D12F492C4A103AD16053E02A4950
:10030000A831884205D14FF03D51274A103AD160BB
:1003100049E02949884204D13D21274A083A116021
:1003200041E025491831884205D14FF47461224AD1
:10033000083A116037E020493031884205D14FF446
:1003400074111D4A083A11602DE01B49483188425A
:1003500005D14FF07461184A083A116023E016493C
:100360006031884204D11149134A121F11601AE00A
:1003700011497831884204D10D490F4A121F11608A
:1003800011E00D499031884204D10A490A4A121FEE
:10039000116008E00849A831884204D14FF03D516E
:1003A000054A121F11607047106002403D00002096
:1003B000400F002000003D20106402400146002054
:1003C0000A6802F001020AB1012000E00020704733
:1003D00070B50246002000240025124EB24201D220
:1003E000114B01E00F4B103B104E0E4036B11E2654
:1003F00006EAD124166806EA040502E0566906F00A
:10040000800501F000560EB15C6800E01C68084EE3
:10041000344004EA010616B10DB1012000E00020CD
:1004200070BD000010640240006002403C0F3C0FB1
:100430007D0F7D0F10B501F080034BB122B14369F0
:1004400043F08003436103E0436923F08003436189
:1004500080290BD02AB1036801F01E0423430360F6
:1004600004E0036801F01E04A343036010BD000014
:1004700010B500220268134B1A40CC680B68234366
:100480004C6923438C692343CC6923430C6A23437F
:100490004C6A23438C6A23434C6B23438C6B23436A
:1004A0001A430260426922F00702D1E90B34234368
:1004B0001A4342610B6943604B6883608B68C36079
:1004C00010BD00003F801CF0002101604160816090
:1004D000C160016141618161C1610162416281620A
:1004E000C16201634163816370477047F0B50A469A
:1004F00000210023002400BF3DE0012505FA01F39F
:10050000156805EA03049C4234D105684F000326B0
:10051000BE40B543056015794E00B54006683543C9
:1005200005601579012D02D01579022D16D1856847
:100530004F000326BE40B543856055794E00B54057
:10054000866835438560456801268E40B543456021
:10055000456896798E40B6B235434560C5684F0010
:100560000326BE40B543C560D5794E00B540C66888
:100570003543C560491C1029BFD3F0BDF0B5002339
:1005800000244D07ED0E02FA05F3CE1000F1200510
:1005900055F826504E07F70E0F26BE40B543CF1034
:1005A00000F1200646F82750CE1000F1200555F83E
:1005B000265045EA0304CE1000F1200545F82640F8
:1005C000F0BD4FF6FF710160002101714171817131
:1005D000C171704700BFFEE700BFFEE77047000033
:1005E00070B5002100230F22C4781CB3174C246877
:1005F00004F4E064C4F5E064C4F30721C1F1040429
:10060000E3B20A4144789C40E1B28478144021432B
:100610000C07210E0E4C05786155047804F01F0577
:100620000124AC4005786D11AD0005F1E025C5F859
:10063000004109E0047804F01F050124AC40054D99
:100640000678761145F8264070BD00000CED00E0FC
:1006500000E400E080E100E010B5002807DA0A07B6
:10066000140E054A00F00F031B1FD45403E00A07C1
:10067000130E024A135410BD18ED00E000E400E030
:100680007047000029B1064A12680243044B1A6001
:1006900004E0034A12688243014B1A60704700006D
:1006A0003038024029B1064A12680243044B1A60EE
:1006B00004E0034A12688243014B1A60704700004D
:1006C00044380240F0B50021002200240225002613
:1006D0000223324F3F6807F00C0121B1042905D0F5
:1006E000082937D105E02E4F076036E02D4F07600F
:1006F00033E02A4F3F1F3F68C7F38056274F3F1F05
:100700003F6807F03F036EB1264FB7FBF3F7DFF802
:100710008CC0ACF1040CDCF800C0CCF3881C07FBE7
:100720000CF40CE01E4FB7FBF3F7DFF870C0ACF130
:10073000040CDCF800C0CCF3881C07FB0CF4174F4A
:100740003F1F3F68C7F301477F1C7D00B4FBF5F7EF
:10075000076002E0124F076000BF00BF0F4F3F6805
:1007600007F0F0010909104F7A5C0768D74047602D
:100770000A4F3F6807F4E051890A0B4F7A5C4768DB
:10078000D7408760054F3F6807F46041490B064F2B
:100790007A5C4768D740C760F0BD00000838024067
:1007A0000024F40000127A000400002070470000CA
:1007B0000CB50020019000903448006840F480306F
:1007C0003249086000BF3148006800F400300090F2
:1007D0000198401C0190009818B90198B0F5A04FFD
:1007E000F1D12A48006800F4003010B101200090D7
:1007F00001E0002000900098012846D123484030B5
:10080000006840F08050214940310860204800686D
:1008100040F440401E4908601C48083000681B49ED
:10082000083108600846006840F400400860084647
:10083000006840F4A05008601648091F0860081FAF
:10084000006840F08070091F086000BF0F48006812
:1008500000F000700028F9D040F205700E490860E1
:100860000A480830006820F0030008490831086091
:100870000846006840F00200086000BF03480830E6
:10088000006800F00C000828F8D10CBD00380240C8
:100890000070004008544007003C024070470000D0
:1008A00010B51548006840F47000134908601348FB
:1008B000006840F001001149086000200F4908312C
:1008C00008600E4800680E4908400C4908600D4851
:1008D000091D0860081F006820F48020091F0860B7
:1008E000002006490C310860FFF762FF4FF00060FE
:1008F00001498039086010BD88ED00E000380240F1
:10090000FFFFF6FE1030002410B520210A4800F049
:1009100051F880B1084800F007F9C4B207480068F0
:1009200018B1204605490968884740F22551024818
:1009300000F00FF800BF10BD0010014000000020C3
:1009400001F40072B2F5007F00D100BFCA430280FB
:10095000704710B50022002340F66A14A14200D16E
:1009600000BF0A1201249440A3B2DC43048010BDEE
:1009700021B1828942F40052828104E082894DF6DD
:10098000FF731A40828170471AB1838A0B438382B6
:1009900002E0838A8B438382704702460020B1F5D0
:1009A000007F00D100BF13880B400BB1012000E095
:1009B0000020704770B50246002400230025002067
:1009C00040F66A16B14200D100BFC1F3421501F0F2
:1009D0001F03012606FA03F3012D02D19689334045
:1009E00006E0022D02D1168A334001E0968A334098
:1009F0000C12012606FA04F41688344013B10CB127
:100A0000012000E0002070BDF0B503460024002660
:100A10000025002040F66A17B94200D100BF1846F1
:100A2000C1F3421401F01F06012707FA06F5012C55
:100A300001D10C3004E0022C01D1103000E0143060
:100A40001AB107682F43076002E00768AF430760E9
:100A5000F0BD00002DE9FF4705460E460024A146E3
:100A600000BFA046B08900B100BF2C8A24F44054D6
:100A7000F08804432C82AC8941F20C608443B08836
:100A800031890843718908430443AC81AC8A24F45A
:100A90004074B0890443AC826846FFF713FE2048D7
:100AA000854202D01F48854202D1DDF80C9001E05A
:100AB000DDF80890A88900F4004040B109EBC900B6
:100AC00000EB091031684900B0FBF1F707E009EBD2
:100AD000C90000EB091031688900B0FBF1F7642010
:100AE000B7FBF0F004012009642101FB1078A8890C
:100AF00000F4004040B1322000EBC800B0FBF1F040
:100B000000F00700044308E0322000EB08106421E5
:100B1000B0FBF1F000F00F0004432C81BDE8FF872B
:100B2000001001400014014001468888C0F308000D
:100B300070474FF41651016000218180C18001810E
:100B40000C21418100218181704700BFFEE7000038
:100B5000014A024900F013B8BD0B00081400002040
:100B600002E008C8121F08C1002AFAD17047704776
:100B7000002001E001C1121F002AFBD170472DE9BE
:100B8000F04116460F460446002503E03946B047BB
:100B9000641C6D1C20780028F8D12846BDE8F0813F
:100BA00010B501210846FFF76DFD01211020FFF768
:100BB00079FD01218805FFF765FD10BD38B50446B4
:100BC0000D46E0B20090684600F098F8204638BD27
:100BD000FFF7E6FF00F066F802A0FFF7B9FF00BFDD
:100BE000FEE7000048656C6C6F20776F726C6421C3
:100BF0000D0A000000B58FB06846FFF765FC164887
:100C0000FFF730FB00BF1448FFF7D8FB0028FAD1EC
:100C10004FF00060009011480190402003900020A8
:100C200005904FF48060069000200790089009908E
:100C30000A900B90012210210748FFF7FBFB694641
:100C40000548FFF715FC012280210448001FFFF72B
:100C50009BFE0FB000BD0000B864024004100140CC
:100C60001CB56846FFF7ADFC4FF4C0600090022051
:100C70008DF8040001208DF8070003208DF8050091
:100C800069460748FFF732FC072209210448FFF7AD
:100C900075FC07220A210248FFF770FC1CBD00000A
:100CA0000000024010B5FFF7DBFFFFF7A3FF00F0E5
:100CB00053F800F001F810BD08B500200090252081
:100CC0008DF8000005208DF8010000208DF802004D
:100CD00001208DF803006846FFF782FC05212520DE
:100CE000FFF7BAFC46208DF800006846FFF778FC55
:100CF00005214620FFF7B0FC08BD000070B5044692
:100D00002046FFF75DFA054605B970BD0021104881
:100D1000FFF79CFA00BF0E48FFF750FB0028FAD1FE
:100D20000B480C3004600A48001D05600121001FBB
:100D3000FFF78CFA00BF40210648FFF72EFE00287F
:100D4000F9D040210348FFF7FBFD00BFDDE70000BD
:100D5000B8640240001001401FB56846FFF7E9FE85
:100D60004FF4E13000900020ADF80400ADF806002B
:100D7000ADF808000C20ADF80A000020ADF80C001A
:100D800069460748FFF766FE012240F225510448F4
:100D9000FFF73AFE01210248FFF7EAFD1FBD000000
:100DA00000100140C40D00080000002018000000E1
:100DB000600B0008DC0D0008180000200004000093
:100DC000700B000800000000000000000102030496
:0C0DD000010203040607080900000000EF
:040000050800018965
:00000001FF
