:020000040800F2
:10000000380400209D0100083F0D0008150B000872
:100010003B0D0008350700088F13000800000000A2
:100020000000000000000000000000004D0F00086C
:100030002B0A000800000000E10D00083D10000838
:10004000B7010008B7010008B7010008B7010008B0
:10005000B7010008B7010008B7010008B7010008A0
:10006000B7010008B7010008B7010008B701000890
:10007000B7010008B7010008B7010008B701000880
:10008000B7010008B7010008B7010008B701000870
:10009000B7010008B7010008B7010008B701000860
:1000A000B7010008B7010008B7010008B701000850
:1000B000B7010008B7010008B7010008B701000840
:1000C000B7010008B7010008B7010008B701000830
:1000D000B70100084D110008B7010008B70100087A
:1000E000B7010008B7010008B7010008B701000810
:1000F000B7010008B7010008B7010008B701000800
:10010000B7010008B7010008B7010008B7010008EF
:10011000B7010008B7010008B7010008B7010008DF
:10012000B7010008B7010008B7010008B7010008CF
:10013000B7010008B7010008B7010008B7010008BF
:10014000B7010008B7010008B7010008B7010008AF
:10015000B7010008B701000839070008B701000817
:10016000B7010008B7010008B7010008B70100088F
:10017000B7010008B7010008B7010008B70100087F
:10018000B7010008B7010008DFF80CD000F032FA20
:1001900000480047A1200008380400200648804796
:1001A00006480047FEE7FEE7FEE7FEE7FEE7FEE75C
:1001B000FEE7FEE7FEE7FEE74110000889010008C0
:1001C000421C10F8011B0029FBD1801A704700F077
:1001D000004230F000400AD0C10D01F56071C0F35B
:1001E000160042EA0151C20840071143704700203F
:1001F0000146704730B50B460146002020220124FD
:1002000009E021FA02F59D4205D303FA02F5491BE4
:1002100004FA02F52844151EA2F10102F1DC30BDFA
:100220002DE9F05F0546002092469B46884606462B
:10023000814640241BE0284641464746224600F0BE
:10024000FAF953465A46C01A914110D3114618463E
:10025000224600F0E1F92D1A67EB01084F462246CD
:100260000120002100F0D8F917EB00094E41201EB3
:10027000A4F10104DFDC484631462A464346BDE886
:10028000F09F2DE9FE4F804681EA0300C00F0C4627
:10029000009021F0004123F00045B8EB0200A94195
:1002A00005D24046214690461C460B46024623F0A6
:1002B0000040104347D0270DC7F30A00C3F30A518B
:1002C0000290401A019040286BDAC3F3130040F407
:1002D000801B0098924620B10023D2EB030A63EB07
:1002E0000B0B01985946C0F14002504600F094F9BA
:1002F00006460D4650465946019A00F0ACF910EBFF
:1003000008006141002487EA115284EAE7731A4326
:1003100040D0009A62B3019A012A4FEA075215DCD5
:10032000001B61EB02014FF0004202EA0752CDE9E7
:100330000042001C41F5801132462B4600F0ACF91A
:1003400003B0BDE8F08F40462146F9E7001B61EBA2
:100350000201001C41F5801300185B412018A2F532
:10036000001747EB030140EAD570B6196D4111E063
:100370006D084FEA360645EAC0754FEA0752001B82
:1003800061EB0201001C41F5801149084FEA300081
:100390000019514132462B4603B0BDE8F04F00F042
:1003A0006CB90098012240000023D0EB020263EBFD
:1003B000E073009821464FEAE074B8EB000061EB6F
:1003C0000401E9E783F000435BE781F0004158E76F
:1003D0002DE9FE4F81EA030404F0004421F00041BE
:1003E00000944FF0000B23F0004350EA01045ED06C
:1003F00052EA03045BD0C3F30A54C1F30A552C44F8
:10040000A4F2F3340194A0FB0254C1F3130141F4AC
:100410008011C3F3130343F4801301FB024400FB78
:10042000034E840A970A44EA815447EA8357A4FB9F
:10043000076802958D0A05FB07854FEA932C04FB9C
:100440000C542705029D4FEA065847EA1637B5EBCC
:1004500008056EEB070C870E920E47EA811742EAF9
:100460008312A7FB0201B6EB0B0164EB00042B0D1A
:1004700043EA0C335E1844EB1C50DA465146E7FB66
:100480000201C5F313044FEA0B3343EA14534FEA56
:100490000432019C43EA0603A4F10C040294009C7C
:1004A000CDE900B400F0F8F803B0BDE8F08F00200B
:1004B0000146F9E72DE9F04D81EA030404F0004B11
:1004C00021F0004514464FF0000A23F0004150EAA5
:1004D000050220D054EA01021DD0C5F30A57024696
:1004E000C5F31303C1F31300C1F30A5640F480159A
:1004F00043F48013A7EB0608101BD64608F2FD381C
:1005000073EB050002D308F1010801E092185B418A
:10051000B8F1000F03DA00200146BDE8F08D00209D
:100520004FF48011064684460EE0171B73EB050757
:1005300005D3121B63EB050306434CEA010C490883
:100540004FEA300092185B4150EA0107EDD152EAC0
:10055000030012D082EA040083EA0501084305D0B3
:10056000101BAB4106D20122002306E000224FF00F
:10057000004302E06FF0010253101AEB06004CEB4F
:10058000085110EB0A0041EB0B01BDE8F04D00F003
:1005900074B8C1F30A52C1F3130140F2FF3341F4BE
:1005A00080119A4202DA00200146704740F233433C
:1005B0009A42A2F2334202DC524200F03CB800F010
:1005C0002BB8000030B5041E71F1000404DB4FF0BD
:1005D0000044404264EB0101141E73F1000405DB8A
:1005E0001C464FF00043524263EB0403994208BF9C
:1005F000904230BD064C074D06E0E06840F0010334
:1006000094E8070098471034AC42F6D3FFF7C0FDDA
:10061000FC2300081C240008202A04DB203A00FAEE
:1006200002F1002070479140C2F1200320FA03F349
:10063000194390407047202A04DB203A21FA02F047
:100640000021704721FA02F3D040C2F1200291400C
:10065000084319467047202A06DBCB17203A41FA97
:1006600002F043EAE07306E041FA02F3D040C2F13F
:100670002002914008431946704710B5141E73F1CB
:10068000000408DA401C41F1000192185B411A4352
:1006900001D120F0010010BD2DE9F04D92469B469E
:1006A00011B1B1FA81F202E0B0FA80F22032904644
:1006B000FFF7B2FF04460F4640EA0A0041EA0B0189
:1006C00053465A46084313D0114653EA010019D045
:1006D000C8F140025046FFF7AEFF05460E465046B1
:1006E00059464246FFF798FF084305D0012004E031
:1006F00020463946BDE8F08D0020054346EAE07605
:100700002C4337430A986305E40AA0EB0800002253
:10071000FD0A44EA47540A3002D500200146E9E7C1
:10072000010510196941DDE9084500196941BDE875
:10073000F04DA2E700BFFEE710B50549054800F0FF
:10074000E7F818B10249034800F006F810BD0000B0
:1007500000800028B86402400246094B9A4201D248
:10076000084801E00648103801F000531BB1064B61
:100770000B40C36002E0044B0B40836070470000F5
:1007800010640240006002407D0F7D0F21B10268BD
:1007900042F00102026003E0026822F001020260FE
:1007A00070470000016821F0010101600021016033
:1007B00041608160C1600161212141614A498842F3
:1007C00004D13D21484A103A91608CE046491831E5
:1007D000884205D14FF47461434A103A916082E037
:1007E00041493031884205D14FF474113E4A103AE4
:1007F000916078E03C494831884205D14FF07461FE
:10080000394A103A91606EE037496031884204D12C
:100810003649354A103AD16065E03349783188422B
:1008200004D13349304A103AD1605CE02E4990310E
:10083000884204D12F492C4A103AD16053E02A490A
:10084000A831884205D14FF03D51274A103AD16076
:1008500049E02949884204D13D21274A083A1160DC
:1008600041E025491831884205D14FF47461224A8C
:10087000083A116037E020493031884205D14FF401
:1008800074111D4A083A11602DE01B494831884215
:1008900005D14FF07461184A083A116023E01649F7
:1008A0006031884204D11149134A121F11601AE0C5
:1008B00011497831884204D10D490F4A121F116045
:1008C00011E00D499031884204D10A490A4A121FA9
:1008D000116008E00849A831884204D14FF03D5129
:1008E000054A121F11607047106002403D00002051
:1008F000400F002000003D2010640240014600200F
:100900000A6802F001020AB1012000E000207047ED
:1009100070B50246002000240025124EB24201D2DA
:10092000114B01E00F4B103B104E0E4036B11E260E
:1009300006EAD124166806EA040502E0566906F0C4
:10094000800501F000560EB15C6800E01C68084E9E
:10095000344004EA010616B10DB1012000E0002088
:1009600070BD000010640240006002403C0F3C0F6C
:100970007D0F7D0F10B501F080034BB122B14369AB
:1009800043F08003436103E0436923F08003436144
:1009900080290BD02AB1036801F01E0423430360B1
:1009A00004E0036801F01E04A343036010BD0000CF
:1009B00010B500220268134B1A40CC680B68234321
:1009C0004C6923438C692343CC6923430C6A23433A
:1009D0004C6A23438C6A23434C6B23438C6B234325
:1009E0001A430260426922F00702D1E90B34234323
:1009F0001A4342610B6943604B6883608B68C36034
:100A000010BD00003F801CF000210160416081604A
:100A1000C160016141618161C161016241628162C4
:100A2000C16201634163816370477047F0B50A4654
:100A300000210023002400BF3DE0012505FA01F359
:100A4000156805EA03049C4234D105684F0003266B
:100A5000BE40B543056015794E00B5400668354384
:100A600005601579012D02D01579022D16D1856802
:100A70004F000326BE40B543856055794E00B54012
:100A8000866835438560456801268E40B5434560DC
:100A9000456896798E40B6B235434560C5684F00CB
:100AA0000326BE40B543C560D5794E00B540C66843
:100AB0003543C560491C1029BFD3F0BDF0B50023F4
:100AC00000244D07ED0E02FA05F3CE1000F12005CB
:100AD00055F826504E07F70E0F26BE40B543CF10EF
:100AE00000F1200646F82750CE1000F1200555F8F9
:100AF000265045EA0304CE1000F1200545F82640B3
:100B0000F0BD4FF6FF7101600021017141718171EB
:100B1000C171704700BFFEE721B1028842F48062D4
:100B2000028004E002884FF6FF331A4002807047CB
:100B300070B502460025002300240026938A03F0A6
:100B4000020010B923F0100008B1148B01E000205E
:100B500070BD240443EA040020F07F4505EA01004B
:100B6000884201D1012600E000263046F0E721B19D
:100B7000028842F00102028004E002884FF6FE7310
:100B80001A4002807047000010B5044613488442A2
:100B900009D10121480500F045F900214FF400106A
:100BA00000F040F918E00E48844209D1012188057F
:100BB00000F038F900214FF4800000F033F90BE029
:100BC0000848844208D10121C80500F02BF9002112
:100BD0004FF4000000F026F910BD00000054004062
:100BE00000580040005C004021B1028842F480724D
:100BF000028004E002884FF6FF631A4002807047CB
:100C000021B1028842F40072028004E002884FF6AB
:100C1000FF531A40028070472DE9FF4704460D46F6
:100C20000026B1460427DFF8CC80A6884FF6C070B6
:100C30000640684600F016F9DDF808802E48B8FB3B
:100C4000F0F01FFA80F946EA0906A68020884FF6E0
:100C5000FE710840208000262849286888420CD868
:100C600028684000B8FBF0F087B2042F00DA0427B0
:100C70003E4309F10100208427E0E8884BF6FF712C
:100C8000884206D1286800EB4000B8FBF0F087B23C
:100C900009E0286800EBC00101EB0010B8FBF0F0A0
:100CA00087B247F48047C7F30B0008B947F0010744
:100CB00047F4004006434FF4967009FB00F04FF4F0
:100CC0007A7190FBF1F0401C2084A683208840F0CC
:100CD0000100208026884FF6F5300640A8886989F3
:100CE000084306432680A889298908432081BDE856
:100CF000FF87000000127A0040420F00A08601002A
:100D00000146088AC0B2704712B141F0010101E00A
:100D100001F0FE01018270470182704741F2883183
:100D20000160002181804BF6FF71C18000210181AB
:100D300041814FF480418181704700BFFEE77047D9
:100D400070B5002100230F22C4781CB3174C24680F
:100D500004F4E064C4F5E064C4F30721C1F10404C1
:100D6000E3B20A4144789C40E1B2847814402143C4
:100D70000C07210E0E4C05786155047804F01F0510
:100D80000124AC4005786D11AD0005F1E025C5F8F2
:100D9000004109E0047804F01F050124AC40054D32
:100DA0000678761145F8264070BD00000CED00E095
:100DB00000E400E080E100E010B5002807DA0A074F
:100DC000140E054A00F00F031B1FD45403E00A075A
:100DD000130E024A135410BD18ED00E000E400E0C9
:100DE0007047000029B1064A12680243044B1A609A
:100DF00004E0034A12688243014B1A607047000006
:100E00003038024029B1064A12680243044B1A6086
:100E100004E0034A12688243014B1A6070470000E5
:100E20004038024029B1064A12680243044B1A6056
:100E300004E0034A12688243014B1A6070470000C5
:100E40002038024029B1064A12680243044B1A6056
:100E500004E0034A12688243014B1A6070470000A5
:100E600044380240F0B5002100220024022500266B
:100E70000223324F3F6807F00C0121B1042905D04D
:100E8000082937D105E02E4F076036E02D4F076067
:100E900033E02A4F3F1F3F68C7F38056274F3F1F5D
:100EA0003F6807F03F036EB1264FB7FBF3F7DFF85B
:100EB0008CC0ACF1040CDCF800C0CCF3881C07FB40
:100EC0000CF40CE01E4FB7FBF3F7DFF870C0ACF189
:100ED000040CDCF800C0CCF3881C07FB0CF4174FA3
:100EE0003F1F3F68C7F301477F1C7D00B4FBF5F748
:100EF000076002E0124F076000BF00BF0F4F3F685E
:100F000007F0F0010909104F7A5C0768D740476085
:100F10000A4F3F6807F4E051890A0B4F7A5C476833
:100F2000D7408760054F3F6807F46041490B064F83
:100F30007A5C4768D740C760F0BD000008380240BF
:100F40000024F40000127A00200000207047000006
:100F50000CB50020019000903448006840F48030C7
:100F60003249086000BF3148006800F4003000904A
:100F70000198401C0190009818B90198B0F5A04F55
:100F8000F1D12A48006800F4003010B1012000902F
:100F900001E0002000900098012846D1234840300D
:100FA000006840F0805021494031086020480068C6
:100FB00040F440401E4908601C48083000681B4946
:100FC000083108600846006840F4004008600846A0
:100FD000006840F4A05008601648091F0860081F08
:100FE000006840F08070091F086000BF0F4800686B
:100FF00000F000700028F9D040F205700E4908603A
:101000000A480830006820F00300084908310860E9
:101010000846006840F00200086000BF034808303E
:10102000006800F00C000828F8D10CBD0038024020
:101030000070004008544007003C02407047000028
:1010400010B51548006840F4700013490860134853
:10105000006840F001001149086000200F49083184
:1010600008600E4800680E4908400C4908600D48A9
:10107000091D0860081F006820F48020091F08600F
:10108000002006490C310860FFF762FF4FF0006056
:1010900001498039086010BD88ED00E00038024049
:1010A000FFFFF6FE1030002421B1028842F0010259
:1010B000028004E002884FF6FE731A4002807047F7
:1010C0000146486A7047000000220288184B984287
:1010D0000ED0184B98420BD0B0F1804F08D0164B71
:1010E000984205D0154B984202D0154B984204D136
:1010F0004FF68F731A404B881A43124B984207D011
:10110000114B984204D04FF6FF431A400B891A4303
:1011100002804B68C3620B880385054B984202D05E
:10112000044B984201D18B7A038601238382704756
:10113000000001400004014000040040000800409D
:10114000000C0040001000400014004010B52021A9
:101150000A4800F051F880B1084800F007F9C4B21D
:101160000748006818B1204605490968884740F2D9
:101170002551024800F00FF800BF10BD00100140DB
:101180000800002001F40072B2F5007F00D100BF1A
:10119000CA430280704710B50022002340F66A144B
:1011A000A14200D100BF0A1201249440A3B2DC4343
:1011B000048010BD21B1828942F40052828104E092
:1011C00082894DF6FF731A40828170471AB1838A73
:1011D0000B43838202E0838A8B43838270470246FB
:1011E0000020B1F5007F00D100BF13880B400BB188
:1011F000012000E00020704770B502460024002363
:101200000025002040F66A16B14200D100BFC1F3AC
:10121000421501F01F03012606FA03F3012D02D146
:101220009689334006E0022D02D1168A334001E050
:10123000968A33400C12012606FA04F416883440CC
:1012400013B10CB1012000E0002070BDF0B50346E1
:10125000002400260025002040F66A17B94200D17C
:1012600000BF1846C1F3421401F01F06012707FA18
:1012700006F5012C01D10C3004E0022C01D1103014
:1012800000E014301AB107682F43076002E00768D6
:10129000AF430760F0BD00002DE9FF4705460E464D
:1012A0000024A14600BFA046B08900B100BF2C8A2F
:1012B00024F44054F08804432C82AC8941F20C6041
:1012C0008443B08831890843718908430443AC8161
:1012D000AC8A24F44074B0890443AC826846FFF7BA
:1012E000C1FD2048854202D01F48854202D1DDF869
:1012F0000C9001E0DDF80890A88900F4004040B1AE
:1013000009EBC90000EB091031684900B0FBF1F7A7
:1013100007E009EBC90000EB091031688900B0FB58
:10132000F1F76420B7FBF0F004012009642101FB10
:101330001078A88900F4004040B1322000EBC800CA
:10134000B0FBF1F000F00700044308E0322000EBAE
:1013500008106421B0FBF1F000F00F0004432C8171
:10136000BDE8FF8700100140001401400146888855
:10137000C0F3080070474FF41651016000218180CE
:10138000C18001810C21418100218181704700BF12
:10139000FEE700000FB4054B10B503A9044A0298FC
:1013A00000F0DAF810BC5DF814FB00008D20000896
:1013B0003000002002E008C8121F08C1002AFAD13C
:1013C00070477047002001E001C1121F002AFBD1C5
:1013D000704700002DE9FF5F82B00021DDE9043095
:1013E000020DDDF840B0034318D044F61050A2F2CD
:1013F000FF3242431514119801281FD0A5EB0B00B2
:10140000401C5FEA000A4FF000064E4FDFF83891AB
:10141000B046504615D5CAF1000413E011980124D6
:101420004AA3012801D16FEA0B010298119AC0E981
:101430000031C0E9024206B0BDE8F09FCBF10000E8
:10144000DFE704460021404A491842EB0450CDE949
:10145000001012E0E00707D032463B4640464946BE
:10146000FEF7B6FF8046894632463B46104619468F
:10147000FEF7AEFF06460F466410002CEAD1DDE908
:101480000401DDE90023BAF1000F06DAFEF7A0FF40
:1014900042464B46FEF79CFF05E0FFF70BF842463D
:1014A0004B46FFF707F804460E460022284BFFF78D
:1014B00089F803D84FF0FF30014607E00022254BA2
:1014C00020463146FEF7DDFEFFF763F8102409E001
:1014D000002C0ADB0A220023FEF7A2FE039B303217
:1014E0001A55641E50EA0102F2D1641C039AC4F139
:1014F00011031444119A012A03D0012208430DD18B
:101500000AE0084304D000204FF0110B119072E75D
:10151000A3EB0B056D1E0DE05B4504DD4FF00002F3
:1015200005F1010504E003DA4FF00002A5F1010521
:10153000002AECD002981199C0E90231C0E90045B7
:1015400079E70000000014400000F03F3000000088
:101550000000F0430000E03F2DE9FF4F95B09B46AF
:101560008946064600250FE2252877D10024274624
:10157000F84A0121059400E0044316F8013F203B9E
:1015800001FA03F01042F7D130782A2811D06FF019
:101590002F033078A0F13002092A16D8059A44F0BA
:1015A000020402EB820203EB42021044761C059017
:1015B000EFE759F8042B0592002A03DA504244F46D
:1015C0000054059044F00204761C30782E2816D181
:1015D00016F8010F44F004042A280DD06FF02F02F2
:1015E0003078A0F13003092B09D807EB870302EB11
:1015F0004303C718761CF3E759F8047B761C307850
:101600006C280FD006DC4C2817D068280DD06A282B
:1016100014D104E0742810D07A280FD10DE044F4DE
:1016200000140AE044F4801401E044F44014727899
:10163000824202D104F58014761C761C307866282C
:101640000BD013DC582877D009DC002875D045284A
:10165000F6D04628F4D047281AD19DE118E0632837
:1016600035D0642879D0652812D195E1702873D0DF
:1016700008DC6728F1D069286FD06E280DD06F285C
:1016800006D1B5E073282CD0752875D0782874D091
:101690005A46179990476D1C75E1C4F30250022811
:1016A00009D003280DD0D9F8001004280DD00D6002
:1016B00009F1040967E1D9F80010EA17C1E90052FD
:1016C000F6E7D9F800100D80F2E70D70F0E719F891
:1016D000041B8DF8001000208DF80100EA4601205F
:1016E00003E059F804AB4FF0FF3061074FF0000101
:1016F00002D40DE008F101018846B9420FDA8045B5
:10170000F8DB1AF808100029F4D108E008F101010B
:1017100088468142FADB1AF808100029F6D10598AC
:101720005B46A0EB080721463846179A00F094FA6A
:10173000284400EB080507E04DE029E10DE01AF828
:10174000010B5A4617999047B8F10108F7D25B464A
:1017500021463846179A13E142E00A220092C4F368
:1017600002524FF0000A022A08D059F804CB032A8B
:101770004FEAEC710AD00DE029E02AE009F10701F7
:1017800021F00702F2E802C1914609E00FFA8CFC51
:101790004FEAEC71042A03D14FFA8CFC4FEAEC714A
:1017A000002907DA0A460021DCF1000C61EB020196
:1017B0002D2202E0220504D52B228DF804200122DF
:1017C00003E0E20701D02022F7E7904659E00A2122
:1017D00002E010220DE010214FF0000A00910BE012
:1017E00010224FF0000A44F004040827009203E09E
:1017F00008224FF0000A0092C4F30252022A05D0D8
:1018000059F804CB0021032A08D009E009F10701A7
:1018100021F00702F2E802C1914605E01FFA8CFCB4
:10182000042A01D10CF0FF0C4FF00008220728D544
:10183000702806D0009B83F0100353EA0A0305D0FA
:101840000EE040228DF80420012208E05CEA01024B
:1018500006D030228DF804208DF805000222904633
:10186000009B83F0080353EA0A030AD15CEA0102F1
:1018700001D1620705D530228DF804204FF0010810
:101880007F1E582804D034A003900EA802900DE0CB
:1018900036A0F9E753466046009AFEF7C1FC84463D
:1018A0000398825C0298401E029002705CEA01007C
:1018B000F0D1029806A9081A00F1200A600702D5A3
:1018C00024F4803400E00127574502DDA7EB0A002D
:1018D00000E0002000EB0A01009005984144401A06
:1018E0000590E00306D45B462146179A059800F060
:1018F000B3F90544002706E001A85A46C05D1799D0
:1019000090476D1C7F1C4745F6DBE0030CD55B461A
:101910002146179A059800F09FF9054404E030200D
:101920005A46179990476D1C0099481E009000294F
:10193000F5DC08E0029802995A460078491C0291A9
:10194000179990476D1CBAF10001AAF1010AF1DC68
:1019500065E1000009280100303132333435363773
:1019600038396162636465660000000030313233EB
:10197000343536373839414243444546000000008B
:1019800000F058F90544761C307800287FF4ECAD5F
:1019900019B02846BDE8F08F620700D4062709F188
:1019A000070222F0070CFCE80223E14603F000489E
:1019B0005FEA080C02D00FF2702C0DE05FEA045CC5
:1019C00002D50FF2682C07E05FEAC47C02D00FF268
:1019D000602C01E0AFF2700C4FF0FF3823F00043B1
:1019E000CDF850C065280CD006DC452809D0462823
:1019F0001DD047283DD13DE0662818D067287ED10C
:101A000038E00021112F01DB112000E0781CCDE926
:101A1000000106A90EA8FFF7DDFCDDE90F010E9A13
:101A200003910021009207F1010A04914DE04FF06B
:101A300000400097CDE9011006A90EA8FFF7CAFCE7
:101A4000DDE90F0203920E9B11990022DDF80CA034
:101A50000093049211B9791C00EB010AB7EB0A005C
:101A600004D4C0F1FF3007F1010A0490AAEB07008B
:101A7000019044E0012F00DA01270021112F01DD40
:101A8000112000E03846CDE9000106A90EA8FFF7B5
:101A9000A1FCDDE90F010E9A03910021049100924F
:101AA000BA4621070CD40399514500DA8A46BAF1A7
:101AB000010F05DD009AAAF10101515C302908D01F
:101AC000B84202DA10F1040F06DA0121CDE9011063
:101AD00015E0AAF10101E9E7002805DC04990144B9
:101AE0000491AAEB000102E0411C514500DD8A4649
:101AF0000499401A401C01904FF0004002902007CA
:101B000004D40198504501DBCDF8048000208DF805
:101B10004F0002980DF14F07B0F1004F25D02B2058
:101B20000E9002984FF0020800280CDA4042029012
:101B30002D200E9007E00A210298FEF75BFB303162
:101B4000029007F8011DB8F10001A8F10108F2DCCC
:101B500002980028EFD1791E0E980870307800F0B6
:101B6000200040F0450007F8020D12A8C01B00F14C
:101B700007081498007800B1012000EB0A010198D1
:101B800001EBE07105984144401A401E0590E003C6
:101B900006D45B462146179A059800F05DF8054487
:101BA0001498007818B15A46179990476D1CE003B5
:101BB00024D55B462146179A059800F04DF8054458
:101BC0001CE00498002807DBDDE90301884203DDFF
:101BD0000098405C179901E0179930205A469047C9
:101BE000049805F10105401C04900198401E0190E5
:101BF00004D12E205A46179990476D1CBAF1000166
:101C0000AAF1010ADDDC05E017F8010B5A46179925
:101C100090476D1CB8F10001A8F10108F4DC5B46A7
:101C20002146179A0598ABE62D0000002B00000016
:101C3000200000002DE9F041044600251E4617460D
:101C4000880404D405E039462020B0476D1C641E8A
:101C5000F9D52846BDE8F0812DE9F041044600257C
:101C60001E469046C80301D5302700E0202788048F
:101C700004D505E041463846B0476D1C641EF9D5D1
:101C80002846BDE8F081000010B588B03048FEF766
:101C90007BFF06A8FEF735FF4FF440600690022058
:101CA0008DF81C0001208DF81E0000208DF81F000B
:101CB00003208DF81D0006A92648FEF7B7FE042272
:101CC0000A212448FEF7FAFE04220B212148FEF7E0
:101CD000F5FE02A8FFF722F84FF48060ADF812007D
:101CE0000001ADF814001C4802904BF6FF70ADF8EF
:101CF0000E000020ADF81000ADF80C0002A9144849
:101D0000FEF78AFF01211248FEF731FF282000F07C
:101D1000A1F900F030F810B1012008B010BD0FA0FB
:101D200000680190032101A800F018F908B901200A
:101D3000F3E7002408E0012000F08CF900F01BF824
:101D400008B10120E9E7641C642CF4D30020E4E727
:101D50000058004000040240A0860100BE080000B8
:101D600008B5684600F0CAF808B9002008BD9DF81B
:101D70000000C009FAE708B5684600F0BFF808B9E6
:101D8000002008BD9DF80000C0F3C000F9E7000086
:101D90002DE9F04107460D4601212F48FEF7BCFE14
:101DA00001212D48FEF720FF00BF4FF47A7403E0B5
:101DB0000A2000F04FF90A3C28492748FEF7B8FEF0
:101DC00008B9002CF4D114B90020BDE8F08100BF9F
:101DD000012270212048FEF797FF00BF4FF47A746C
:101DE00003E00A2000F036F90A3C1C49491C1A4855
:101DF000FEF79EFE08B9002CF3D10CB90020E4E7F1
:101E000000BF00241FE0681EA04203D10021124839
:101E1000FEF782FE00BF4FF47A7603E00A2000F05E
:101E200019F90A3E0D493F310B48FEF781FE08B90A
:101E3000002EF3D10EB90020C7E700BF0648FEF719
:101E40005FFF3855641CAC42DDD301210248FEF728
:101E5000D7FE0120B9E70000005800400100030050
:101E60002DE9FC4106460F4606216846FFF790FF24
:101E700010B90020BDE8FC819DF8010000039DF829
:101E8000021040EA01109DF8031040EA11149DF879
:101E900003000007000B9DF8041040EA01209DF8A4
:101EA000051040EA010500EE104AB8EE400ADFEDE9
:101EB0000F0A20EE200ADFED0E0A80EE201A87EDD1
:101EC000001A00EE105AB8EE400ADFED0A0A20EEC2
:101ED000200A9FED071AC0EE010A9FED070A30EEB7
:101EE000C00A86ED000A0120C4E700000000C842D5
:101EF00000008049000048430000484238B50446CD
:101F0000712000900121684600F028F808B90020EF
:101F100038BD01212046FFF73BFF08B90020F7E755
:101F20000120F5E708B504A0006800900321684689
:101F300000F014F808BD0000AC33000010B5002418
:101F400008E0012000F086F8FFF70AFF08B9012039
:101F500010BD641C642CF4D30020F9E72DE9F04196
:101F600006460F4601212B48FEF7D6FD01212948E0
:101F7000FEF73AFE00BF4FF47A7403E00A2000F047
:101F800069F80A3C24492348FEF7D2FD08B9002C21
:101F9000F4D114B90020BDE8F08100BF0022702107
:101FA0001C48FEF7B1FE00BF4FF47A7403E00A202C
:101FB00000F050F80A3C19491648FEF7B9FD08B977
:101FC000002CF4D10CB90020E5E700BF002418E094
:101FD000315D1048FEF7A0FE00BF4FF47A7503E0B4
:101FE0000A2000F037F80A3D0C49891E0948FEF71F
:101FF0009FFD08B9002DF3D10DB90020CBE700BF3C
:10200000641CBC42E4D301210248FEF7F9FD012023
:10201000C1E70000005800400100030082000700F3
:1020200010B501210846FEF7DDFE01210220FEF772
:10203000D9FE01211020FEF705FF01218805FEF7DA
:10204000D1FE01210846FEF7DDFE01218805FEF7DD
:10205000D9FE10BD10B5044603E04FF47A7000F0CD
:1020600005F8201EA4F10104F7D110BD70B5044697
:102070004FF08040FFF724F8054600BF4FF0804046
:10208000FFF71EF8401BA042F8D370BD38B50446D8
:102090000D46E0B20090684600F05CF9204638BD7D
:1020A00000B52DED048B85B0FFF7BAFF00F026F9DF
:1020B00000F0ACF8FFF7E8FD52E0FFF733FF30B96E
:1020C00028A0FFF767F905B0BDEC048B00BDFFF752
:1020D00035FF18B92CA0FFF75DF9F4E79FED340A3E
:1020E0008DED040A9FED320A8DED030A03A904A8C1
:1020F000FFF7B6FE18B92FA0FFF74CF9E3E7364813
:1021000090ED000ADDED040AB4EE600AF1EE10FA7B
:102110000AD0324890ED000ADDED030AB4EE600A01
:10212000F1EE10FA00D1CEE79DED040A2A4880EDC9
:10213000000A9DED030A294880ED000A0398FEF786
:1021400046F841EC190B0498FEF741F841EC180BE6
:102150008DED009B53EC182B21A0FFF71BF900BF5E
:10216000ABE700005B41485432305D20737461720C
:1021700074206D6561737572656D656E742066613E
:10218000696C65640A0000005B41485432305D2090
:102190007761697420666F72206D65617375726511
:1021A0006D656E74206661696C65640A00000000EC
:1021B000000000005B41485432305D20726561646C
:1021C000206D6561737572656D656E7420666169F9
:1021D0006C65640A0000000000000020040000207C
:1021E0005B41485432305D2054656D706572617496
:1021F0007572653A20252E31662C2048756D69640C
:102200006974793A20252E31660A00000EB54FF028
:10221000FF3001900B4800680B49B0FBF1F0401E05
:1022200080B2ADF800000020ADF80800ADF8020063
:1022300069464FF08040FEF747FF01218807FEF70F
:1022400033FF0EBD0C00002040420F0000B58FB0E0
:102250006846FEF7D9FB1648FEF7A4FA00BF1448FB
:10226000FEF74CFB0028FAD14FF0006000901148B7
:10227000019040200390002005904FF4806006906C
:1022800000200790089009900A900B9001221021DD
:102290000748FEF76FFB69460548FEF789FB0122F8
:1022A00080210448001FFEF791FF0FB000BD000021
:1022B000B8640240041001401CB56846FEF721FCDA
:1022C0004FF4C060009002208DF8040001208DF8CA
:1022D000070003208DF8050069460748FEF7A6FBB6
:1022E000072209210448FEF7E9FB07220A210248D8
:1022F000FEF7E4FB1CBD00000000024010B5FFF734
:10230000DBFFFFF7A3FF00F053F800F001F810BD6A
:1023100008B50020009025208DF8000005208DF8DC
:10232000010000208DF8020001208DF803006846AE
:10233000FEF706FD05212520FEF73EFD46208DF81F
:1023400000006846FEF7FCFC05214620FEF734FD40
:1023500008BD000070B504462046FDF731FF054674
:1023600005B970BD00211048FEF710FA00BF0E48F5
:10237000FEF7C4FA0028FAD10B480C3004600A4872
:10238000001D05600121001FFEF700FA00BF40217B
:102390000648FEF724FF0028F9D040210348FEF745
:1023A000F1FE00BFDDE70000B8640240001001400C
:1023B0001FB56846FEF7DFFF4FF4E13000900020C4
:1023C000ADF80400ADF80600ADF808000C20ADF83B
:1023D0000A000020ADF80C0069460748FEF75CFFD4
:1023E000012240F225510448FEF730FF0121024846
:1023F000FEF7E0FE1FBD0000001001401C24000895
:102400000000002034000000B4130008502400082D
:102410003400002004040000C41300080000000081
:102420000000000000000000007A030A0000000025
:102430000000000001020304060708090000000074
:10244000010203040102030406070809000000005A
:040000050800018965
:00000001FF
