:020000040800F2
:10000000500B00209D010008DF090008B50700081B
:10001000DB09000845020008871000080000000006
:100020000000000000000000000000000D0C0008AF
:100030006F05000800000000810A0008FD0C0008A0
:10004000B7010008B7010008B7010008B7010008B0
:10005000B7010008B7010008B7010008B7010008A0
:10006000B7010008B7010008B7010008B701000890
:10007000B7010008B7010008B7010008B701000880
:10008000B7010008B7010008B7010008B701000870
:10009000B7010008B7010008B7010008B701000860
:1000A000B7010008B7010008B7010008B701000850
:1000B000B7010008B7010008B7010008B701000840
:1000C000B7010008B7010008B7010008B701000830
:1000D000B70100080D0E0008450E0008B701000822
:1000E000B7010008B7010008B7010008B701000810
:1000F000B7010008B7010008B7010008B701000800
:10010000B7010008B7010008B7010008B7010008EF
:10011000B7010008B7010008B7010008B7010008DF
:10012000B7010008B7010008B7010008B7010008CF
:10013000B7010008B7010008B7010008B7010008BF
:10014000B7010008B7010008B7010008B7010008AF
:10015000B7010008B701000849020008B70100080C
:10016000B7010008B7010008B7010008B70100088F
:10017000B7010008B7010008B7010008B70100087F
:10018000B7010008B7010008DFF80CD000F048F80C
:100190000048004799250008500B0020064880477A
:1001A00006480047FEE7FEE7FEE7FEE7FEE7FEE75C
:1001B000FEE7FEE7FEE7FEE7010D00088901000803
:1001C00030B505462A460B4612F8010B13F8014BD1
:1001D00008B1A042F8D01CB1002802D06D1CF1E794
:1001E000284630BD421C10F8011B0029FBD1801AA3
:1001F000704730B50B46014600202022012409E05B
:1002000021FA02F59D4205D303FA02F5491B04FACF
:1002100002F52844151EA2F10102F1DC30BD0000F8
:10022000064C074D06E0E06840F0010394E8070043
:1002300098471034AC42F6D3FFF7AAFF3087000886
:100240005087000800BFFEE710B50549054800F0DB
:1002500001F918B10249034800F020F810BD000070
:1002600000800028B86402400246094B9A4201D23D
:10027000084801E00648103801F000531BB1064B56
:100280000B40C36002E0044B0B40836070470000EA
:1002900010640240006002407D0F7D0F0246094B52
:1002A0009A4201D2084801E00648103801F0005394
:1002B0001BB1064B0B40C36002E0044B0B40836054
:1002C0007047000010640240006002407D0F7D0F07
:1002D00021B1026842F00102026003E0026822F0EC
:1002E0000102026070470000016821F00101016015
:1002F0000021016041608160C16001612121416193
:100300004A49884204D13D21484A103A91608CE024
:1003100046491831884205D14FF47461434A103A76
:10032000916082E041493031884205D14FF4741127
:100330003E4A103A916078E03C494831884205D104
:100340004FF07461394A103A91606EE0374960317C
:10035000884204D13649354A103AD16065E03349C4
:100360007831884204D13349304A103AD1605CE098
:100370002E499031884204D12F492C4A103AD1603D
:1003800053E02A49A831884205D14FF03D51274A10
:10039000103AD16049E02949884204D13D21274AD9
:1003A000083A116041E025491831884205D14FF4DF
:1003B0007461224A083A116037E02049303188429E
:1003C00005D14FF474111D4A083A11602DE01B4904
:1003D0004831884205D14FF07461184A083A1160DB
:1003E00023E016496031884204D11149134A121F93
:1003F00011601AE011497831884204D10D490F4A41
:10040000121F116011E00D499031884204D10A4950
:100410000A4A121F116008E00849A831884204D135
:100420004FF03D51054A121F1160704710600240A5
:100430003D000020400F002000003D2010640240DD
:10044000014600200A6802F001020AB1012000E022
:100450000020704770B50246002000240025124E8F
:10046000B24201D2114B01E00F4B103B104E0E4037
:1004700036B11E2606EAD124166806EA040502E013
:10048000566906F0800501F000560EB15C6800E088
:100490001C68084E344004EA010616B10DB1012073
:1004A00000E0002070BD00001064024000600240C7
:1004B0003C0F3C0F7D0F7D0F10B501F080034BB159
:1004C00022B1436943F08003436103E0436923F0B1
:1004D0008003436180290BD02AB1036801F01E0418
:1004E0002343036004E0036801F01E04A343036098
:1004F00010BD000010B500220268134B1A40CC68F2
:100500000B6823434C6923438C692343CC69234301
:100510000C6A23434C6A23438C6A23434C6B23436A
:100520008C6B23431A430260426922F00702D1E92F
:100530000B3423431A4342610B6943604B68836069
:100540008B68C36010BD00003F801CF0002101607B
:1005500041608160C160016141618161C16101628D
:1005600041628162C1620163416381637047704788
:1005700051B18200A2F1C042126842F00103820030
:10058000A2F1C042136009E08200A2F1C0421268E9
:10059000034B1A408300A3F1C0431A607047000068
:1005A000FEFF0F0030B50021002200230468A400E4
:1005B000A4F1C0442168424C2140D0E901452C43BC
:1005C000C5682C4305692C4345692C4385692C4338
:1005D000C5692C43056A2C43456A2C43856A2C4324
:1005E000C56A2C43056B2C4321430468A400A4F185
:1005F000C04421608468082C0BD10468A400A4F1D5
:10060000C044246844F040050468A400A4F1C04438
:1006100025600468641CA400A4F1C044226802F0B0
:100620004042446B2468456B6D6844EA0514456B91
:10063000AD6844EA0524456BAD8944EA0544456B41
:100640002D8A44EA0554456B2D7D44EA0564456BCB
:10065000AD692C4322430468641CA400A4F1C04487
:100660002260C46AB4F5804F20D10468A400A4F1CC
:10067000C044D4F80431134C2340846B2468856B48
:100680006D6844EA0514856BAD6844EA0524856B02
:10069000AD8944EA0544856BAD692C432343046866
:1006A000A400A4F1C044C4F8043107E06FF0704521
:1006B0000468A400A4F1C044C4F8045130BD000093
:1006C0008000F7FF0000F0CFF0B50A4600210023BC
:1006D000002400BF3DE0012505FA01F3156805EA95
:1006E00003049C4234D105684F000326BE40B54345
:1006F000056015794E00B5400668354305601579EB
:10070000012D02D01579022D16D185684F000326E0
:10071000BE40B543856055794E00B5408668354387
:100720008560456801268E40B543456045689679E9
:100730008E40B6B235434560C5684F000326BE40C3
:10074000B543C560D5794E00B540C6683543C56030
:10075000491C1029BFD3F0BDF0B5002300244D077C
:10076000ED0E02FA05F3CE1000F1200555F82650E3
:100770004E07F70E0F26BE40B543CF1000F12006FE
:1007800046F82750CE1000F1200555F8265045EACE
:100790000304CE1000F1200545F82640F0BD81612C
:1007A00070474FF6FF710160002101714171817145
:1007B000C171704700BFFEE721B1028842F4806238
:1007C000028004E002884FF6FF331A40028070472F
:1007D00070B502460025002300240026938A03F00A
:1007E000020010B923F0100008B1148B01E00020C2
:1007F00070BD240443EA040020F07F4505EA0100AF
:10080000884201D1012600E000263046F0E721B100
:10081000028842F00102028004E002884FF6FE7373
:100820001A4002807047000010B504461348844205
:1008300009D10121480500F055F900214FF40010BD
:1008400000F050F918E00E48844209D101218805D2
:1008500000F048F900214FF4800000F043F90BE06C
:100860000848844208D10121C80500F03BF9002165
:100870004FF4000000F036F910BD000000540040B5
:1008800000580040005C004021B1028842F48072B0
:10089000028004E002884FF6FF631A40028070472E
:1008A00021B1028842F40072028004E002884FF60F
:1008B000FF531A40028070472DE9FF4704460D465A
:1008C0000026B1460427DFF8CC80A6884FF6C0701A
:1008D0000640684600F026F9DDF808802E48B8FB8F
:1008E000F0F01FFA80F946EA0906A68020884FF644
:1008F000FE710840208000262849286888420CD8CC
:1009000028684000B8FBF0F087B2042F00DA042713
:100910003E4309F10100208427E0E8884BF6FF718F
:10092000884206D1286800EB4000B8FBF0F087B29F
:1009300009E0286800EBC00101EB0010B8FBF0F003
:1009400087B247F48047C7F30B0008B947F00107A7
:1009500047F4004006434FF4967009FB00F04FF453
:100960007A7190FBF1F0401C2084A683208840F02F
:100970000100208026884FF6F5300640A888698956
:10098000084306432680A889298908432081BDE8B9
:10099000FF87000000127A0040420F00A08601008D
:1009A0000146088AC0B2704712B141F0010101E06E
:1009B00001F0FE01018270470182704741F28831E7
:1009C0000160002181804BF6FF71C180002101810F
:1009D00041814FF480418181704700BFFEE770473D
:1009E00070B5002100230F22C4781CB3174C246873
:1009F00004F4E064C4F5E064C4F30721C1F1040425
:100A0000E3B20A4144789C40E1B284781440214327
:100A10000C07210E0E4C05786155047804F01F0573
:100A20000124AC4005786D11AD0005F1E025C5F855
:100A3000004109E0047804F01F050124AC40054D95
:100A40000678761145F8264070BD00000CED00E0F8
:100A500000E400E080E100E010B5002807DA0A07B2
:100A6000140E054A00F00F031B1FD45403E00A07BD
:100A7000130E024A135410BD18ED00E000E400E02C
:100A80007047000029B1064A12680243044B1A60FD
:100A900004E0034A12688243014B1A607047000069
:100AA0003038024029B1064A12680243044B1A60EA
:100AB00004E0034A12688243014B1A607047000049
:100AC0003838024029B1064A12680243044B1A60C2
:100AD00004E0034A12688243014B1A607047000029
:100AE0004038024029B1064A12680243044B1A609A
:100AF00004E0034A12688243014B1A607047000009
:100B00002038024029B1064A12680243044B1A6099
:100B100004E0034A12688243014B1A6070470000E8
:100B200044380240F0B500210022002402250026AE
:100B30000223324F3F6807F00C0121B1042905D090
:100B4000082937D105E02E4F076036E02D4F0760AA
:100B500033E02A4F3F1F3F68C7F38056274F3F1FA0
:100B60003F6807F03F036EB1264FB7FBF3F7DFF89E
:100B70008CC0ACF1040CDCF800C0CCF3881C07FB83
:100B80000CF40CE01E4FB7FBF3F7DFF870C0ACF1CC
:100B9000040CDCF800C0CCF3881C07FB0CF4174FE6
:100BA0003F1F3F68C7F301477F1C7D00B4FBF5F78B
:100BB000076002E0124F076000BF00BF0F4F3F68A1
:100BC00007F0F0010909104F7A5C0768D7404760C9
:100BD0000A4F3F6807F4E051890A0B4F7A5C476877
:100BE000D7408760054F3F6807F46041490B064FC7
:100BF0007A5C4768D740C760F0BD00000838024003
:100C00000024F40000127A00280000207047000041
:100C10000CB50020019000903448006840F480300A
:100C20003249086000BF3148006800F4003000908D
:100C30000198401C0190009818B90198B0F5A04F98
:100C4000F1D12A48006800F4003010B10120009072
:100C500001E0002000900098012846D12348403050
:100C6000006840F080502149403108602048006809
:100C700040F440401E4908601C48083000681B4989
:100C8000083108600846006840F4004008600846E3
:100C9000006840F4A05008601648091F0860081F4B
:100CA000006840F08070091F086000BF0F480068AE
:100CB00000F000700028F9D040F205700E4908607D
:100CC0000A480830006820F003000849083108602D
:100CD0000846006840F00200086000BF0348083082
:100CE000006800F00C000828F8D10CBD0038024064
:100CF0000070004008544007003C0240704700006C
:100D000010B51548006840F4700013490860134896
:100D1000006840F001001149086000200F490831C7
:100D200008600E4800680E4908400C4908600D48EC
:100D3000091D0860081F006820F48020091F086052
:100D4000002006490C310860FFF762FF4FF0006099
:100D500001498039086010BD88ED00E0003802408C
:100D6000FFFFF6FE1030002421B1028842F001029C
:100D7000028004E002884FF6FE731A40028070473A
:100D80000146486A7047000000220288184B9842CA
:100D90000ED0184B98420BD0B0F1804F08D0164BB4
:100DA000984205D0154B984202D0154B984204D179
:100DB0004FF68F731A404B881A43124B984207D054
:100DC000114B984204D04FF6FF431A400B891A4347
:100DD00002804B68C3620B880385054B984202D0A2
:100DE000044B984201D18B7A03860123838270479A
:100DF00000000140000401400004004000080040E1
:100E0000000C0040001000400014004010B52021EC
:100E10000A4800F069F880B1084800F01FF9C4B230
:100E20000748006818B1204605490968884740F21C
:100E30002551024800F027F800BF10BD0010014006
:100E40000000002010B540F22551094800F04CF890
:100E500060B1074800F002F9C4B2204600F086FDF8
:100E600040F22551024800F00EF800BF10BD00000E
:100E70000044004001F40072B2F5007F00D100BFD1
:100E8000CA430280704710B50022002340F66A145E
:100E9000A14200D100BF0A1201249440A3B2DC4356
:100EA000048010BD21B1828942F40052828104E0A5
:100EB00082894DF6FF731A40828170471AB1838A86
:100EC0000B43838202E0838A8B438382704702460E
:100ED0000020B1F5007F00D100BF13880B400BB19B
:100EE000012000E00020704770B502460024002376
:100EF0000025002040F66A16B14200D100BFC1F3C0
:100F0000421501F01F03012606FA03F3012D02D159
:100F10009689334006E0022D02D1168A334001E063
:100F2000968A33400C12012606FA04F416883440DF
:100F300013B10CB1012000E0002070BDF0B50346F4
:100F4000002400260025002040F66A17B94200D18F
:100F500000BF1846C1F3421401F01F06012707FA2B
:100F600006F5012C01D10C3004E0022C01D1103027
:100F700000E014301AB107682F43076002E00768E9
:100F8000AF430760F0BD00002DE9FF4705460E4660
:100F90000024A14600BFA046B08900B100BF2C8A42
:100FA00024F44054F08804432C82AC8941F20C6054
:100FB0008443B08831890843718908430443AC8174
:100FC000AC8A24F44074B0890443AC826846FFF7CD
:100FD000A9FD2048854202D01F48854202D1DDF894
:100FE0000C9001E0DDF80890A88900F4004040B1C1
:100FF00009EBC90000EB091031684900B0FBF1F7BB
:1010000007E009EBC90000EB091031688900B0FB6B
:10101000F1F76420B7FBF0F004012009642101FB23
:101020001078A88900F4004040B1322000EBC800DD
:10103000B0FBF1F000F00700044308E0322000EBC1
:1010400008106421B0FBF1F000F00F0004432C8184
:10105000BDE8FF8700100140001401400146888868
:10106000C0F308007047C1F30802828070474FF454
:101070001651016000218180C18001810C214181D4
:1010800000218181704700BFFEE700000FB4054BCF
:1010900010B503A9044A029800F030F810BC5DF8BE
:1010A00014FB0000E91B0008380000200FB41CB539
:1010B0000246002007AC00290BD0491ECDE90021D3
:1010C000054B6A462146069800F018F8009A002160
:1010D00011701CBC5DF814FB3F14000802E008C846
:1010E000121F08C1002AFAD170477047002001E0A2
:1010F00001C1121F002AFBD1704700002DE9FF4FEC
:101100008BB088460546002606E025280BD0DDE991
:101110000D1290476D1C761C28780028F5D10FB071
:101120003046BDE8F08F0024A146A2460122AE4918
:1011300000E0044315F8013F203B02FA03F00842A7
:10114000F7D128782A2810D06FF02F022878A0F144
:101150003001092915D809EB890102EB410144F05E
:10116000020400EB01096D1CF0E758F8041B5FEA6C
:10117000010903D544F40054C9F1000944F0020404
:101180006D1C28782E2817D115F8010F44F004049F
:101190002A280ED06FF02F022878A0F130010929FB
:1011A0000AD80AEB8A0102EB410100EB010A6D1C2F
:1011B000F2E758F804AB6D1C28786C280FD006DCD9
:1011C0004C2817D068280DD06A2814D104E0742860
:1011D00010D07A280FD10DE044F400140AE044F452
:1011E000801401E044F440146978814202D104F58E
:1011F00080146D1C6D1C2878692865D006DC0028D9
:101200008DD0632827D0642806D15DE06E2808D0F1
:1012100073282AD0752877D0DDE90D129047761C07
:10122000E0E0C4F30250022809D003280DD0D8F81A
:10123000001004280DD00E6008F10408D2E0D8F8A0
:101240000010F217C1E90062F6E7D8F800100E802E
:10125000F2E70E70F0E718F8041B8DF8001000207C
:101260008DF80100EB46012003E058F804BB4FF075
:10127000FF3061074FF0000701D40AE07F1C57459B
:101280000DDA8742FADB1BF807100029F6D106E0D9
:101290007F1C8742FCDB1BF807100029F8D1DDE931
:1012A0000D23A9EB07008146214600F0B1F8304438
:1012B000C61904E0DDE90D121BF8010B90477F1EF3
:1012C000F8D22146484688E058F8040BC4F302518E
:1012D0004FF00A0B032900D100B2042900D140B21B
:1012E000002802DA40422D2102E0210505D52B21FC
:1012F0008DF82410012104E006E0E10710D0202140
:10130000F6E708AF089113E058F8040BC4F3025154
:101310004FF00A0B032900D180B2042900D1C0B2DA
:101320000021EEE75946FEF764FF303107F8011D52
:101330000028F7D1ADEB070000F1200B600702D5C4
:1013400024F4803401E04FF0010ADA4502DDAAEB13
:101350000B0000E00020824600EB0B0108980144DE
:10136000A9EB01000A90E00306D4DDE90D23214634
:101370000A9800F04DF806444FF0000908E009A96A
:1013800011F80900DDE90D12904709F10109761CF9
:1013900008998945F3DBE0030CD5DDE90D232146EF
:1013A0000A9800F035F8064404E0DDE90D1230201B
:1013B0009047761CBAF10001AAF1010AF5DC05E0BC
:1013C000DDE90D1217F8010B9047761CBBF1000107
:1013D000ABF1010BF4DC0A982146DDE90D2300F0A6
:1013E00005F806446D1C97E6092801002DE9F04137
:1013F000044600251E461746880404D405E03946F5
:101400002020B0476D1C641EF9D52846BDE8F08148
:101410002DE9F041044600251E469046C80301D53B
:10142000302700E02027880404D505E041463846EF
:10143000B0476D1C641EF9D52846BDE8F0814A68A6
:10144000002A06D00A68531C0B6010704868401EC2
:101450004860704710B588B03048FFF7E5F906A836
:10146000FFF79FF94FF44060069002208DF81C00B2
:1014700001208DF81E0000208DF81F0003208DF83C
:101480001D0006A92648FFF71FF904220A21244857
:10149000FFF762F904220B212148FFF75DF902A84A
:1014A000FFF78CFA4FF48060ADF812000001ADF840
:1014B00014001C4802904BF6FF70ADF80E0000209F
:1014C000ADF81000ADF80C0002A91448FFF7F4F9CC
:1014D00001211248FFF79BF9282000F053F900F092
:1014E00025F810B1012008B010BD0FA000680190D0
:1014F000032101A800F0A2F808B90120F3E70024B5
:1015000008E0012000F03EF900F010F808B10120D9
:10151000E9E7641C642CF4D30020E4E700580040A1
:1015200000040240A0860100BE08000008B568461D
:1015300000F070F808B9002008BD9DF80000C0F365
:10154000C000F9E72DE9F04107460D4601212F487B
:10155000FFF732F901212D48FFF796F900BF4FF44C
:101560007A7403E00A2000F00DF90A3C2849274864
:10157000FFF72EF908B9002CF4D114B90020BDE80A
:10158000F08100BF012270212048FFF70DFA00BF53
:101590004FF47A7403E00A2000F0F4F80A3C1C4986
:1015A000491C1A48FFF714F908B9002CF3D10CB9FB
:1015B0000020E4E700BF00241FE0681EA04203D122
:1015C00000211248FFF7F8F800BF4FF47A7603E0E5
:1015D0000A2000F0D7F80A3E0D493F310B48FFF7CB
:1015E000F7F808B9002EF3D10EB90020C7E700BF05
:1015F0000648FFF7D5F93855641CAC42DDD301210C
:101600000248FFF74DF90120B9E7000000580040FB
:101610000100030038B5044671200090012168469E
:1016200000F00CF808B9002038BD01212046FFF772
:1016300089FF08B90020F7E70120F5E72DE9F0411F
:1016400006460F4601212B48FFF7B6F8012129482D
:10165000FFF71AF900BF4FF47A7403E00A2000F094
:1016600091F80A3C24492348FFF7B2F808B9002C46
:10167000F4D114B90020BDE8F08100BF0022702130
:101680001C48FFF791F900BF4FF47A7403E00A2079
:1016900000F078F80A3C19491648FFF799F808B99C
:1016A000002CF4D10CB90020E5E700BF002418E0BD
:1016B000315D1048FFF780F900BF4FF47A7503E001
:1016C0000A2000F05FF80A3D0C49891E0948FFF71F
:1016D0007FF808B9002DF3D10DB90020CBE700BF8A
:1016E000641CBC42E4D301210248FFF7D9F8012071
:1016F000C1E700000058004001000300820007001D
:1017000010B501F09FF801F015F900F0FBFAFFF7B2
:10171000A1FE034801F03AF9024800F073F910BD48
:1017200099290008111A000810B501210846FFF791
:10173000A9F901210220FFF7A5F901210820FFF7EF
:10174000A1F901211020FFF79DF901210846FFF7BB
:10175000A9F901211020FFF7D5F901214804FFF76D
:10176000B1F901214805FFF78DF901218805FFF73F
:1017700089F901210846FFF7A5F901218805FFF73E
:10178000A1F910BD10B5044603E04FF47A7000F0E3
:1017900005F8201EA4F10104F7D110BD70B5044670
:1017A0004FF08040FFF7ECFA054600BF4FF0804055
:1017B000FFF7E6FA401BA042F8D370BDF0B5A1B028
:1017C00005460E46174605B116B9002021B0F0BDFA
:1017D0002B460BA2802101A80096FFF767FC044668
:1017E0003FB1C4F1800101AA10193B4609A2FFF7DD
:1017F0005DFC42F2107101A800F0A0F9E6E70000DC
:1018000041542B43574A41503D222573222C222517
:10181000732200002C2225732200000000B58FB037
:101820006846FEF793FE1248FEF75EFD00BF1048C3
:10183000FEF706FE0028FAD14FF0006000900D4838
:10184000019040200390002005904FF480600690A6
:1018500000200790089009904FF480300A900020F3
:101860000B9069460248FEF745FE0FB000BD000030
:10187000A0600240044400401CB56846FEF791FF9A
:101880000C20009002208DF8040003208DF8050044
:1018900001208DF8070069460648FEF715FF07226C
:1018A00002210448FEF758FF072203210148FEF7F2
:1018B00053FF1CBD0000024010B500F025F840F6B3
:1018C000B83000F005F908B9002010BD4FF4FA61F6
:1018D00007A000F033F908B90020F6E74FF4FA61E9
:1018E00005A000F02BF908B90020EEE70120ECE795
:1018F00041542B525354000041542B5359535354C9
:101900004F52453D3000000010B5FFF7B5FFFFF71F
:1019100085FF00F095F800F001F810BD38B5002003
:10192000009026208DF8000005208DF80100002091
:101930008DF8020001208DF803006846FFF750F88B
:1019400026200521002807DA0A07140E054A00F0B0
:101950000F031B1FD45403E00A07130E024A13544B
:1019600000BF38BD18ED00E000E400E070B50446AB
:101970001D480068FF280AD21B4801680068401C07
:10198000194A1060194844540021126881541848BB
:10199000006840F2FF3188420BD2154801680068A8
:1019A000401C134A10601348445400201149126827
:1019B00088541148006818B120460F4909688847C3
:1019C0000A2C0FD1094800F021FF054625B10B482C
:1019D000057001200A490870002003490860034986
:1019E000087000BF70BD00000C0000204A040020F9
:1019F000080000204A000020040000201100002000
:101A00001000002001490860704700000400002019
:101A100010B50446204600F0C5FF10BD10B54FF4C8
:101A2000FA6102A000F08AF810BD000041542B4377
:101A30004950534E54504346473D312C3800000026
:101A40001FB56846FFF713FB4FF4E130009000200C
:101A5000ADF80400ADF80600ADF808000C20ADF8B4
:101A60000A000020ADF80C0069460948FFF78CFA1F
:101A7000012280210648FFF721FA012240F2255178
:101A80000348FFF75BFA01210148FFF70BFA1FBD7E
:101A90000044004070B504462046FEF7A3FB05460F
:101AA00005B970BD084804600748AC38C0F8A450B8
:101AB000064905480C38FEF7D7FB012102480C38CF
:101AC000FEF706FC00BFECE7AC60024000002020FF
:101AD00070B5044600250AE0642108A000F02EF845
:101AE00008B1012070BD6420FFF74CFE6D1C64201E
:101AF000B4FBF0F0A842EFD80020F3E74154000017
:101B000010B54FF4FA6102A000F018F810BD000003
:101B100041542B43574D4F44453D310010B50446C9
:101B200000BF80210448FFF7D2F90028F9D02146F0
:101B30000148FFF798FA10BD004400402DE9F0413C
:101B400005460E46002021490870214908602149B8
:101B500008702B4620A24FF400712148FFF7A6FA27
:101B60000746002F02DC0020BDE8F0811C48FFF78B
:101B700091FF002425E01B480078E0B1154800786B
:101B8000012803D013480078042801D10120EBE795
:101B900010480078022801D10020E5E70D480078C0
:101BA000032808D100200F4908703220FFF7EAFD12
:101BB0000B48FFF76FFF0520FFF7E4FD641D0020D1
:101BC000D2E7B442D7D300BFCEE700004A000020DE
:101BD000080000201100002025730D0A00000000FD
:101BE0004A0500201000002038B504460D46E0B23A
:101BF0000090684600F0E6FE204638BD10B503466A
:101C000011B94FF0FF3010BD486870B1002006E0F8
:101C10004C68245C9C4200D1F5E7441CE0B28C7B0C
:101C20008442F5DC4FF0FF30EDE7A3F12002002AFB
:101C300002DB887B904202DC4FF0FF30E3E7104686
:101C4000E1E7000070B50446002609480588408891
:101C500045430021084600F0F1FA00F07BFC00BF8C
:101C600002E004480480761CAE42FAD370BD000046
:101C70003C0000200000086010B5044644B9002074
:101C80000D498871F02008804FF4A070488007E06B
:101C90000120094988714FF4A0700880F020488025
:101CA0002C20054908812A2048812B20888100208A
:101CB00000F098FA10BD00003C00002070B504460A
:101CC0000D4616460D49488900F04EFC201200F0E2
:101CD00035FCE0B200F032FC0849888900F044FC91
:101CE000281200F02BFCE8B200F028FC0348008921
:101CF00003490880881C068070BD00003C0000205D
:101D0000FEFF076000B5A1B00020209001211A203D
:101D1000FEF7B8FE01210846FEF7C4FE02201E9021
:101D200001208DF87C0000208DF87E0002208DF8C7
:101D30007D0001208DF87F001EA9FE48FEF7C4FC3F
:101D40004EF2B3701E9002208DF87C0000208DF8BA
:101D50007E0003208DF87D0001208DF87F001EA9F4
:101D6000F548FEF7B1FC4FF680701E9002208DF80A
:101D70007C0000208DF87E0003208DF87D0001207E
:101D80008DF87F001EA9ED48FEF79EFC0C22002175
:101D9000E948FEF7E1FC0C220121E748FEF7DCFCF4
:101DA0000C220421E448FEF7D7FC0C220521E2486E
:101DB000FEF7D2FC0C220721DF48FEF7CDFC0C22F7
:101DC0000821DD48FEF7C8FC0C220921DA48FEF79D
:101DD000C3FC0C220A21D848FEF7BEFC0C220D21C0
:101DE000D548FEF7B9FC0C220E21D348FEF7B4FC0F
:101DF0000C220F21D048FEF7AFFC0C220721CF4860
:101E0000FEF7AAFC0C220821CC48FEF7A5FC0C2208
:101E10000921CA48FEF7A0FC0C220A21C748FEF798
:101E20009BFC0C220B21C548FEF796FC0C221146A8
:101E3000C248FEF791FC0C220D21C048FEF78CFC35
:101E40000C220E21BD48FEF787FC0C220F21BB4857
:101E5000FEF782FC0F200890002009903C200A9099
:101E600000200B900C900D900E900220019000200D
:101E700002900320039000200490059006900790A4
:101E80000F90109011901020129000201390159038
:101E90001490169017904FF48050189000201990CD
:101EA0004FF480401A9000201B9008A81C9001A8B5
:101EB0001D900FA8FEF776FB01210020FEF758FBCE
:101EC0003220FFF75FFC0121002000F059FB322097
:101ED000FFF758FC00209A498880D32000F044FB8B
:101EE00000F076F900F074F900F072F994498880F6
:101EF000084680884FF6FF7101EA002090498880EB
:101F000000F066F98E49898808438D498880084623
:101F1000808849F2413188421DD18A48006820F00A
:101F20000F004FF02041C1F81C010846D0F81C01F9
:101F300020F47060C1F81C010846D0F81C0140F084
:101F40000300C1F81C010846D0F81C0140F40070E1
:101F5000C1F81C0103E04FF6FF707949888078488A
:101F6000808849F2413188427ED1CF2000F0FCFACE
:101F7000002000F0E3FA2098401C2090C12000F0DF
:101F8000DDFA302000F0DAFAED2000F0EDFA6420FE
:101F900000F0D4FA032000F0D1FA122000F0CEFABB
:101FA000812000F0CBFAE82000F0DEFA852000F076
:101FB000C5FA102000F0C2FA7A2000F0BFFACB2058
:101FC00000F0D2FA392000F0B9FA2C2000F0B6FA6D
:101FD000002000F0B3FA342000F0B0FA022000F044
:101FE000ADFAF72000F0C0FA202000F0A7FAEA20AE
:101FF00000F0BAFA002000F0A1FA002000F09EFAEA
:10200000C02000F0B1FA1B2000F098FAC12000F0C7
:10201000ABFA012000F092FAC52000F0A5FA3020BA
:1020200000F08CFA302000F089FAC72000F09CFA0A
:10203000B72000F083FA362000F096FA482000F02E
:102040007DFA3A2000F090FA552000F077FAB1209E
:1020500000F08AFA002000F071FA1A2000F06EFAFF
:10206000B62000F081FA00E0A3E00A2000F066FA52
:10207000A22000F063FAF22000F076FA002000F0CF
:102080005DFA262000F070FA012000F057FAE020F7
:1020900000F06AFA0F2000F051FA2A2000F04EFA00
:1020A000282000F04BFA082000F048FA0E2000F03B
:1020B00045FA082000F042FA542000F03FFAA92027
:1020C00000F03CFA432000F039FA0A2000F036FA1A
:1020D0000F2000F033FA002000F030FA002000F06A
:1020E0002DFA002000F02AFA002000F027FAE12063
:1020F00000F03AFA002000F021FA152000F01EFA54
:10210000172000F01BFA072000F018FA112000F049
:1021100015FA062000F012FA2B2000F00FFA5620D4
:1021200000F00CFA3C2000F009FA052000F006FA55
:10213000102009E000040240000C024000100240A0
:102140003C0000201C0100A000F0F8F90F2000F076
:10215000F5F93F2000F0F2F93F2000F0EFF90F20F1
:1021600000F0ECF92B2000F0FFF9002000F0E6F978
:10217000002000F0E3F9012000F0E0F93F2000F03A
:10218000DDF92A2000F0F0F9002000F0D7F9002056
:1021900000F0D4F9002000F0D1F9EF2000F0CEF9E2
:1021A000112000F0E1F97820FFF7ECFA292000F087
:1021B000DBF90020FFF760FD02210448FEF7EFFA8B
:1021C0004FF6FF70FFF73EFD21B000BD0004024056
:1021D00008B5034800880090BDF8000008BD000065
:1021E0000000086070B5054600240026082D1CD2AA
:1021F000DFE805F00406090C0F12151800BF14E003
:1022000044F0800411E044F040040EE044F0C004C7
:102210000BE044F0200408E044F0600405E044F0E2
:10222000A00402E044F0E00400BF00BF44F0080452
:1022300036262146304600F0A3F970BD70B504463D
:102240000D460A49488900F08FF9201200F076F90E
:10225000E0B200F073F90549888900F085F9281289
:1022600000F06CF9E8B200F069F970BD3C000020A4
:102270002DE9FF4F83B00E461D460DB1286810B9F9
:1022800007B0BDE8F08F29460598FFF7B7FC074671
:10229000002F00DAF4E7AC89B0462046E31704EBE0
:1022A0005373DB1021464FEAE47C04EB5C7C4FEA7D
:1022B000EC0CA4EBCC0CBCF1000F02D04FF0010CE5
:1022C00001E04FF0000C6344224604EBD27C4FEA5D
:1022D0006C0C03FB0CF31FFA83F9286807FB090A4F
:1022E0004FF0000B32E01AF80B0002900020019032
:1022F00024E0029800F0800028B13146119A03983A
:10230000FFF7DCFC06E0109820B93146129A0398DA
:10231000FFF7D4FC02984006000E0290701C86B2B3
:10232000A6EB0800A04205D146460398401C80B2A7
:10233000039006E00198401CC0B201900198082863
:10234000D7DB00BF0BF101001FFA80FBCB45CADBD6
:1023500000BF95E72DE9F04F87B081468A46934646
:102360001D4625B1A86810B1BBF1000F02D107B01E
:10237000BDE8F08FAC68CDF81890CDF814A0AE8908
:10238000F01DC11700EB5171CF1007FB06F080B2B2
:10239000049061E0206800789BF8001088425AD1D0
:1023A000206840789BF80110884254D160680390FF
:1023B000002002904BE04FF0000837E0029800FB4D
:1023C00007810398405C01900020009026E000986F
:1023D00000EBC800B04200DB23E08021009841FA06
:1023E00000F00199084028B151464846119AFFF77C
:1023F00065FC06E0109820B951464846129AFFF74E
:102400005DFC09F101001FFA80F917480088484572
:1024100000DCACE70098401CC0B20090009808288F
:10242000D5DB00BF08F101001FFA80F8B845C5DB15
:102430000AF101001FFA80FADDF818900A48408876
:10244000504500DC93E70298401C80B2029002984D
:10245000B042B0DB8BE70834206810B16068002818
:1024600098D100BF83E700003C0000202DE9FF5F0A
:102470000746894614469A46BAF1000F00D00CB9B7
:10248000BDE8FF9F0397BAF80C6000254EE0605D41
:1024900000F0800008B1022000E001208046B8F181
:1024A000020F03D1681C205C00B942E0B8F1010FB3
:1024B00004D1304600EBD071491000E031461FFADC
:1024C00081FB07EB0B001C490988884204DD039F50
:1024D00009EB06001FFA80F909EB06001649498846
:1024E000884200DD25E0B8F1010F0CD1DDE90E12C4
:1024F0001098CDE900120290625D53464946384675
:10250000FFF7B6FE0BE0DDE90E121098CDE90012E0
:1025100002906219534649463846FFF71BFF07EB06
:102520000B0087B205EB080085B200BF605D002894
:10253000ADD100BF00BFA3E73C00002001B5BDF84E
:1025400000000090BDF800000149088008BD0000AF
:1025500000000860024800890249088070470000B6
:102560003C000020FEFF076001B5BDF800000090B0
:10257000BDF800000149088008BD0000FEFF0760AB
:1025800003B5BDF8000003490880BDF80400891CAC
:1025900008800CBDFEFF07600EB5FFF7C5F8FFF71A
:1025A000AFF84FF47840FFF74DFB4FF4FA60FFF7B8
:1025B000E9F800204FF6E07101223F4BCDE9002100
:1025C000029061220146FFF753FE00204FF6E071B2
:1025D0000122394BCDE90021029038A21021FFF7EA
:1025E00045FF00200122CDE90020374B37A21821FA
:1025F0000290FFF73BFF00200122CDE90020354B80
:1026000035A239210290FFF731FF00200122CDE9E8
:102610000020324B32A26E210290FFF727FF0020EC
:102620000122CDE900202F4B2FA296210290FFF727
:102630001DFF00200122CDE90020304B30A2CD212A
:102640000290FFF713FF00201F210122254BCDE947
:10265000002102902FA201464820FFF77BFE2EA208
:1026600030A133A0FEF712FDFFF726F910B937A00D
:10267000FEF70CFD3AA0FEF709FDFFF741FA10B98D
:102680003BA0FEF703FD40A0FEF700FD002242A1A3
:1026900044A0FFF793F810B946A0FEF7F7FC4BA053
:1026A000FEF7F4FCFFF7BAF910B94EA0FEF7EEFC06
:1026B00052A0FEF7EBFC0EBDC8300008313233618A
:1026C00062632A262F3F0000E47200083233202D77
:1026D0000000000040860008313233003C660008EC
:1026E00031323A00604D0008CCECC6F8CAB1D6D3FE
:1026F000C1ACBDD3D6D0A1E600000000905C0008BC
:10270000D2BBB6FEC8FDCBC4CEE5C1F9C8D5D0C793
:10271000C6DA0000C3B7000032333A34323A3036FA
:10272000000000004F637420323620323032350012
:102730005B5359535D204275696C64204461746534
:102740003A2025732025730A000000005B41545D88
:1027500020696E6974206661696C6564210A0000F5
:102760005B41545D20696E69746564210A00000054
:102770005B574946495D20696E6974206661696CE2
:102780006564210A000000005B574946495D2069E5
:102790006E69746564210A00313233343536373856
:1027A000000000005265646D69204B363020507285
:1027B0006F0000005B574946495D20636F6E6E6590
:1027C0006374206661696C6564210A005B57494641
:1027D000495D20636F6E6E656374696E672E2E2E81
:1027E0000A0000005B534E54505D20696E697420EE
:1027F0006661696C6564210A000000005B534E54F9
:10280000505D20696E69746564210A0070B50546E3
:10281000002411E00A4800EBC400406858B10848A1
:1028200000EBC40041682846FDF7CAFC18B1044813
:1028300010F8340070BD641C042CEBD30020F9E7C1
:102840006C2A00080EB54FF0FF3001900B4800686D
:102850000B49B0FBF1F0401E80B2ADF80000002043
:10286000ADF80800ADF8020069464FF08040FEF771
:102870008BFA01218807FEF777FA0EBD14000020BD
:1028800040420F0000B58FB06846FDF75FFE164866
:10289000FDF72AFD00BF1448FDF7D2FD0028FAD14C
:1028A0004FF00060009011480190402003900020FC
:1028B00005904FF4806006900020079008900990E2
:1028C0000A900B90012210210748FDF7F5FD69469B
:1028D0000548FDF70FFE012280210448001FFEF786
:1028E000EDFA0FB000BD0000B864024004100140D2
:1028F0001CB56846FDF755FF4FF4C06000900220FC
:102900008DF8040001208DF8070003208DF80500E4
:1029100069460748FDF7D8FE072209210448FDF75C
:102920001BFF07220A210248FDF716FF1CBD00000D
:102930000000024010B5FFF7DBFFFFF7A3FF00F038
:102940006FF800F001F810BD08B5002000902520B8
:102950008DF8000005208DF8010000208DF80200A0
:1029600001208DF803006846FEF73AF8052125207E
:10297000FEF772F846208DF800006846FEF730F842
:1029800005214620FEF768F808BD000001490860EF
:10299000704700000000002010B504462046FFF7F5
:1029A000BDF810BD10B5044600BF80210448FEF7F5
:1029B0008EFA0028F9D021460148FEF754FB10BDDD
:1029C0000010014070B504462046FDF70BFC05469B
:1029D00005B970BD00211048FDF77AFC00BF0E4814
:1029E000FDF72EFD0028FAD10B480C3004600A4890
:1029F000001D05600121001FFDF76AFC00BF40219A
:102A00000648FEF764FA0028F9D040210348FEF793
:102A100031FA00BFDDE70000B86402400010014059
:102A20001FB56846FEF723FB4FF4E130009000200D
:102A3000ADF80400ADF80600ADF808000C20ADF8C4
:102A40000A000020ADF80C0069460748FEF79CFA22
:102A5000012240F225510448FEF770FA0121024894
:102A6000FEF720FA1FBD0000001001400100000029
:102A70005C86000802000000648600080300000075
:102A800050860008040000006C860008908600084C
:102A900074860008A4860008A8860008BC86000882
:102AA000988600088C86000884860008A0860008A6
:102AB000B0860008B886000878860008948600086A
:102AC000808600087C860008B48600088886000896
:102AD000AC8600089C860008000000000000000092
:102AE00000000000000000000000000000001FB017
:102AF0001FB0000000000000000000001E000000E9
:102B000000001E0000000000024006501FF01E40A2
:102B100006701FF01E40024000000E301B103D7872
:102B20003D7819900CF000000E101E7013C01E00AE
:102B300000F006901CF0086000000DF01E3011D06F
:102B400018900C2001F000100000000000001E0092
:102B50001E00000000000000000000000FE01C78D4
:102B6000301C200C0000000000000000200C301C75
:102B70001E7807E0000000000000034003C007E0EB
:102B800007E003C00340000000000180018007E06F
:102B900007E0018001800000000000020002003414
:102BA000003C000000000000000001800180018066
:102BB0000180018001800000000000000000003062
:102BC00000300000000000000000000C003801E0B0
:102BD00007803C003000000000000FE01CF019905E
:102BE0001B101E700FE0000000000C1008101810E1
:102BF0001FF000100010000000000830187010D006
:102C000011901F100E100000000008301910111054
:102C10001B100FF004E00000000000C003C00640DD
:102C20001C401FF00040004000000E301F10191023
:102C3000191019F010E00000000003E0073009103F
:102C40001910113001E00000000018001810187071
:102C500019C01F001C00000000000EE01FB0111082
:102C600011101FB00EE0000000000F00199011902D
:102C7000113019E00F800000000000000000033058
:102C800003300000000000000000000200020334D6
:102C9000033C00000000000000000180018003C030
:102CA0000240066006200000000002400240024090
:102CB0000240024002400000000006200660024080
:102CC00003C0018001800000000008001C0019B052
:102CD00011B01B000E0000000C4009F00B100B801F
:102CE00009F00C1007D00190000000F007C01E4052
:102CF0001E4007C000F0000000001FF01FF0191078
:102D000019101FB00EE00000000007E00C70183032
:102D1000101018101830000000001FF01FF01810DD
:102D200018100C7007E0000000001FF01FF01910D1
:102D3000191019101910000000001FF01FF01900E1
:102D4000190019001900000000000FE018301010E1
:102D5000111019B00DE0000000001FF01FF001007D
:102D600001001FF01FF000000000101018101FF0ED
:102D70001FF018101010000000000070181018103C
:102D800018101FF00FE0000000001FF01FF0078078
:102D90000CC0187010100000000000001FF00010A0
:102DA000001000100010000000001FF01C00078041
:102DB00007801C001FF0000000001FF01C0007002F
:102DC00001E000301FF0000000000FE01C70181040
:102DD00018101C700FE0000000001FF01FF0190019
:102DE000190019000F00000000000FE01C70101007
:102DF00010141C740FE6000000001FF01FF01900F3
:102E0000198019E00F30000000000E201F30111053
:102E100011101DB008E000000000180018001FF09D
:102E20001FF018001800000000001FE00FF0001055
:102E300000100FF01FE0000000001C0007C000F0B1
:102E400000F007C01C00000018001FF0007007C051
:102E500007C000701FF01800000018300C6007C099
:102E600007C00C6018300000000018000E0003F0CE
:102E700003F00E00180000000000103018F019D008
:102E80001F101E1018100000000000003FFC60041E
:102E90006004600400000000000020003C00070007
:102EA00001E00038000C0000000000006004600435
:102EB00060043FFC000000000000010007000C005F
:102EC0000C000700010000000000000400040004E2
:102ED0000004000400040000000000003000300086
:102EE0001C00080000000000000003E00330061092
:102EF000063003E007F0000000001FF01FF006108E
:102F00000610073003E00000000001E00370061027
:102F10000610061002300000000003E00730061023
:102F200006101FF01FF00000000001E003B0069043
:102F3000069002B003A000000000030003000FF0A1
:102F40001B001B001B000000000003E407360612F4
:102F5000063203FE07FC000000001FF01FF0060011
:102F6000060007F003F000000000021002101A1023
:102F700013F000100010000000040006020202021C
:102F80001BFE13FC0000000000001FF01FF001807A
:102F900003C00670041000000000100018001FF0AD
:102FA0000030001000100000000007F0040007F0DF
:102FB00003F0040007F00000000007F003F0060033
:102FC000060007F003F00000000003E003700610A5
:102FD0000610037003E00000000007FC03FC021071
:102FE0000610073003E00000000003E00730061081
:102FF000021003FC07FC0000000007F007F00200CD
:1030000006000680030000000000032003B00690C5
:10301000069002F0026000000000020002000FF0C3
:103020000210021002100000000007E003F0001080
:10303000001003F007F000000000070003C000705C
:10304000007003C007000000020007F0003001C05C
:1030500001C0003007F0020000000410077001C03A
:1030600001C00770041000000000060203C6007CC7
:10307000007801E00700000000000630067006D06E
:1030800007900710021000000000010001003FF847
:103090003EFC6004200400000000000000003FF837
:1030A0003FFC0000000000000000600420043EFC23
:1030B0003FF8010001000000000001800100010054
:1030C0000180008001800000D82A00080000000074
:1030D0000000000010005F00000000000000000081
:1030E0000000000000000000000000000181C0009E
:1030F0000181C0000183FFF00183FFF00187000020
:103100000FF700000FEFFFE00381FFE003C198E03D
:1031100003E39CE003E38CE007B7FFF007BFFFF099
:103120000F8390E00D8338E01D831CE00987FFE0EA
:103130000187FFF00183FFE0018001C001800FC023
:103140000180078000000000000000000000000077
:10315000000000000000000000000000000000006F
:10316000000000000000000000000000000000005F
:1031700003FFFFC007FFFFE003FFFFC00003800065
:103180000003800000038000000380000003800033
:103190000FFFFFF007FFFFF00003C0000007E00093
:1031A0000007E000000F7000001E7800003C3C00AB
:1031B00000F81F0001F00FC007E007E00F8001F0EA
:1031C0000600006000000000000000000000000099
:1031D00000000000000000000000000000000000EF
:1031E000000000000000000000000000006000007F
:1031F00000F0000000FFFFE001FFFFE001C0000061
:103200000380000007BFFF800F3FFF800E0000001B
:1032100001FFFE0001FFFF000000070000000700A3
:103220000000070000000700000007000000070082
:1032300000000710000003B8000003F0000001F0D8
:10324000000000F00000000000000000000000008E
:10325000000000000000000000000000000000006E
:1032600000000000000000000000000000000180DD
:10327000000001C007F801C00FFC01C00E1DFFF0E7
:103280000E1DFFF80E1DFFF00E1C01C00FFC01C04B
:103290000FFCC1C00FFCE1C00E1CF1C00E1C79C0B8
:1032A0000E1C39C00E1C11C00FFC01C00FFC01C068
:1032B0000FF801C0060001C004003FC000003F80BD
:1032C00000001E00000000000000000000000000E0
:1032D00000000000000000000000000000000000EE
:1032E00000000000000000000000000001800C0051
:1032F00003800E0003F80E0007FC0E000FF8FFE03D
:103300000E01FFF00C03FFF003FB8E7003FB8E70C9
:1033100000C38E7000C38E7007FB8E700FFFFFF02E
:1033200007FBFFF000C38E7000C18E2000C00E00AE
:1033300000DC0E0000FC0E0001F80E0001E00E00A3
:1033400000000C0000000000000000000000000071
:10335000000000000000000000000000000000006D
:103360000000000000000000000000000200C0009B
:103370000700E000038FFFE001DFFFE000C18000F5
:103380000003880000031800000618000F8FFFC01C
:103390000F87FFE0018018000180180001801800ED
:1033A000019FFFF0019FFFF00180180001801800CD
:1033B00003C0180007E018000E3C00700C1FFFF05F
:1033C0000001FFE00000000000000000000000001D
:1033D00000000000000000000000000000000000ED
:1033E000000000000000000000000000018030002C
:1033F000018038000187FFE00187FFE00180810044
:103400000FE1C3800180C30001808600018FFFF0BF
:103410000187FFE00180300001E060000FCFFFF086
:103420000F8FFFF001818180018383800183C700BA
:103430000180FE0001801F000180FFC0078FE1E0D6
:10344000070E006000000000000000000000000007
:10345000000000000000000000000000000000006C
:1034600000000000000000000000000000018000DB
:1034700000018000000180000001800007FFFFE0E4
:1034800007FFFFE0060180E0060180E0060180E022
:10349000060180E0060180E0060180E007FFFFE012
:1034A00007FFFFE0060180E002018040000180008C
:1034B0000001800000018000000180000001800008
:1034C000000180000000000000000000000000007B
:1034D00000000000000000000000000000000000EC
:1034E00000000000000000000000000000000000DC
:1034F0000000000070780000D9FE0000CBCF000073
:103500007B870000070000000700000006000000A5
:103510000600000006000000060000000600000093
:103520000600000006000000070000000700000081
:103530000386000003FF000000FE00000000000002
:10354000000000000000000000000000000000007B
:10355000000000000000000000000000000000006B
:10356000000000000000000000000000000000005B
:10357000000000000000000000000000000000004B
:10358000000000000000000000000000000000003B
:10359000000000000000000000000000000000002B
:1035A000000000000000000000000000000000001B
:1035B00000F8038001FFE38001FFE38000F803804F
:1035C00000000000000000000000000000000000FB
:1035D00000000000000000000000000000000000EB
:1035E000000000000000000001FC000001FC0000E1
:1035F00000FC0000000000000000000000FC0000D3
:1036000001FC000001FC00000000000000000000C0
:10361000000000000000000000000000000C380066
:10362000000C3800000C3F80003FFF8001FFFF00CE
:1036300001FC3800000C3800000C3800000C3F8002
:10364000007FFF8001FFFE0001FC3800000C380005
:10365000000C380000000000000000000000000026
:10366000007C0E0000FE0F0001E703800003000055
:103670000003800007F9BFF007FDBFF000018000E4
:103680000101C00000E0E38000F0FF0000707E0058
:10369000000008000000000000000000007C0300A3
:1036A00000FE0F0001C71E0001833C0001C3700033
:1036B00000EF200000FE1E0000387F00000277802F
:1036C000000EE180001EE180007C638000F07F80BE
:1036D00000E03F00000000000000000000000000CB
:1036E00000307F0000FCFF0000FE438001C7018026
:1036F000018381800181E18001C0F18000E073805D
:1037000000F0270000200F000000FE000000F980FC
:1037100000006180000000000000000000000000C8
:103720000000000000000000000000000000000099
:103730000000000001FC000001FC0000000000008F
:103740000000000000000000000000000000000079
:103750000000000000000000000000000000000069
:103760000000000000000000000FFC00007FFF00D0
:1037700000FC1F8001E003E003C000F007000070C0
:103780000E000038060000180000000000000000D5
:103790000000000000000000000000000000000029
:1037A00000000000000000080E00001807000038AC
:1037B0000780007003C001E001F007C000FE3F80F9
:1037C000003FFE00000FF8000000000000000000B5
:1037D00000000000000000000000000000000000E9
:1037E00000061800000738000003B0000001F000D8
:1037F0000001E000001FFE00001FFE000001E000CD
:103800000001F0000003B0000007380000061800B7
:1038100000000000000000000000000000000000A8
:103820000000C0000000C0000000C0000000C00098
:103830000000C000001FFE00001FFE000000C000CE
:103840000000C0000000C0000000C0000000C00078
:103850000000000000000000000000000000000068
:103860000000000000000004000000040000000C44
:103870000000038C00000798000007F8000003E038
:103880000000000000000000000000000000000038
:103890000000000000000000000000000000000028
:1038A0000000C0000000C0000000C0000000C00018
:1038B0000000C0000000C0000000C0000000C00008
:1038C0000000C0000000C0000000C0000000C000F8
:1038D00000000000000000000000000000000000E8
:1038E00000000000000000000000000000000000D8
:1038F00000000380000007800000078000000380B4
:1039000000000000000000000000000000000000B7
:1039100000000000000000000000000000000000A7
:1039200000000010000000F0000003F000000FC0D5
:1039300000007E000001F800000FC000003F000002
:1039400001FC000007E00000078000000400000008
:103950000000000000000000000000000000000067
:10396000001FF800007FFE0000F87F0000E0738079
:1039700001C0E1800181C1800183818001C7818014
:1039800000E7038000FE0F00007FFE00001FF8002C
:103990000000000000000000000000000000000027
:1039A00000100180003001800070018000E0018083
:1039B00000C0018001C0018001FFFF8000FFFF8087
:1039C00000000180000001800000018000000180F3
:1039D0000000018000000000000000000000000066
:1039E0000000038000C0078000C0078001C00F8076
:1039F00001801D80018039800180718001C0E180DB
:103A000000C1C18000FF8180007F0180003C0180F7
:103A100000000000000000000000000000000000A6
:103A20000040030000C0038001C1818001C181808A
:103A3000018181800181818001C3818000C38180F7
:103A400000E6C38000FEFF00003CFF0000003C00D9
:103A50000000000000000000000000000000000066
:103A6000000038000000F8000001F800000798008E
:103A7000000F1800003C18000078180000F0180033
:103A800001FFFF8001FFFF80000018000000180008
:103A9000000018000000000000000000000000000E
:103AA0000000030000FF038000FF818001C38180CC
:103AB00001C3818001C3818001C1818001C18180F6
:103AC00001C1C38001C1FF0001C0FF0000403C00F4
:103AD00000000000000000000000000000000000E6
:103AE0000001FE000007FF00001EC70000398380B0
:103AF0000071018000E3018000C301800183018027
:103B0000018383800001C7000001FF000000FE0068
:103B100000000000000000000000000000000000A5
:103B200000C0000001C0000001C0000001C0018011
:103B300001C0078001C01F0001C0FC0001C3F000EC
:103B400001CFC00001FE000000F8000000E000000E
:103B50000000000000000000000000000000000065
:103B600000383E00007E7F0000FEE70000C3C380F7
:103B700001C38180018181800181818001C38180B5
:103B800000C3C38000FEE700007E7F0000383E00D7
:103B90000000000000000000000000000000000025
:103BA000003F0000007F800000E1C00000C0C08036
:103BB00001C0C1800180C3800180C30001C0CE006C
:103BC00000C09C0000E1F800007FF000003FC00052
:103BD00000000000000000000000000000000000E5
:103BE00000000000000000000000000000000000D5
:103BF00000070380000F0780000F07800007038085
:103C000000000000000000000000000000000000B4
:103C100000000000000000000000000000000000A4
:103C20000000000000000004000000040000000C80
:103C30000007038C000F0798000F07F8000703E048
:103C40000000000000000000000000000000000074
:103C50000000000000000000000000000000000064
:103C60000000C0000001E0000001E0000003F000DF
:103C70000003B000000338000007380000061C00F5
:103C8000000E1C00000C0C00001C0E0000080400BC
:103C90000000000000000000000000000000000024
:103CA000000618000006180000061800000618009C
:103CB000000618000006180000061800000618008C
:103CC000000618000006180000061800000618007C
:103CD00000000000000000000000000000000000E4
:103CE00000080400001C0E00000C0C00000E1C005C
:103CF00000061C0000073800000338000003B00075
:103D00000003F0000001E0000001E0000000C0003E
:103D100000000000000000000000000000000000A3
:103D2000000000000070000000F0000000E0000053
:103D300001C003800180E3800181E38001C3C3806F
:103D400001C3000000FF000000FE0000003800007A
:103D500000000000000000000010000000303E00E5
:103D60000070FF800061FF800063818000E30180BC
:103D700000E3000000E3FC000061FF0000607F80C2
:103D80000070038000380180003F0180000FF18047
:103D90000003F1800000000000000000000000802F
:103DA00000000F8000007F800003FC00003FD00077
:103DB00000FE100001F0100001F0100000FE1000E5
:103DC000003FD0000003FC0000007F8000000F8057
:103DD0000000008000000000000000000000000063
:103DE000007FFE0000FFFF8001FFFF8001C1818096
:103DF00001C1818001C1818001C1818000C18180B8
:103E000000C3C38000FEE700007E7F0000183E0074
:103E100000000000000000000000000000000000A2
:103E2000001FF800003FFE0000781F0000E00700C0
:103E300000C0038001C001800180018001800180F9
:103E400001C0018001C0018000E0038000E00300A8
:103E50000020010000000000000000000000000041
:103E6000007FFF0000FFFF8001FFFF8001C0018095
:103E700001C0018001C0018000C0018000C003803A
:103E800000E0070000781F00003FFE00000FF80070
:103E90000000000000000000000000000000000022
:103EA0000000000000FFFF8001FFFF8001C1818052
:103EB00001C1818001C1818001C1818001C18180F6
:103EC00001C1818001C1818001C1818000800180A8
:103ED00000000000000000000000000000000000E2
:103EE0000000000000FFFF8001FFFF8001C1800093
:103EF00001C1800001C1800001C1800001C18000BA
:103F000001C1800001C1800001C1800000C000002B
:103F10000000000000000000000000000001E000C0
:103F2000003FFC00007FFE0000F0070000C003809F
:103F300001C00180018081800180C18001C0C180F9
:103F400000C0C38000F0FF000070FF000010FC0004
:103F50000000000000000000000000000000000061
:103F600000FFFF0001FFFF8001FFFF8000018000D4
:103F7000000180000001800000018000000180003D
:103F80000001800001FFFF8001FFFF8000FFFF00B4
:103F90000000000000000000000000000000000021
:103FA0000000000000C0018001C0018001C001804C
:103FB00001C0018001FFFF8001FFFF8001C001807F
:103FC00001C0018001C0018000C00180000000002C
:103FD00000000000000000000000000000000C00D5
:103FE00000000F0000000F000000038001C00180EE
:103FF00001C0018001C0018001C0018001C00180B9
:1040000001C0038000FFFF0000FFFE000000000071
:1040100000000000000000000000000000000000A0
:1040200000FFFF8001FFFF8001FFFF800003C00051
:104030000007C000000FE000001CF00000783C000A
:1040400000F01E0001C00780018003800000018095
:104050000000000000000000000000000000000060
:104060000000000000FFFF0001FFFF8001FFFF8054
:10407000000001800000018000000180000001803C
:10408000000001800000018000000180000001802C
:10409000000001800000000000000000000000009F
:1040A00001FFFF8001FFFF8001E0000000FC000035
:1040B000001F80000003E0000003E000001F8000FC
:1040C00000FC000001E0000001FFFF8001FFFF8015
:1040D00000000000000000000000000000000000E0
:1040E00000FFFF8001FFFF8001FFFF0000F80000DC
:1040F000003E0000000FC0000001F00000007E0044
:1041000000001F8000FFFF8001FFFF8001FFFF8094
:10411000000000000000000000000000000000009F
:10412000001FF800007FFE0000F80F0000E0038091
:1041300001C00180018001800180018001C00180F7
:1041400000E0038000F80F00007FFE00001FF80071
:10415000000000000000000000000000000000005F
:10416000007FFF8000FFFF8001FFFF8001C1800012
:1041700001C1800001C1800001C1800000C1800038
:1041800000C1800000E3800000FF0000007F00000D
:10419000001C000000000000000000000000000003
:1041A000001FF800007FFE0000F80F0000E0038011
:1041B00001C00180018001980180019801C001982F
:1041C00000E0039800F80F1C007FFE0C001FF80CA5
:1041D00000000000000000000000000000000000DF
:1041E000007FFF8000FFFF8001FFFF8001C1800092
:1041F00001C1800001C1800001C1C00000C1F00008
:1042000000C1FC0000E39F0000FF0780007F0180E9
:10421000001C000000000000000000000000000082
:1042200000180E00007E0F0000FF070000C303808F
:1042300001C38180018181800181818001C18180F0
:1042400000C1C38000F0E70000707F0000003E0066
:1042500000000000000000000000000000800000DE
:1042600001C0000001C0000001C0000001C000004A
:1042700001C0000001FFFF8001FFFF8001C00000BE
:1042800001C0000001C0000001C0000001C000002A
:10429000008000000000000000000000000000009E
:1042A00000FFF80001FFFE0000FFFF000000038098
:1042B00000000180000001800000018000000180FA
:1042C0000000038000FFFF0001FFFE0000FFF80078
:1042D00000000000000000000000000000000000DE
:1042E00001E0000001FE0000007FC0000007F800B0
:1042F00000007F0000000F8000000F8000007F8022
:104300000007F800007FC00001FE000001E000008F
:1043100000000000000000000000000001FC0000A0
:1043200001FFFE00003FFF800000038000003F808F
:104330000007FE00000F8000000F80000007FE0055
:1043400000003F8000000380003FFF8001FFFE006F
:1043500001FC000000000000000000000000000060
:104360000180018001E0078000F00F00003C3C006C
:10437000001FF8000007E0000007E000001FF80041
:10438000003C3C0000F00F0001E00780018001804C
:10439000000000000000000000000000008000009D
:1043A00001C0000000F00000007C0000001F0000C1
:1043B0000007C0000001FF800001FF800007C0006F
:1043C000001F0000007C000000F0000001C00000A1
:1043D000008000000000000000000000000000005D
:1043E0000080030001C0078001C01F8001C03D8024
:1043F00001C0F18001C1E18001C7818001CF01804E
:1044000001FC018001F8018000E0018000000180D2
:10441000000000000000000000000000000000009C
:10442000000000000000000007FFFFF00FFFFFF892
:104430000E0000380C0000180C0000180C000018CA
:104440000C0000180C000018000000000000000024
:10445000000000000000000000000000000000005C
:10446000040000000780000007E0000001FC0000DD
:10447000003F0000000FC0000001F80000007E00B7
:1044800000000FC0000003F0000000F0000000106A
:10449000000000000000000000000000000000001C
:1044A00000000000000000000C0000180C000018C4
:1044B0000C0000180C0000180C0000180E0000384A
:1044C0000FFFFFF807FFFFF00000000000000000F2
:1044D00000000000000000000000000000000000DC
:1044E000000000000001800000078000001F0000A5
:1044F000003C00000070000000700000003C000064
:10450000001F000000078000000180000000000084
:10451000000000000000000000000000000000009B
:10452000000000180000001800000018000000182B
:10453000000000180000001800000018000000181B
:10454000000000180000001800000018000000180B
:10455000000000000000000000000000000000005B
:104560000000000000000000020000000700000042
:104570000380000001C0000000E0000000700000A7
:10458000007000000030000000000000000000008B
:10459000000000000000000000000000000000001B
:1045A0000000FE000003FF000007C780000E01802E
:1045B000000C0180000C0180000C0180000C070041
:1045C00000073E00000FFF00000FFF800000018089
:1045D00000000000000000000000000000000000DB
:1045E00000FFFF8001FFFF8001FFFF800006030046
:1045F000000C0180000C0180000C0180000C018087
:10460000000E0380000FFF800007FF000000FC0089
:10461000000000000000000000000000000000009A
:104620000000F8000003FE000007FF00000E0380FA
:10463000000C0380000C0180000C0180000C018044
:10464000000C0180000C0380000E03000006010036
:10465000000000000000000000000000000000005A
:104660000000FC000007FF00000FFF80000E038029
:10467000000C0180000C0180000C0180000C018006
:104680000006030001FFFF8001FFFF8000FFFF80A5
:10469000000000000000000000000000000000001A
:1046A0000001FC000007FE000007EF00000E638021
:1046B000000C6180000C6180000C6180000C618046
:1046C000000E6180000FE3800007E3000000E000BF
:1046D00000000000000000000000000000030000D7
:1046E00000030000000300000003000000030000BE
:1046F000007FFF8000FFFF8000C3000000C30000B8
:1047000001C3000001C3000001C3000000C300009A
:104710000000000000000000000000000000000099
:104720000001F8080007FE18000FFF1C000E038CA4
:10473000000C018E000C0186000C0186000C030E9B
:104740000006061C000FFFFC000FFFF8000FFFC063
:104750000000000000000000000000000000000059
:104760000000000001FFFF8001FFFF800006000045
:10477000000C0000000C0000000C0000000C000009
:10478000000E0000000FFF800007FF800000000007
:104790000000000000000000000000000000000019
:1047A00000000180000C0180000C0180000C0180E1
:1047B000000C018001CFFF8001CFFF8001C7FF8087
:1047C00000000180000001800000018000000180E5
:1047D0000000018000000000000000000000001048
:1047E000000000180004001C000C000C000C000E5F
:1047F000000C0006000C000E008C000C01CFFFFC2A
:1048000001CFFFF801C7FFE000000000000000003A
:104810000000000000000000000000000000000098
:104820000000000001FFFF8001FFFF80000070001A
:104830000000E0000001C0000003F00000077C0061
:1048400000061E00000E0F80000C03800000018097
:104850000000000000000000000000000000000058
:1048600000800000018000000180000001C0000005
:1048700001FFFE0000FFFF00000003800000018038
:104880000000018000000180000001800000038022
:10489000000001000000000000000000000FFF0009
:1048A000000FFF80000FFF80000C000000080000D8
:1048B000000C0000000FFF800007FF80000C0000CC
:1048C00000080000000C0000000FFF80000FFF80B8
:1048D0000003FF00000000000000000000000000D6
:1048E00000000000000FFF80000FFF8000060000A6
:1048F000000C0000000C0000000C0000000C000088
:10490000000E0000000FFF800007FF800000000085
:104910000000000000000000000000000000000097
:104920000001FC000007FE0000078F00000E03805E
:10493000000C0180000C0180000C0180000C018043
:10494000000E038000078F000007FE000001FC003E
:104950000000000000000000000000000000000057
:10496000000FFFF8000FFFFC000FFFF80006070024
:10497000000C0180000C0180000C0180000C018003
:10498000000C0380000FFF000007FE000001F8008C
:104990000000000000000000000000000000000017
:1049A0000001F8000007FE00000FFF00000C03806C
:1049B000000C0180000C0180000C0180000C0180C3
:1049C00000060300000FFFF8000FFFFC000FFFF8C8
:1049D00000000000000000000000000000000000D7
:1049E00000000000000FFF80000FFF8000030000A8
:1049F00000060000000C0000000C0000000C00008D
:104A0000000C0000000E0000000FC0000007C000F6
:104A10000000000000000000000000000000000096
:104A20000000060000078700000FC380000CE38031
:104A3000000C6180000C6180000C6180000C7180B2
:104A4000000C3180000E3F8000061F0000020E00A7
:104A50000000000000000000000000000004000052
:104A6000000C0000000C0000000C0000007FF800AB
:104A700000FFFF0000FFFF80000C0380000C01809E
:104A8000000C0180000C0180000C0380000C0180F0
:104A90000000000000000000000000000000000016
:104AA00000000000000FFF00000FFF000000038067
:104AB00000000180000001800000018000000180F2
:104AC00000000700000FFF80000FFF8000000000C3
:104AD00000000000000000000000000000000000D6
:104AE000000C0000000F80000007E0000001FC0047
:104AF00000003F00000007800000078000003F002A
:104B00000001FC000007E000000F8000000C000026
:104B1000000000000000000000000000000F800006
:104B2000000FFF000003FF800000038000001F80D3
:104B30000000FE000003E0000003E0000000FE00B3
:104B400000001F80000003800003FF80000FFE00B4
:104B5000000F000000000000000000000000000046
:104B600000080080000C0380000E078000078E0004
:104B70000003FC000000F8000000F8000003FC0047
:104B800000078E00000E0780000C038000080080E4
:104B90000000000000000000000000000000000015
:104BA000000C0006000F000C0007E00C0001F81CD0
:104BB00000003F3C00000FF8000007E000003F80CD
:104BC0000000FC000007F000000F8000000E000055
:104BD00000000000000000000000000000000000D5
:104BE00000000100000C0380000C0780000C1D80F9
:104BF000000C3980000C7180000CE180000DC18038
:104C0000000F8180000F0180000E01800000010074
:104C10000000000000000000000000000000000094
:104C20000000800000018000000180000001C00041
:104C300001E3E3C003FF7FF007FE3FF0060000380A
:104C40000E0000180E0000180C00001804000018D8
:104C50000000000000000000000000000000000054
:104C60000000000000000000000000000000000044
:104C70000000000003FFFFF003FFFFF00000000052
:104C80000000000000000000000000000000000024
:104C90000000000000000000000000000000000014
:104CA000040000180C0000180E0000180E00001878
:104CB0000600003807FE3FF003FF7FF001E3E3C08A
:104CC0000001C000000180000001800000008000A1
:104CD00000000000000000000000000000000000D4
:104CE0000001E0000001E00000038000000300007C
:104CF000000380000001C0000000E0000000600030
:104D000000006000000060000003E0000003C0003D
:104D10000000000000000000C8860008D83000082D
:104D2000DC86000858310008E0860008D831000809
:104D3000C486000858320008D4860008D83200081B
:104D4000C086000858330008D0860008D833000811
:104D5000CC86000858340008D8860008D8340008EB
:104D60005835000800000000184D000820005F00C2
:104D70000000000000000040000060001FFF8010E5
:104D8000008007FF0001880003040007FF000060A7
:104D9000000060000FFF000060000060001FFF8047
:104DA0000000000000000000000000000000000003
:104DB00000000040000060000060001FFF801861DC
:104DC0008018618018618018F1801899801B0D800F
:104DD0001E0780180180180180180780000000005D
:104DE00000000000000000000000000000000000C3
:104DF000001EFF803E7F800C08000C18000C1C0079
:104E00001E3A000C69000CC9800C88000E08001CBA
:104E1000080020080000080000000000000000005A
:104E2000000000000000000000000008000C7F00EF
:104E30000C80800C22003EFF800C00000C7F000CD8
:104E400041000C7F000C7F000F2400382400006418
:104E5000C001C7800000000000000000000000004A
:104E60000000000000000042001C430005FF80001D
:104E70004300007F001843000C7F0000430001FF47
:104E8000C00692000C920008A10018FF8010FF805D
:104E90000000000000000000000000000000000012
:104EA00000000000000C000006FF80001800001841
:104EB000001818000C180000180000180006180050
:104EC0000418000C180019FFC010000000000000BA
:104ED00000000000000000000000000000000000D2
:104EE000000FFF000C03000FFF000C03000FFF007A
:104EF0000400000E60000FFF0018600007FF0000B4
:104F000060001FFF801FFF80000000000000000005
:104F100000000000000000000000088000089F80E2
:104F20001FD9803FF980089F800F9F800899800FCC
:104F30009980089F803FD9801FD9800D918018F1FA
:104F4000801033800000000000000000000000001E
:104F50000000000000000000000000000000000051
:104F600000000000000000001FFF803FFFC00000A5
:104F70000000000000000000000000000000000031
:104F80000000000000000000000000000000000021
:104F900000000000000000000FFF000FFF000000F5
:104FA0000000000000000000000000000000000001
:104FB0000000001FFF801FFF8000000000000000B5
:104FC00000000000000000000000000000000000E1
:104FD000000000000FFF00000000000000000000C3
:104FE00000000007FE0000000000000000000000BC
:104FF00000001FFF80000000000000000000000013
:1050000000000000000000000000000000000000A0
:105010001FFF801999801999801999801999801911
:1050200099801B1F801E01801801801FFF801FFFB9
:105030008018018000000000000000000000000057
:105040000000000000000000000000000FFF000052
:10505000C00000C00000C00007FE000FFE00018677
:1050600000018400018C00018C001FFF801FFFC025
:105070000000000000000000000000000000000030
:1050800000000040000060000060000020001FFFE2
:10509000803FFFC0000000010800030C00070E0065
:1050A0000607000C03001C018018018000000000AE
:1050B00000000000000000000000000000000000F0
:1050C0000007FF000FFF000C03000C03000C03009F
:1050D0000FFF000FFF000C03000C03000C03000F78
:1050E000FF000FFF000C03000000000000000000A4
:1050F00000000000000000000000000000000000B0
:10510000000000000000000000000000000000009F
:1051100000000000000000000000000000000FE69A
:10512000000FE6000000000000000000000000008A
:105130000000000000000000000F00000000000060
:1051400000000F0000000000000000000000010847
:1051500000011000017E000FFC0001100001100092
:1051600007FE000FD000011000010800000000073A
:105170000C000F860000C0003FDF801F5F800040F2
:10518000000E7600063C000000000102000F8C00BB
:1051900008980008B0000F8000003E0001A2000344
:1051A0002200063E00040800000000027C000F3EC2
:1051B000000DC2000862000C3600061600001C003C
:1051C000007E00000200000000000000000000005F
:1051D00000000F00000F00000000000000000000B1
:1051E0000000000000000000000000F00007FC00CC
:1051F0000E07001803803000C0100080000000007F
:1052000000000000000000002000C03001801803F2
:10521000800E0F0007FC00002000000000000000CE
:1052200000000000900000D00000F00003FC00032C
:10523000FC0000F00000D000009000000000000022
:105240000000600000600000600001FC0001F80048
:10525000006000006000006000000000000000002E
:1052600000000000400002400006400007800000EF
:1052700000000000000000000000000000006000CE
:10528000006000006000006000006000006000003E
:10529000600000600000000000000000000000004E
:1052A00000000000000600000600000000000000F2
:1052B000000000000000000000000000000380006B
:1052C0001E0000780001C0000F00001C000000005C
:1052D0000000000000000003F80007FC000C36008E
:1052E00008620008C2000D860007FC0003F80000F9
:1052F00000000000000202000602000C020008028A
:10530000000FFE000002000002000002000000008A
:105310000000000006000C0E00080E00081A00082D
:1053200032000C620007C20003020000000000000F
:10533000000006000C060008420008420008C200F7
:105340000DC600077C0000180000000000000000EF
:10535000300000780000D8000398000618000FFE07
:105360000007FC000018000000000000000006001C
:105370000FC6000CC20008C20008C20008460008A0
:105380007C0000180000000000000000780001FC14
:105390000003460004820008820008C600007C006A
:1053A00000380000000000000008000008000008AD
:1053B0000200081E0008780009E0000F00000C0041
:1053C0000000000000000002180007BC000CC6002E
:1053D0000842000842000CC60007BC00021800008A
:1053E000000000000003800007C0000C62000822DB
:1053F000000824000C580007F00003C00000000063
:1054000000000000000000000000000001C60001D4
:10541000C6000000000000000000000000000000C6
:105420000000000000004000024001C64001C780AB
:10543000000000000000000000000000000000006C
:10544000200000600000F00000D0000198000198EA
:1054500000030C00010800000000000000009000A4
:105460000098000098000098000098000098000044
:105470009800009000000000000000030800010CEC
:105480000001980001980000D00000F000006000CA
:105490000020000000000000000000000600000CDA
:1054A00000000826000866000CC0000F8000030002
:1054B00000000000020000067E0004E600048200F6
:1054C00004E000047E0006060003020001F2000072
:1054D0000000000000000E00007C0003F0000E1031
:1054E000000E100003F000007C00000E0000000021
:1054F0000000000000000FFE000842000842000803
:1055000042000CC60007BC000218000000000000AA
:105510000001F00007FC000C06000C060008020069
:105520000802000C02000406000000000000000059
:1055300000000FFE000802000802000C06000C0626
:105540000007FC0001F00000000000000000000067
:105550000FFE00084200084200084200084200080E
:1055600042000802000000000000000000000FFEE2
:1055700000084000084000084000084000084000C3
:1055800008000000000000000003F800071C000CE9
:1055900006000802000862000C6600067C00003865
:1055A000000000000000000000000FFE00004000AE
:1055B0000040000040000040000FFE00000000001E
:1055C00000000000000000000802000802000FFEBA
:1055D000000FFE00080200080200000000000000AA
:1055E000000000000C00000600080200080200088D
:1055F00002000806000FFC00000000000000000090
:10560000000000000FFE0000C00001E000033000B9
:10561000061C000C06000002000000000000000054
:1056200000000FFE000FFE0000020000020000025A
:10563000000002000002000000000000000FFE0059
:105640000FFC000F800000E00000E0000F80000F62
:10565000FC000FFE000000000000000FFE000FFE27
:10566000000F000003C000007800001E000FFE00C5
:105670000FFE0000000000000003F80007FC000C13
:1056800006000802000802000C060007FC0003F8F0
:10569000000000000000000000000FFE00084000B5
:1056A0000840000840000C40000CC00007800000CB
:1056B000000000000003F80007FC000C06000802D0
:1056C000800802800C06C007FC4003F84000000080
:1056D0000000000000000FFE000840000840000825
:1056E00060000C78000CCE00078200000000000073
:1056F00000010800078C000CC60008C20008420028
:105700000C4600067E0000180000000000000008A3
:1057100000000800000800000FFE000FFE00080057
:105720000008000008000000000000000007F00072
:105730000FFC000006000002000002000006000F3F
:10574000FC0007F0000000000000000C00000FC08B
:105750000000F800001E00001E0000F8000FC0004E
:105760000C00000000000000000FF800007E0000A8
:105770003E0001E00001E000003E00007E000FF866
:10578000000000000000000802000E0E00031800D8
:1057900001F00001F0000318000E0E0008020000E6
:1057A00000000000000C0000070000018000007EE7
:1057B00000007E000180000700000C0000000000D7
:1057C000000000040200080E00083A000862000908
:1057D000C2000B02000E02000002000000000000E8
:1057E000000000001FFF003FFF802000802000809D
:1057F0002000801000800000000000000000000079
:1058000000001C00000F000001C000007800001E16
:105810000000038000000000000000000000000005
:105820001000802000802000802000803FFF801F2B
:10583000FF0000000000000000000000000000C0A9
:105840000003800006000006000003800000C00086
:105850000000000000000000000000800000800048
:1058600000800000800000800000800000800000B8
:105870008000000000000000000000000010000098
:105880001800000C000006000000000000000000EE
:105890000000000000007C0000FE00018200010208
:1058A00000010600019C0001FE0000020000000053
:1058B00000000007FC000FFE00018400010200014F
:1058C000020001060001FE00007800000000000058
:1058D0000000700000FC00018600010200010200CF
:1058E00001020001860000800000000000000000AE
:1058F000780001FE0001060001020001020001849F
:10590000000FFE0007FC000000000000000078000F
:1059100001FC0001A6000122000122000122000179
:10592000E600002000000000000000008000008071
:105930000000800007FE000C800008800008800046
:1059400008800000000000000000700001FCC001A1
:10595000064001026001066001844001FFC001FEB3
:10596000000000000000000000000FFE00018000A9
:1059700001000001000001800001FE0000000000A5
:105980000000000000000200010200010200098284
:10599000000DFE00080200000200000200000000EE
:1059A0000000000000C0010040010060010060092B
:1059B00000400DFFC00800000000000000000000D3
:1059C000000000000FFE0000300000600000F0004A
:1059D000019C000106000002000000000000000819
:1059E00000000800000800000FFC00000600000294
:1059F0000000020000060000000000000001FE00A0
:105A000000800001000001FE0000FE000100000116
:105A1000800001FE0000000000000000000001FE08
:105A20000001800001000001000001800001FE0073
:105A300000000000000000000000780001FC0001F0
:105A4000860001020001020001860001FC000078CE
:105A50000000000000000001FF8001FFC001840081
:105A600001020001020001060001FC0000700000BC
:105A7000000000000000700001FC000106000102AF
:105A80000001020001840001FFC001FF800000004E
:105A900000000000000001FE000080000100000185
:105AA000000001000001C00000C000000000000074
:105AB0000000040001E6000126000122000122008E
:105AC000013200019E00000C0000000000000001F7
:105AD000000001000007F8000FFE000102000102B3
